:100000000C942B050C944C050C944C050C944C054D
:100010000C944C050C94F40C0C94670C0C94D90BB8
:100020000C944B0B0C944C050C944C050C944C0507
:100030000C944C050C944C050C944C050C944C05FC
:100040000C944C050C94A60A0C94770A0C94260A7E
:100050000C94010A0C944C050C944C050C944C0522
:100060000C944C050C944C050C944C050C944C05CC
:100070000C944C050C944C050C944C050C944C05BC
:100080000C944C050C944C050C944C050C944C05AC
:100090000C9432080C945F080C944C050C94D91401
:1000A0000C944C050C944C050C944C050C944C058C
:1000B0000C944C050C944C050C944C050C944C057C
:1000C0000C944C050C944C050C944C054A54414737
:1000D000005761746368646F67200042726F776EC7
:1000E0002D4F7574200045787465726E616C200028
:1000F000506F7765722D4F6E20000A5265736574DC
:10010000205175656C6C653A0A00444950343A20B8
:100110004F464620206E6963687420766572776565
:100120006E6465740A00444950343A204F4E2020D2
:10013000206E696368742076657277656E64657495
:100140000A00444950333A204F464620204C43444D
:1001500020696E616B7469760A00444950333A2015
:100160004F4E2020204C434420616B7469760A0076
:10017000444950323A204F46462020446562756714
:100180002D417573676162656E20696E616B74697C
:10019000760A00444950323A204F4E2020204465D0
:1001A0006275672D417573676162656E20616B745E
:1001B00069760A00444950313A204F46462020498A
:1001C0006E74657266616365203D20554152540A24
:1001D00000444950313A204F4E202020496E74652A
:1001E0007266616365203D205457490A00444950B6
:1001F0002D536368616C7465722045696E73746514
:100200006C6C756E67656E3A0A002D2D2D2D2D2DA7
:100210002D2D2D2D2D2D2D2D2D2D2D2D2D2D2D2D0E
:100220002D2D2D2D2D2D0A0A004D6F746F727374B4
:1002300065756572756E672056322E392E323030F4
:1002400039303732310A0070617273652E63203A9B
:10025000207061727365725F6164645F6279746556
:100260002829203A20436865636B20380D0A007006
:10027000617273652E63203A207061727365725FDC
:100280006164645F627974652829203A2043686557
:10029000636B20370D0A0070617273652E63203A1C
:1002A000207061727365725F6164645F6279746506
:1002B0002829203A20436865636B20360D0A0070B8
:1002C000617273652E63203A207061727365725F8C
:1002D0006164645F627974652829203A2043686507
:1002E000636B20350D0A0070617273652E63203ACE
:1002F000207061727365725F6164645F62797465B6
:100300002829203A20436865636B20340D0A007069
:10031000617273652E63203A207061727365725F3B
:100320006164645F627974652829203A20436865B6
:10033000636B20330D0A0070617273652E63203A7F
:10034000207061727365725F6164645F6279746565
:100350002829203A20436865636B20320D0A00701B
:10036000617273652E63203A207061727365725FEB
:100370006164645F627974652829203A2043686566
:10038000636B20310D0A0070617273652E63203A31
:10039000207061727365725F6164645F6279746515
:1003A0002829203A204275666665722066756C6C55
:1003B0000D0A0070617273652E63203A20706172BD
:1003C0007365725F6164645F627974652829203A9D
:1003D00020426567696E0D0A0064656661756C741C
:1003E00020203D2000000000203D2000427974655F
:1003F00073206E656564656420666F7220007061AD
:100400007273652E63203A207061727365725F7536
:1004100070646174652829203A2056616C756520E6
:100420003D0070617273652E63203A2070617273B3
:1004300065725F7570646174652829203A2054697B
:100440006D6573203D0070617273652E63203A20E4
:100450007061727365725F757064617465282920BC
:100460003A20426567696E0D0A000A00717565756C
:10047000652E63203A2071756575655F75706461DE
:1004800074652829203A20456E640A0D007175654F
:1004900075652E63203A2071756575655F757064AA
:1004A0006174652829203A204E4F205052494F52FE
:1004B0004954590A0D0071756575652E63203A20FF
:1004C00071756575655F7570646174652829203A7A
:1004D000205052494F524954590A0D0071756575A3
:1004E000652E63203A2071756575655F757064616E
:1004F00074652829203A20476F74204E6577204F75
:100500007264657220746F206C6F63616C20766119
:10051000720A0D0071756575652E63203A2071753C
:100520006575655F7570646174652829203A204F90
:100530007264657220737472756374757265206974
:100540006E697469616C697A65640A0071756575B4
:10055000652E63203A2071756575655F75706461FD
:1005600074652829203A20576520686176652061E6
:10057000206E6577206F726465720A0D0071756573
:1005800075652E63203A2071756575655F707573AA
:10059000682829203A20456E640A007175657565E2
:1005A0002E63203A2071756575655F7075736828D4
:1005B00029203A20436865636B20350A0071756510
:1005C00075652E63203A2071756575655F7075736A
:1005D000682829203A20436865636B20340A00713B
:1005E000756575652E63203A2071756575655F7058
:1005F0007573682829203A20436865636B20330AA5
:100600000071756575652E63203A20717565756595
:100610005F707573682829203A20436865636B20F2
:10062000320A0071756575652E63203A2071756513
:1006300075655F707573682829203A204368656383
:100640006B20310A0071756575652E63203A207143
:10065000756575655F707573682829203A20426555
:1006600067696E0A006F726465725F66756E6374A7
:10067000696F6E732E63203A2064726976655F69D4
:100680006E737472756374696F6E2829203A202026
:10069000747269676765725F76616C75655F7269B0
:1006A000676874203D20006F726465725F66756EC6
:1006B0006374696F6E732E63203A20647269766585
:1006C0005F696E737472756374696F6E2829203A5E
:1006D0002020747269676765725F76616C75655F0B
:1006E0006C656674203D20006F726465725F66758C
:1006F0006E6374696F6E732E63203A20647269763C
:10070000655F696E737472756374696F6E282920F2
:100710003A20204E6F742072756E6E696E670A0003
:100720006F726465725F66756E6374696F6E732E47
:1007300063203A2064726976655F696E73747275BE
:100740006374696F6E2829203A2020737065656490
:100750005F7269676874203D20006F726465725F24
:1007600066756E6374696F6E732E63203A206472CF
:100770006976655F696E737472756374696F6E28EC
:1007800029203A202073706565645F6C656674206B
:100790003D20006F726465725F66756E6374696F89
:1007A0006E732E63203A2064726976655F696E739A
:1007B0007472756374696F6E2829203A2020446F23
:1007C000696E67206572726F7220636F7272656303
:1007D00074696F6E0A006F726465725F66756E632E
:1007E00074696F6E732E63203A2064726976655F58
:1007F000696E737472756374696F6E2829203A206C
:1008000020737461747573203D204F524445525FCC
:100810005354415455535F545249474745525F52D0
:10082000494748545F524541434845440A006F7266
:100830006465725F66756E6374696F6E732E632094
:100840003A2064726976655F696E73747275637459
:10085000696F6E2829203A2020636865636B5472A3
:10086000696767657228524947485429203D20002E
:100870006F726465725F66756E6374696F6E732EF6
:1008800063203A2064726976655F696E737472756D
:100890006374696F6E2829203A202073746174751F
:1008A00073203D204F524445525F53544154555399
:1008B0005F545249474745525F4C4546545F524545
:1008C00041434845440A006F726465725F66756E05
:1008D0006374696F6E732E63203A20647269766563
:1008E0005F696E737472756374696F6E2829203A3C
:1008F0002020636865636B54726967676572284C72
:1009000045465429203D20006F726465725F66750C
:100910006E6374696F6E732E63203A206472697619
:10092000655F696E737472756374696F6E282920D0
:100930003A2020737461747573203D204F524445F2
:10094000525F5354415455535F535441525445449C
:100950000A006F726465725F66756E6374696F6EAC
:10096000732E63203A2064726976655F696E7374D2
:1009700072756374696F6E2829203A202073746140
:10098000747573203D204F524445525F5354415477
:1009900055535F444F4E450A006F726465725F663F
:1009A000756E6374696F6E732E63203A206472698A
:1009B00076655F696E737472756374696F6E2829EA
:1009C000203A2020747269676765725F7479706578
:1009D0005F7269676874203D20006F726465725FA2
:1009E00066756E6374696F6E732E63203A2064724D
:1009F0006976655F696E737472756374696F6E286A
:100A000029203A2020747269676765725F74797073
:100A1000655F6C656674203D20006F726465725F6F
:100A200066756E6374696F6E732E63203A2064720C
:100A30006976655F696E737472756374696F6E2829
:100A400029203A202053746172742065786563759B
:100A500074696F6E0A0011241FBECFEFD1E2DEBFB2
:100A6000CDBF00E00CBF12E0A0E0B2E0EAEEF2E39E
:100A700000E00BBF02C007900D92A039B107D9F773
:100A800017E0A0E9B2E001C01D92A131B107E1F782
:100A90000E946F060C9474190C9400000895CF9373
:100AA000DF930E94C713EC01009751F00E942316B8
:100AB0008F8582FF07C00E94C9100E94FB1302C0ED
:100AC0000E94DA10DF91CF91089580E00E94E30741
:100AD000882329F060E081E992E00E94A20781E08A
:100AE0000E94E307882329F061E081E992E00E94F7
:100AF000A20782E00E94E307882329F062E081E9EF
:100B000092E00E94A20783E00E94E307882329F075
:100B100063E081E992E00E94A20708958CE00E94C0
:100B20005C078BE00E945C078EE00E945C0780E01F
:100B30000E946815882319F08BE00E943C0781E031
:100B40000E946815882319F08CE00E943C0782E01F
:100B50000E946815882319F08EE00E943C070895D2
:100B60008EE00E948007882321F180E092E00E94BD
:100B7000390E61E080E00E94FD0D80E00E94681562
:100B8000882319F082E192E002C08EE192E00E9497
:100B9000390E62E080E00E94FD0D81E00E94681540
:100BA000882319F08BE292E002C089E392E00E9470
:100BB000390E8CE00E943C070E944F1289E292E0BD
:100BC0000E942C128AE092E00E942C128DEE91E09D
:100BD0000E942C1280E00E946815882319F081ED94
:100BE00091E002C084EB91E00E942C1281E00E940F
:100BF0006815882319F083E991E002C080E791E04D
:100C00000E942C1282E00E946815882319F08AE560
:100C100091E002C082E491E00E942C1283E00E94E5
:100C20006815882319F086E291E002C08AE091E01D
:100C30000E942C128AEF90E00E942C128091900268
:100C400080FF04C080EF90E00E942C1280919002FF
:100C500081FF04C086EE90E00E942C1280919002E9
:100C600082FF04C08BED90E00E942C1280919002D4
:100C700083FF04C081ED90E00E942C1280919002CD
:100C800084FF04C08CEC90E00E942C120E943A1267
:100C90000E948E0508950F931F9378940E9461150A
:100CA0000E94AA130E9492060E94B5090E94B015E4
:100CB0000E94D50A0E9419140E9483158CE00E949C
:100CC000530E04EF11E02AE030E044E150E060E52B
:100CD00070E082E00E94F0111F910F91089584B797
:100CE0008093900214BEA89588E10FB6F894809383
:100CF0006000109260000FBE0E944B060E94A31578
:100D00000E948E050E94B0050E9465050E944F0555
:100D10008EE00E9480070E94D00F0E9487140E94DC
:100D2000A315F2CF84B18F6084B985B1807F85B976
:100D3000279A2F989D9AA59881EA84BD83E085BD66
:100D400017BC18BC089518161CF080E090E00895B8
:100D500086321CF48A5D90E00895880F8F5F90E0E2
:100D60000895882311F417BC0895992787FD90955D
:100D7000BC0197FF04C066277727681B790B262FD5
:100D800070E00E9410198FEF6F3F780731F06130EB
:100D9000710529F4299A289802C02998289A822F47
:100DA0000E94A30687BD0895882311F418BC0895F6
:100DB000992787FD9095BC0197FF04C06627772788
:100DC000681B790B262F70E00E9410198FEF6F3F80
:100DD000780731F06130710529F42B982A9A02C006
:100DE0002B9A2A98822F0E94A30688BD08951F93EC
:100DF000162F813059F0813018F08230A1F409C0EB
:100E000060939202862F0E94B1060DC060939302F8
:100E100007C06093920260939302862F0E94B106EE
:100E2000812F0E94D4061F910895E2E9F2E0E80FB5
:100E3000F11D8081992787FD90950895089581304F
:100E400059F0813018F08230B1F40CC085B1836064
:100E500085B98FEF87BD089585B18C6085B98FEF17
:100E600088BD089585B1836085B99FEF97BD85B131
:100E70008C6085B998BD089521E030E040E050E0F5
:100E800004C0220F331F441F551F8A95D2F780914B
:100E9000940290919502A0919602B0919702822BB4
:100EA000932BA42BB52B8093940290939502A0933F
:100EB0009602B0939702089521E030E040E050E0C0
:100EC00004C0220F331F441F551F8A95D2F7209567
:100ED0003095409550958091940290919502A09103
:100EE0009602B091970282239323A423B523809383
:100EF000940290939502A0939602B093970208955E
:100F0000282F81E090E0A0E0B0E0022E04C0880F1E
:100F1000991FAA1FBB1F0A94D2F7409194025091C7
:100F20009502609196027091970284239523A623DF
:100F3000B72304C0B695A795979587952A95D2F7BC
:100F400090E00895FC0181E090E002C0880F991FB5
:100F50006A95E2F72081282B20830895FC0181E027
:100F600090E002C0880F991F6A95E2F78095208172
:100F7000282320830895FC0181E090E0062E02C022
:100F8000880F991F0A94E2F7208130E0822393238F
:100F900002C0959587956A95E2F790E00895FC0167
:100FA000808190E0062E02C0959587950A94E2F71D
:100FB00080FD03C080E090E00895CF010E94AE075D
:100FC00081E090E008952091940230919502409143
:100FD000960250919702682FDA01C901062E04C0CB
:100FE000B695A795979587950A94D2F781709070DA
:100FF000892B19F480E090E0089581E090E0A0E072
:10100000B0E004C0880F991FAA1FBB1F6A95D2F7D2
:1010100080959095A095B09582239323A423B52322
:101020008093940290939502A0939602B0939702B6
:1010300081E090E00895E9ECF0E0808180628083B7
:1010400008951092CD0080E18093CC008BE00E9447
:101050008007882319F488E98093C90080EC809385
:10106000C80008951F920F920FB60F9211241F937C
:101070002F933F934F935F936F937F938F939F93A0
:10108000AF93BF93EF93FF931091CE0064E084E0A1
:101090000E94B908812F0E941413FF91EF91BF9114
:1010A000AF919F918F917F916F915F914F913F9100
:1010B0002F911F910F900FBE0F901F9018951F92A8
:1010C0000F920FB60F9211242F933F934F935F937C
:1010D0006F937F938F939F93AF93BF93EF93FF9300
:1010E0000E946513882331F40E946C130E948213BE
:1010F000882329F00E943D138093CE0005C0809183
:10110000C9008F7D8093C900FF91EF91BF91AF918E
:101110009F918F917F916F915F914F913F912F910F
:101120000F900FBE0F901F9018951F93182F8BE0F4
:101130000E948007882329F48CE00E94800788237E
:1011400059F01093CE008091C90080628093C9004D
:101150008091C90085FDFCCF1F9108958091980270
:101160009091990280709078909399028093980260
:101170000895823019F1833030F4882351F08130A2
:1011800009F046C00EC0833039F1843009F040C008
:101190002EC02091980230919902287F862F90E0EE
:1011A00031C02091980230919902277C862F90E0DF
:1011B00073E0880F991F7A95E1F724C02091980277
:1011C000309199022F733E7F862F90E066E0880F62
:1011D000991F6A95E1F716C0209198023091990203
:1011E000317F862F90E0982F8827990F0BC0209190
:1011F0009802309199023F78862F90E0982F8827A7
:101200009295907F822B932B9093990280939802D2
:101210008091980283BB0895CF93DF936FE10E9482
:101220000419C92FD0E090FF03C061E080E002C044
:1012300061E081E00E94B908CE0183709070892B33
:1012400021F461E082E00E94B908CE0187709070BD
:10125000892B21F461E083E00E94B908CF70D0703F
:10126000CD2B21F461E084E00E94B908DF91CF9199
:101270000895809198029091990208958091980222
:10128000909199028050904890939902809398028F
:10129000089580919802909199028827990F881F4C
:1012A0009927089583B38F6183BB809198029091B1
:1012B0009902807090789093990280939802089593
:1012C00088E492E00E942C1283E00E94E3078823C6
:1012D000D9F361E080E00E94B90881E692E00E94C3
:1012E0002C1283E00E94E3078823D9F361E081E0B8
:1012F0000E94B90886E692E00E942C1283E00E94C8
:10130000E3078823D9F361E082E00E94B9088DE603
:1013100092E00E942C1283E00E94E3078823D9F315
:1013200061E083E00E94B90886E792E00E942C12F7
:1013300083E00E94E3078823D9F361E084E00E9400
:10134000B9088EE792E00E942C1283E00E94E30726
:101350008823D9F3809198029091990280709078B7
:10136000909399028093980208958AEF90E0909369
:1013700089008093880084EC99E090938B0080939F
:101380008A0088EA91E690938D0080938C008FE02C
:1013900080936F0083E08093810008958091A10283
:1013A0008F3719F08F5F8093A10208958091A0027A
:1013B0008F3719F08F5F8093A00208958091A1026A
:1013C00082381CF081508093A10208958091A00280
:1013D00082381CF081508093A0020895882329F060
:1013E000813049F080E090E0089580919E02992735
:1013F00087FD9095089580919F02992787FD90958C
:1014000008951F920F920FB60F9211242F933F93BE
:101410004F935F936F937F938F939F93AF93BF93FC
:10142000EF93FF9383E00E943C07FF91EF91BF9100
:10143000AF919F918F917F916F915F914F913F916C
:101440002F910F900FBE0F901F9018951F920F9223
:101450000FB60F9211242F933F934F935F936F9387
:101460007F938F939F93AF93BF93EF93FF9380915D
:1014700084009091850088559E4990938D008093BB
:101480008C0082E00E943C0780919A0290919B021E
:10149000009729F0019790939B0280939A02809184
:1014A0009C0290919D02009729F0019790939D02D4
:1014B00080939C028091A10280939E028091A00261
:1014C00080939F021092A1021092A002FF91EF91CF
:1014D000BF91AF919F918F917F916F915F914F914C
:1014E0003F912F910F900FBE0F901F9018951F9254
:1014F0000F920FB60F9211242F933F934F935F9348
:101500006F937F938F939F93AF93BF93EF93FF93CB
:1015100080918400909185008C53964F90938B001E
:1015200080938A0081E00E943C07FF91EF91BF9178
:10153000AF919F918F917F916F915F914F913F916B
:101540002F910F900FBE0F901F9018951F920F9222
:101550000FB60F9211242F933F934F935F936F9386
:101560007F938F939F93AF93BF93EF93FF9380915C
:1015700084009091850086509F4F909389008093BE
:10158000880080E00E943C07FF91EF91BF91AF91EE
:101590009F918F917F916F915F914F913F912F918B
:1015A0000F900FBE0F901F9018958DB18F708DB951
:1015B0008EB1806F8EB985E580936A0080EF8DBB18
:1015C0000895882319F0813071F405C08091A2023A
:1015D0009091A30204C08091A4029091A5029093DF
:1015E000AE028093AD028091AD029091AE0208955B
:1015F0009FB79093AA02F894813071F0813018F06F
:10160000823071F405C01092A3021092A20208C0A9
:101610001092A3021092A2021092A5021092A402AC
:101620009FBF08958091AB029091AC0208952FB7AF
:101630002093AA02F8949093AC028093AB022FBF40
:1016400008958FB78093AA02F8941092AC0210927A
:10165000AB028FBF08952FB72093AA02F894FC0124
:10166000AFEAB2E086E00D9001928150E1F72FBF22
:1016700008958FB78093AA02F8941092B002109246
:10168000AF021092B2021092B1021092B402109204
:10169000B3028FBF08951F920F920FB60F921124BD
:1016A0002F933F934F935F936F937F938F939F936A
:1016B000AF93BF93EF93FF938CB190E0807C9070D9
:1016C00080349105A1F1813491051CF4892B41F0FE
:1016D00054C08038910559F1803C910509F04DC006
:1016E0008091A4029091A50201969093A502809307
:1016F000A4028091B1029091B20201969093B2023D
:101700008093B1028091AB029091AC0201979093CB
:10171000AC028093AB028091B3029091B402019726
:101720009093B4028093B3020E94D60926C08091A0
:10173000A4029091A50201979093A5028093A40220
:101740008091B1029091B20201979093B20280937E
:10175000B1028091AB029091AC0201969093AC02E1
:101760008093AB028091B3029091B4020196909362
:10177000B4028093B3020E94E6098091A80290917E
:10178000A902009729F001979093A9028093A802DB
:10179000FF91EF91BF91AF919F918F917F916F9149
:1017A0005F914F913F912F910F900FBE0F901F901F
:1017B00018951F920F920FB60F9211242F933F93FB
:1017C0004F935F936F937F938F939F93AF93BF9349
:1017D000EF93FF938CB190E0807C90708034910502
:1017E000A1F1813491051CF4892B41F054C080385B
:1017F000910559F1803C910509F04DC08091A402FA
:101800009091A50201979093A5028093A4028091E4
:10181000B1029091B20201979093B2028093B1020B
:101820008091AB029091AC0201969093AC028093B0
:10183000AB028091B3029091B40201969093B402EE
:101840008093B3020E94E60926C08091A402909181
:10185000A50201969093A5028093A4028091B10203
:101860009091B20201969093B2028093B10280915E
:10187000AB029091AC0201979093AC028093AB02C3
:101880008091B3029091B40201979093B402809337
:10189000B3020E94D6098091A8029091A9020097F4
:1018A00029F001979093A9028093A802FF91EF91EC
:1018B000BF91AF919F918F917F916F915F914F9168
:1018C0003F912F910F900FBE0F901F9018951F9270
:1018D0000F920FB60F9211242F933F934F935F9364
:1018E0006F937F938F939F93AF93BF93EF93FF93E8
:1018F0008CB190E0807390708031910599F18131C5
:1019000091051CF4892B39F053C08032910551F1B7
:10191000C09709F04DC08091A2029091A302019757
:101920009093A3028093A2028091AF029091B002A3
:1019300001979093B0028093AF028091AB02909197
:10194000AC0201979093AC028093AB028091B302FA
:101950009091B40201979093B4028093B3020E94D5
:10196000DE0926C08091A2029091A3020196909375
:10197000A3028093A2028091AF029091B0020196DF
:101980009093B0028093AF028091AB029091AC0231
:1019900001969093AC028093AB028091B302909138
:1019A000B40201969093B4028093B3020E94CE09D0
:1019B0008091A6029091A702009729F00197909339
:1019C000A7028093A602FF91EF91BF91AF919F91E3
:1019D0008F917F916F915F914F913F912F910F90D8
:1019E0000FBE0F901F9018951F920F920FB60F9277
:1019F00011242F933F934F935F936F937F938F9314
:101A00009F93AF93BF93EF93FF938CB190E080735C
:101A100090708031910599F1813191051CF4892BE9
:101A200039F053C08032910551F1C09709F04DC093
:101A30008091A2029091A30201969093A3028093B9
:101A4000A2028091AF029091B00201969093B002F1
:101A50008093AF028091AB029091AC02019690937B
:101A6000AC028093AB028091B3029091B4020196D4
:101A70009093B4028093B3020E94CE0926C0809155
:101A8000A2029091A30201979093A3028093A202D5
:101A90008091AF029091B00201979093B002809331
:101AA000AF028091AB029091AC0201979093AC028F
:101AB0008093AB028091B3029091B402019790930E
:101AC000B4028093B3020E94DE098091A602909135
:101AD000A702009729F001979093A7028093A6028E
:101AE000FF91EF91BF91AF919F918F917F916F91F6
:101AF0005F914F913F912F910F900FBE0F901F90CC
:101B000018958A9A00C08A980895CF93DF93662328
:101B100011F0889A01C088988998849A859A869A43
:101B2000879A8F988E988D988C9887FD8F9AC82F5A
:101B300086FD8E9AC5FD8D9AC4FD8C9A0E94810DFA
:101B40008F988E988D988C98C3FD8F9AC2FD8E9A2F
:101B5000C1FD8D9AC0FD8C9A0E94810D8C9A8D9A40
:101B60008E9A8F9ADF91CF910895882311F0889AE9
:101B700001C08898899A84988598869887988A9AC7
:101B800000C07C9B02C080E101C080E07D99806242
:101B90007E9980647F9980688A9800C08A9A00C084
:101BA0007C9981607D9982607E9984607F9988604C
:101BB0008A9890E0089580E00E94B50D87FDFBCFE4
:101BC00088E090E00197F1F780E00E94B50D90E089
:101BD00008951F93182F0E94DB0D60E0812F0E9453
:101BE000850D1F9108951F93182F0E94DB0D61E052
:101BF000812F0E94850D1F910895662311F480584E
:101C000009C0613011F4805405C0623011F48C5663
:101C100001C08C520E94E90D08950E94DB0D90E0F6
:101C2000089581E00E94E90D089582E00E94E90D87
:101C300008951F93182F0E94DB0D982F1A3099F4E6
:101C4000843110F480E40BC08054843110F484E1BA
:101C500006C094519C3210F484E501C080E08058A5
:101C60000E94E90D04C061E0812F0E94850D1F9143
:101C70000895CF93DF93EC0102C00E94190E899161
:101C80008823D9F7DF91CF910895CF93DF93EC01AB
:101C900002C00E94190EFE01219684918823C9F783
:101CA000DF91CF910895FF920F931F93F82E809AA2
:101CB000819A829A849A859A869A879A80E09AEF86
:101CC0000197F1F78D9A8C9A0E94810D80E09EE435
:101CD0000197F1F70E94810D00E011E0C801019722
:101CE000F1F70E94810DC8010197F1F78C980E94CD
:101CF000810DC8010197F1F788E20E94E90D88E0A3
:101D00000E94E90D0E94110E86E00E94E90D8F2DC0
:101D10000E94E90D1F910F91FF90089581E090E0DE
:101D2000089520E030E0809187028F3F11F021E09C
:101D300030E0C9010895FC019785892F826087876B
:101D400080818F708150823010F49264978708955B
:101D50000F931F938C0180918702992787FD90959F
:101D600034E0880F991F3A95E1F78E56994F0E94FB
:101D70009B0E80918702992787FD909524E0880F1C
:101D8000991F2A95E1F7B8018E56994F0E940A16BD
:101D900080918702992787FD9095019665E070E014
:101DA0000E941019809387022091B502281719F418
:101DB0008FEF809387021F910F9108951F93CF9308
:101DC000DF93182FC82FD0E0BE018CEE93E00E9465
:101DD000681288EE93E00E942C12CE018F709070F2
:101DE0008330910571F0843091051CF4019724F43F
:101DF0003AC00497C1F52EC061E070E087EE93E031
:101E000036C0CE0180739070C09771F4CE01807C93
:101E10009070803C910511F463E014C016FD11C070
:101E200017FD0FC062E00EC014FD04C015FD02C016
:101E300063E001C065E0C6FD02C017FF03C06E5F2E
:101E400001C064E0C62FD0E0BE0186EE93E00E94A0
:101E5000681211C069E070E085EE93E00E9468129C
:101E6000C9E0D0E008C061E070E089ED93E00E9435
:101E70006812C1E0D0E0CE01DF91CF911F910895AB
:101E80001F93FC01162F8081282F30E02F703070B7
:101E90002115310519F481E090E00FC0293031059A
:101EA0001CF080E090E009C00E94DE0E20E030E0EF
:101EB000181710F021E030E0C9011F9108951F9319
:101EC000182F83EB93E00E942C129091B502809121
:101ED0008702981719F487E893E05EC08FE593E0D6
:101EE0000E942C128091B602E091B502FF27E7FD17
:101EF000F09554E0EE0FFF1F5A95E1F7E80FF11D42
:101F0000EE56F94F108387E393E00E942C128091E4
:101F1000B6028F5F8093B6028FE093E00E942C128E
:101F20006091B6026F3080F48091B502992787FDE9
:101F3000909544E0880F991F4A95E1F78E56994F86
:101F40000E94400F892B31F187EE92E00E942C1203
:101F5000809187028F3F41F48091B5028093870280
:101F60008FEB92E00E942C1287E992E00E942C12E3
:101F70008091B502992787FD9095019665E070E004
:101F80000E9410198093B5028FE692E00E942C12F5
:101F90001092B60287E492E00E942C121F910895DD
:101FA000CF92DF92EF92FF921F93CF93DF93CDB743
:101FB000DEB721970FB6F894DEBF0FBECDBF1982F2
:101FC0000E94D012182F8823E1F086E494E00E944A
:101FD0002C12612F70E082E294E00E94681211C01E
:101FE000C6010E94E312898190E00E9495086981F0
:101FF00070E0C7010E94681289810E945F0F115032
:1020000008C06E010894C11CD11C6EEFE62E63E07F
:10201000F62E112329F721960FB6F894DEBF0FBED6
:10202000CDBFDF91CF911F91FF90EF90DF90CF90C8
:1020300008951F93CF93DF9310E0C2E9D6E0CE015D
:102040000E94FB151F5F1530D1F7DF91CF911F91D3
:1020500008950F931F93F801978386837187608794
:102060005387428711821082138212823583248320
:102070001F910F910895EF92FF920F931F93FA0112
:10208000A82FB0E0A61BB70B828193818A0F9B1FFC
:102090009383828324813581281739071CF4338385
:1020A000228304C097FF02C0138212828681978127
:1020B000A89FB001A99F700DB89F700D1124428197
:1020C000538120853185429F7001439FF00C529FC0
:1020D000F00C11240027F7FC0095102F208131818E
:1020E000AD01421B530B22853385C901489F9001E6
:1020F000499F300D589F300D1124B183A08388274C
:1021000077FD8095982F6E0D7F1D801F911F4427AE
:1021100037FD4095542F620F731F841F951F24E6CF
:1021200030E040E050E00E9423192038310541059D
:1021300051052CF02FE730E040E050E006C057FF9B
:1021400004C020E030E040E050E0822F90E01F919A
:102150000F91FF90EF900895823018F08230C1F413
:102160000FC090E0FC01EE0FFF1FE80FF91FEE0F0C
:10217000FF1FEE0FFF1FE954FD4F73836283089525
:102180007093BA026093B9027093C6026093C5025D
:1021900008958091A2029091A3029093E306809308
:1021A000E2068091A4029091A5029093E5068093A7
:1021B000E40608952091E2063091E3068091A202A0
:1021C0009091A3022817390711F460E006C0281780
:1021D000390714F468ED01C068E280E00E94F70658
:1021E0002091E4063091E5068091A4029091A50229
:1021F0002817390711F460E006C02817390714F4CE
:1022000068ED01C068E281E00E94F70608950F932F
:102210001F938C0180E00E941507F801828381E002
:102220000E941507F80183838091A2029091A30276
:10223000958384838091A4029091A50297838683DD
:102240001F910F910895FF920F931F93CF93DF93E8
:10225000F62E813049F1813020F0823009F0BAC089
:102260003EC016166CF480E00E94EE09992787FDA7
:10227000909547EB52E0BC018F2D0E943B1011C09E
:1022800080E00E94EE09992787FD909590958195B1
:102290009F4F47EB52E0BC018F2D81950E943B1070
:1022A0008195682F80E094C0161654F481E00E9456
:1022B000EE09992787FD909543EC52E0BC0152C08E
:1022C00081E00E94EE09992787FD90959095819570
:1022D0009F4F43EC52E0BC018F2D819574C080E08C
:1022E0000E94EE09082F112707FD109581E00E943A
:1022F000EE09C82FDD27C7FDD0950E94120B80FF85
:1023000003C0080F191F02C0C81BD90B62E070E0A0
:102310000E941019C801860F971F9E01261B370BBC
:102320001F1424F5BC018038910514F06FE770E0AC
:10233000E9012038310514F0CFE7D0E077FF02C083
:1023400060E070E047EB52E08F2D0E943B10682F59
:1023500080E00E94F706BE01D7FF02C060E070E097
:1023600043EC52E08F2D0E943B1030C0BC01181688
:10237000190614F460E070E0E9011216130614F473
:10238000C0E0D0E01F2D11958FEF6138780714F46D
:1023900061E87FEF709561957F4F47EB52E0812FA9
:1023A0000E943B108195682F80E00E94F706BE01D5
:1023B000C158DF4F14F461E87FEF709561957F4F4E
:1023C00043EC52E0812F0E943B108195682F81E001
:1023D0000E94F706DF91CF911F910F91FF90089512
:1023E000AF92BF92CF92DF92EF92FF920F931F9323
:1023F000CF93DF935B016A017901E801823018F025
:10240000823099F40DC00CE0809F800111240954A2
:102410001D4F9E01A701B601C5010E94291005C0EC
:1024200080E00E94F01181E0EECFDF91CF911F910B
:102430000F91FF90EF90DF90CF90BF90AF900895F5
:102440001F93182F8CE00E948007882319F0812F9A
:102450000E9495081F910895CF93DF93EC0102C06D
:102460000E942012FE01219684918823C9F7DF91F2
:10247000CF9108958AE694E00E942C120895CF939C
:10248000DF93EC0102C00E94201289918823D9F7C2
:10249000DF91CF9108958BE10E94201208950E9450
:1024A0004B1283E60E94201208950F931F938C0114
:1024B0000E944B128BE50E942012C8010E943F121D
:1024C0001F910F91089588E892E00E945512089597
:1024D000EF92FF920F931F938C01CB012FECE22E12
:1024E00022E0F22E4AE050E0B7010E94D318C80162
:1024F0000E942C12C7010E943F120E9463120E9488
:102500003A121F910F91FF90EF9008950F931F9330
:102510000FEC12E04AE050E0B80190E00E94D318BE
:10252000C8010E94551281E40E9420121F910F9150
:102530000895FF920F931F93F82E862F0FEC12E051
:102540004AE050E0B80190E00E94D318C8010E9410
:1025500055128BE30E9420124AE050E0B8018F2D03
:1025600090E00E94D318C8010E943F1288E40E94A4
:1025700020121F910F91FF9008958AE892E00E9427
:1025800055120895CF93DF93EC018CE00E948007F1
:10259000882319F088810E942012DF91CF9108953D
:1025A00090918D028091D902992311F4819504C0F4
:1025B000981720F4891B809590E00895981B9150FE
:1025C000892F90E00895DC018091D902E82FF0E096
:1025D00031969F013070319780918D0290E02817DD
:1025E000390719F480E090E00895E352FD4F8081AF
:1025F0008C932093D90281E090E00895282F909148
:102600008E028091DA02981719F480E090E0089524
:10261000892F90E0FC01E452FC4F208301968093C7
:102620008E0281E090E00895282F90918D02809194
:10263000D902981749F0892F90E0FC01E452FD4F30
:102640002083019680938D0208958091DB0290E0B3
:10265000FC01E352FB4FE0810196907020918F02C4
:1026600030E08217930719F480E090E0089580919C
:10267000DA02E81B8E2F90E008951F93CF93DF932B
:102680008091DA02C82FD0E09E012F5F3F4F30705B
:1026900080918E0290E02817390789F01091DC02B2
:1026A0000E942513181758F4812F8F5F8093DC0246
:1026B000C80FD11DC452DC4F888190E002C08FEF5B
:1026C00090E0DF91CF911F9108950E942513909182
:1026D000DC02891B90E008954091DB024F5F242FBC
:1026E00030E0415080918F0290E02817390729F09F
:1026F0004F5F4093DB021092DC0208950895109220
:10270000DC02089590918F028091DB02992311F4ED
:10271000819504C0981720F4891B809590E0089556
:10272000981B9150892F90E0089580918F0290E03E
:10273000FC01E452FB4F20918E0221502083019630
:1027400080938F028BE00E948007882311F40E94FF
:102750001B0808950E94CD140E9421080E9452096E
:1027600061E080E00E94B90808958091DD0588232A
:1027700019F480E090E008958091DE0590E024E077
:10278000880F991F2A95E1F780529A4F08958091FA
:102790008F0686FF03C080E896E00895809190063A
:1027A000882379F48091DD05882359F08091DE0536
:1027B00090E034E0880F991F3A95E1F780529A4FE4
:1027C000089580E090E0089590E080918F0686FD66
:1027D00091E08091DD05980F892F90E0089581E0C8
:1027E00080939006089510929006089580E896E0F0
:1027F0000E94FB1508958091DD058823C9F0809122
:10280000DE0590E044E0880F991F4A95E1F7805279
:102810009A4F0E94FB158091DD0581508093DD0564
:102820008091DE058F5F6AE00E9404199093DE05B7
:102830000895CF93DF93C0EED5E0CE010E94FB1543
:10284000609686E0C037D807C1F780E896E00E941E
:10285000FB151092DE051092DF051092DD05109237
:102860009006DF91CF9108950E9419140895CF9397
:10287000DF93EC0185E496E00E942C128091DD0547
:102880008A3039F483E296E00E942C1280E090E0D6
:1028900034C081E096E00E942C126091DF0570E068
:1028A00054E0660F771F5A95E1F760527A4FCE01D8
:1028B0000E940A168FED95E00E942C128091DD0592
:1028C0008F5F8093DD058DEB95E00E942C12809147
:1028D000DF058F5F8093DF058BE995E00E942C1266
:1028E0008091DF056AE00E9404199093DF058DE76F
:1028F00095E00E942C1281E090E0DF91CF91089545
:1029000060E876E00E940A1681E090E008950F9357
:102910001F93CF93DF93CDB7DEB760970FB6F894D0
:10292000DEBF0FBECDBF0E94910E882359F18CE40B
:1029300095E00E942C128E010F5F1F4FC8010E946C
:10294000FB1584E195E00E942C12C8010E94A80E9C
:102950008CED94E00E942C12888986FF08C086EBDB
:1029600094E00E942C12C8010E94801407C08DE8D8
:1029700094E00E942C12C8010E9437148CE694E067
:102980000E942C1260960FB6F894DEBF0FBECDBF2A
:10299000DF91CF911F910F9108958BE00E948007E6
:1029A000882331F084E58093BA0085E48093BC00ED
:1029B00008951F920F920FB60F9211241F932F9319
:1029C0003F934F935F936F937F938F939F93AF93B7
:1029D000BF93EF93FF9364E084E00E94B908909165
:1029E000B9008FEC8093BC00987F9838B9F0993883
:1029F00040F49036E9F0903889F0992309F443C007
:102A000049C0983B71F1993B20F4983A09F042C0D3
:102A100020C0903C99F1983CE9F52EC08091BB0014
:102A20000E9414130E94D0128230A0F58FE830C0AB
:102A30000E94D012823018F48FE88093BC0010916D
:102A4000BB0064E083E00E94B908812F0E94141348
:102A500021C080919106882321F0109291060E9456
:102A60006C130E943D138093BB0081E0809391061C
:102A70000E9465138FEC0CC00E946C13109291069B
:102A80000E947F1307C0109291060E947F138FED62
:102A90008093BC008091BC0080688093BC00FF9153
:102AA000EF91BF91AF919F918F917F916F915F91C6
:102AB0004F913F912F911F910F900FBE0F901F903C
:102AC00018958AB18F708AB98BB1806F8BB90895D0
:102AD00029B1482F81E090E0042E02C0880F991F91
:102AE0000A94E2F730E02095309554E0359527952B
:102AF0005A95E1F78223932302C0959587954A95CD
:102B0000E2F790E008951092E6061092E706109220
:102B1000E8061092E9061092EB061092EA0610926F
:102B2000ED061092EC061092EF061092EE0610924F
:102B3000F0060895FC01A6EEB6E08BE00D90019240
:102B40008150E1F708950F931F9306EE16E0C80138
:102B50000E941E07C8010E9407111F910F9108953E
:102B600080E496E19093F2068093F10681E397E189
:102B70009093F4068093F30685EB96E19093F60626
:102B80008093F50688E697E19093F8068093F70620
:102B900083E896E19093FA068093F9061092FC067A
:102BA0001092FB061092FE061092FD06109200078E
:102BB0001092FF061092020710920107109204076C
:102BC000109203071092060710920507109208074B
:102BD0001092070710920A071092090710920C072B
:102BE00010920B0710920E0710920D07109210070B
:102BF00010920F070895DC0180E090E0FD01E80FDE
:102C0000F91F108201968F309105C1F781E0FD0117
:102C100087870895CF93DF93EC01AB0120E030E08C
:102C2000FA01E20FF31FDE01A20FB31F8C91808324
:102C30002F5F3F4F2F30310599F78F85FA01878736
:102C4000DF91CF910895DC01EC91F0E0EF70F0702E
:102C5000EE0FFF1FEF50F94F0190F081E02D3097FC
:102C600019F0CD0119950895FD0187858460878746
:102C700008950895FC0180810E94DE0E90E0089581
:102C8000FC018785846087870895803299F08132BE
:102C900018F48031B9F405C0803419F0803891F40B
:102CA00009C0E62FF0E0EE0FFF1FE656FD4F5183FF
:102CB00040830895E62FF0E0EE0FFF1FEA55FD4F29
:102CC0005183408308958032A9F0813218F4803115
:102CD00029F407C0803429F0803861F081E090E069
:102CE0000895E62FF0E0EE0FFF1FE656FD4F8081BE
:102CF00091810895E62FF0E0EE0FFF1FEA55FD4F9A
:102D00008081918108950F931F93CF93DF93EC01FE
:102D100098818F8582FD24C00F8110E0102F00273D
:102D20008885080F111D2D8130E0322F22278E81DA
:102D3000280F311D4B8150E0542F44278C81480FC0
:102D4000511D698170E0762F66278A81680F711D99
:102D5000892F82958F700E94F0118F8584608F87F4
:102D6000DF91CF911F910F910895CF92DF92EF9253
:102D7000FF920F931F93CF93DF93CDB7DEB72B97BF
:102D80000FB6F894DEBF0FBECDBFFC018081082FC7
:102D900010E0007F1070CE0101960E9407110032F2
:102DA0001105A1F0013211052CF40031110509F0D3
:102DB00047C008C00033110569F00034110509F05F
:102DC0003FC010C00E947E138B8109C00E947E13F9
:102DD0008C8105C00E947E130E94E41381500E94E2
:102DE000FE122CC00E94B5137C01009711F4CC2474
:102DF00003C00E943A16C82E0E947E138C2D0E949A
:102E0000FE128C2D0E94F30D80E20E94190E0E948A
:102E10009513E114F104A1F00E947E13DD240CC08F
:102E200087010D0D111DF80180810E94FE12F8012D
:102E300080810E94F30DD394DC1491F70E949513C6
:102E40000E94F6132B960FB6F894DEBF0FBECDBFCF
:102E5000DF91CF911F910F91FF90EF90DF90CF9076
:102E60000895FC01808190E0807F9070803391050F
:102E700011F18133910534F48031910551F080973F
:102E800011F514C080349105C9F080359105D9F44D
:102E900018C0A89588E190E02CE00FB6F894A895AA
:102EA000809360000FBE20936000FFCF0E94EF135D
:102EB0000E94FB1308C00E94F31305C00E94341443
:102EC00002C00E94EF130E94F6130E94C9100895D9
:102ED000CF92DF92EF92FF920F931F93CF93DF93E6
:102EE0008C01FC01808160E3C62EC82250ECD52EF7
:102EF000D8228AE19AE00E942C126C2D70E08AEDB3
:102F000099E00E9468126D2D70E089E999E00E94B5
:102F10006812F801878582FF05C082E599E00E946A
:102F20002C1238C185FFCEC088E099E00E942C1297
:102F3000F0E2CF16A1F0FC1520F080E1C81639F4BC
:102F400009C0E0E4CE1631F0F0E8CF1641F061E0C0
:102F500070E009C060919A0270919B0204C0609178
:102F6000A6027091A70287EC98E00E94681280E2A6
:102F7000C81691F08C1520F0E0E1CE16E1F407C000
:102F8000F0E4CF1621F080E8C816A9F405C08091BE
:102F90009A0290919B0204C08091A6029091A70290
:102FA000892B49F4F801878588608787118280E73B
:102FB00098E00E942C12F0E2DF16A1F0FD1520F03F
:102FC00080E1D81639F409C0E0E4DE1631F0F0E80B
:102FD000DF1641F061E070E009C060919C027091E1
:102FE0009D0204C06091A8027091A9028EE298E04F
:102FF0000E94681280E2D81691F08D1520F0E0E171
:10300000DE16E1F407C0F0E4DF1621F080E8D81600
:10301000A9F405C080919C0290919D0204C080910A
:10302000A8029091A902892B49F4F8018785806153
:103030008787128286ED97E00E942C12F80127857F
:1030400024FD02C023FF06C0F0E3CF1619F4286167
:10305000F8012787F801278524FF08C023FF06C051
:103060002460278760E082E00E94231162E081E90A
:1030700092E00E94BB07882309F48CC0F0E3CF16CE
:1030800021F4F801618182E01AC083E997E00E948F
:103090002C12F801618170E08AE597E00E946812C5
:1030A000F801628170E080E297E00E946812F80106
:1030B000618180E00E942311F801628181E00E9419
:1030C000231168C088EE96E00E942C12F0ECDF1607
:1030D00021F4F801878584608787F8012381F0E374
:1030E000CF1649F4F801828190E0D82FCC27C20F87
:1030F000D11D7E010FC0822F90E0F82EEE24F80142
:103100008481E80EF11C858190E0D82FCC27868140
:10311000C80FD11DB70187EA96E00E946812BE0170
:1031200085E696E00E946812F0E2CF1691F0FC1559
:1031300020F080E1C81689F407C0E0E4CE1621F043
:10314000F0E8CF1651F405C0F0929B02E0929A028B
:1031500004C0F092A702E092A60280E2D81691F095
:103160008D1520F0E0E1DE1689F407C0F0E4DF16EB
:1031700021F080E8D81651F405C0D0939D02C09389
:103180009C0204C0D093A902C093A802F8018785CD
:1031900080628787DF91CF911F910F91FF90EF9011
:1031A000DF90CF900895FB019F01E8944230C4F076
:1031B0004532B4F44A3029F497FB1EF4909581957A
:1031C0009F4F642F77270E943E19805D8A330CF051
:1031D000895D8193CB010097A1F716F45DE25193CD
:1031E0001082C9010C94F418DC01FC01672F719165
:1031F0007723E1F7329704C07C916D9370836291DD
:10320000AE17BF07C8F30895991B79E004C0991F52
:10321000961708F0961B881F7A95C9F78095089530
:1032200097FB092E07260AD077FD04D027D006D0B9
:1032300000201AF4709561957F4F0895F6F79095E8
:1032400081959F4F089597FB092E05260ED057FDB7
:1032500004D028D00AD0001C38F450954095309501
:1032600021953F4F4F4F5F4F0895F6F7909580950A
:10327000709561957F4F8F4F9F4F0895AA1BBB1B81
:1032800051E107C0AA1FBB1FA617B70710F0A61B66
:10329000B70B881F991F5A95A9F780959095BC0187
:1032A000CD010895A1E21A2EAA1BBB1BFD010DC082
:1032B000AA1FBB1FEE1FFF1FA217B307E407F507E6
:1032C00020F0A21BB30BE40BF50B661F771F881FC2
:1032D000991F1A9469F760957095809590959B0158
:0A32E000AC01BD01CF010895FFCF3E
:1032EA005665722E20322E392E323030393037322E
:1032FA00310054574920656E61626C65640055411E
:10330A00525420656E61626C6564004445425547BB
:10331A0020656E61626C65640044454255472064CD
:10332A00697361626C6564000A5465737465204C44
:10333A00657563687464696F64656E2E2E2E0D0A56
:10334A000052454431002C2052454432002C204F73
:10335A0052414E4745002C20475245454E002C20ED
:10336A00424C55450D0A00FF4B00324A000101014B
:00000001FF
