:100000000C9433030C9454030C9454030C94540335
:100010000C9454030C942E0B0C94A10A0C94130A08
:100020000C9485090C9454030C9454030C945403BD
:100030000C9454030C9454030C9454030C945403E4
:100040000C9454030C9454030C9454030C94B9086A
:100050000C947D080C9454030C9454030C94540396
:100060000C9454030C9454030C9454030C945403B4
:100070000C9454030C9454030C9454030C945403A4
:100080000C9454030C9454030C9454030C94540394
:100090000C94B3060C94E0060C9454030C942713B0
:1000A0000C9454030C9454030C9454030C94540374
:1000B0000C9454030C9454030C9454030C94540364
:1000C0000C9454030C9454030C9454034A54414725
:1000D000005761746368646F67200042726F776EC7
:1000E0002D4F7574200045787465726E616C200028
:1000F000506F7765722D4F6E20000A5265736574DC
:10010000205175656C6C653A0A00444950343A20B8
:100110004F464620206E6963687420766572776565
:100120006E6465740A00444950343A204F4E2020D2
:10013000206E696368742076657277656E64657495
:100140000A00444950333A204F464620204C43444D
:1001500020696E616B7469760A00444950333A2015
:100160004F4E2020204C434420616B7469760A0076
:10017000444950323A204F46462020446562756714
:100180002D417573676162656E20696E616B74697C
:10019000760A00444950323A204F4E2020204465D0
:1001A0006275672D417573676162656E20616B745E
:1001B00069760A00444950313A204F46462020498A
:1001C0006E74657266616365203D20554152540A24
:1001D00000444950313A204F4E202020496E74652A
:1001E0007266616365203D205457490A00444950B6
:1001F0002D536368616C7465722045696E73746514
:100200006C6C756E67656E3A0A002D2D2D2D2D2DA7
:100210002D2D2D2D2D2D2D2D2D2D2D2D2D2D2D2D0E
:100220002D2D2D2D2D2D0A0A004D6F746F727374B4
:1002300065756572756E672056322E392E323030F4
:1002400039303732320A0070617273652E63203A9A
:10025000207061727365725F6164645F6279746556
:100260002829203A20436865636B20380D0A007006
:10027000617273652E63203A207061727365725FDC
:100280006164645F627974652829203A2043686557
:10029000636B20370D0A0070617273652E63203A1C
:1002A000207061727365725F6164645F6279746506
:1002B0002829203A20436865636B20360D0A0070B8
:1002C000617273652E63203A207061727365725F8C
:1002D0006164645F627974652829203A2043686507
:1002E000636B20350D0A0070617273652E63203ACE
:1002F000207061727365725F6164645F62797465B6
:100300002829203A20436865636B20340D0A007069
:10031000617273652E63203A207061727365725F3B
:100320006164645F627974652829203A20436865B6
:10033000636B20330D0A0070617273652E63203A7F
:10034000207061727365725F6164645F6279746565
:100350002829203A20436865636B20320D0A00701B
:10036000617273652E63203A207061727365725FEB
:100370006164645F627974652829203A2043686566
:10038000636B20310D0A0070617273652E63203A31
:10039000207061727365725F6164645F6279746515
:1003A0002829203A204275666665722066756C6C55
:1003B0000D0A0070617273652E63203A20706172BD
:1003C0007365725F6164645F627974652829203A9D
:1003D00020426567696E0D0A0064656661756C741C
:1003E00020203D2000000000203D2000427974655F
:1003F00073206E656564656420666F7220007061AD
:100400007273652E63203A207061727365725F7536
:1004100070646174652829203A2056616C756520E6
:100420003D0070617273652E63203A2070617273B3
:1004300065725F7570646174652829203A2054697B
:100440006D6573203D0070617273652E63203A20E4
:100450007061727365725F757064617465282920BC
:100460003A20426567696E0D0A000A00717565756C
:10047000652E63203A2071756575655F75706461DE
:1004800074652829203A20456E640A0D007175654F
:1004900075652E63203A2071756575655F757064AA
:1004A0006174652829203A204E4F205052494F52FE
:1004B0004954590A0D0071756575652E63203A20FF
:1004C00071756575655F7570646174652829203A7A
:1004D000205052494F524954590A0D0071756575A3
:1004E000652E63203A2071756575655F757064616E
:1004F00074652829203A20476F74204E6577204F75
:100500007264657220746F206C6F63616C20766119
:10051000720A0D0071756575652E63203A2071753C
:100520006575655F7570646174652829203A204F90
:100530007264657220737472756374757265206974
:100540006E697469616C697A65640A0071756575B4
:10055000652E63203A2071756575655F75706461FD
:1005600074652829203A20576520686176652061E6
:10057000206E6577206F726465720A0D0071756573
:1005800075652E63203A2071756575655F707573AA
:10059000682829203A20456E640A007175657565E2
:1005A0002E63203A2071756575655F7075736828D4
:1005B00029203A20436865636B20350A0071756510
:1005C00075652E63203A2071756575655F7075736A
:1005D000682829203A20436865636B20340A00713B
:1005E000756575652E63203A2071756575655F7058
:1005F0007573682829203A20436865636B20330AA5
:100600000071756575652E63203A20717565756595
:100610005F707573682829203A20436865636B20F2
:10062000320A0071756575652E63203A2071756513
:1006300075655F707573682829203A204368656383
:100640006B20310A0071756575652E63203A207143
:10065000756575655F707573682829203A20426555
:1006600067696E0A000011241FBECFEFD1E2DEBF22
:10067000CDBF00E00CBF12E0A0E0B2E0E6E3F0E3A3
:1006800000E00BBF02C007900D92A237B107D9F767
:1006900016E0A2E7B2E001C01D92A83FB107E1F762
:1006A0000E9409050C941A180C940000FB014330B9
:1006B00088F0982F92959F709A3010F4905D01C049
:1006C000995A8F7090838A3010F4805D01C0895AE6
:1006D000818312820895AF92BF92CF92DF92EF9200
:1006E000FF920F931F93CF93DF93CDB7DEB723977E
:1006F0000FB6F894DEBF0FBECDBF0E9415129C014D
:1007000080917402909175028217930709F462C078
:1007100030937502209374020E944B0C80E092E0AB
:100720000E94730C61E080E00E94370C80E00E9420
:10073000A313882319F082E192E002C087E192E0DE
:100740000E94730C81E00E94A313882319F08CE1AE
:1007500092E002C082E292E00E94730C80917402E7
:1007600090917502892BB1F162E080E00E94370C14
:10077000E0917402F091750280810E94180DE82EBC
:10078000FF2400E010E06E010894C11CD11C88E237
:10079000A82E82E0B82E1BC0E0917402F091750281
:1007A000E00FF11F43E0B60180810E945603C601AD
:1007B0000E94730C0630110529F463E080E00E946A
:1007C000370C03C0C5010E94730C0F5F1F4F0E153D
:1007D0001F0511F723960FB6F894DEBF0FBECDBFED
:1007E000DF91CF911F910F91FF90EF90DF90CF900D
:1007F000BF90AF900895CF93DF930E941512EC0144
:10080000009751F00E9460148F8582FF07C00E94FC
:100810005D100E94491202C00E943F0FDF91CF91EC
:1008200008951092730282E00E946406882329F0E2
:1008300062E083E792E00E94230683E00E94640660
:10084000882329F063E083E792E00E94230608955D
:100850008CE00E94DD058BE00E94DD058EE00E94A9
:10086000DD0580E00E94A313882319F08BE00E942D
:10087000BD0581E00E94A313882319F08CE00E943B
:10088000BD0582E00E94A313882319F08EE00E9428
:10089000BD0508958EE00E940106882311F10E9493
:1008A0004B0C80E092E00E94730C61E080E00E94BB
:1008B000370C80E00E94A313882319F082E192E0B4
:1008C00002C087E192E00E94730C81E00E94A313B2
:1008D000882319F08CE192E002C082E292E00E944B
:1008E000730C8CE00E94BD050E949D1089E292E08D
:1008F0000E947A108AE092E00E947A108DEE91E0D8
:100900000E947A1080E00E94A313882319F081EDE1
:1009100091E002C084EB91E00E947A1081E00E9495
:10092000A313882319F083E991E002C080E791E0E6
:100930000E947A1082E00E94A313882319F08AE5AE
:1009400091E002C082E491E00E947A1083E00E946C
:10095000A313882319F086E291E002C08AE091E0B7
:100960000E947A108AEF90E00E947A1080917202C1
:1009700080FF04C080EF90E00E947A1080917202A4
:1009800081FF04C086EE90E00E947A10809172028E
:1009900082FF04C08BED90E00E947A108091720279
:1009A00083FF04C081ED90E00E947A108091720272
:1009B00084FF04C08CEC90E00E947A100E948810A2
:1009C0000E94280408950F931F9378940E949C130B
:1009D0000E9428048CE00E948D0C0E94F8110E9455
:1009E00030050E943D080E94EB130E940F090E94EF
:1009F00067120E94BE1304EF11E02AE030E044E1E8
:100A000050E060E570E082E00E942D101F910F9190
:100A1000089584B78093720214BEA89588E10FB63A
:100A2000F89480936000109260000FBE0E94E3046F
:100A30000E94DE130E9428040E944A040E941104AE
:100A40000E94FB038EE00E940106882311F00E94A1
:100A50006B030E940A0E0E94D5120E94DE13EECF95
:100A600084B18F6084B985B1807F85B9279A2F982A
:100A70009D9AA59881EA84BD83E085BD17BC18BC0A
:100A8000089518161CF080E090E0089586321CF45A
:100A90008A5D90E00895880F8F5F90E00895882325
:100AA00011F417BC0895992787FD9095BC0197FF15
:100AB00004C066277727681B790B262F70E00E94F9
:100AC000B6178FEF6F3F780731F06130710529F469
:100AD000299A289802C02998289A822F0E944105B5
:100AE00087BD0895882311F418BC0895992787FDC0
:100AF0009095BC0197FF04C066277727681B790B88
:100B0000262F70E00E94B6178FEF6F3F780731F005
:100B10006130710529F42B982A9A02C02B9A2A98E1
:100B2000822F0E94410588BD08951F93162F8130A2
:100B300059F0813018F08230A1F409C06093760238
:100B4000862F0E944F050DC06093770207C0609307
:100B5000760260937702862F0E944F05812F0E94B4
:100B600072051F910895E6E7F2E0E80FF11D80811C
:100B7000992787FD90950895089521E030E040E0A1
:100B800050E004C0220F331F441F551F8A95D2F72F
:100B90008091780290917902A0917A02B0917B02C3
:100BA000822B932BA42BB52B809378029093790200
:100BB000A0937A02B0937B02089521E030E040E0F8
:100BC00050E004C0220F331F441F551F8A95D2F7EF
:100BD00020953095409550958091780290917902BA
:100BE000A0917A02B0917B0282239323A423B523A0
:100BF0008093780290937902A0937A02B0937B025B
:100C00000895282F81E090E0A0E0B0E0022E04C01B
:100C1000880F991FAA1FBB1F0A94D2F74091780230
:100C20005091790260917A0270917B02842395231E
:100C3000A623B72304C0B695A795979587952A95BF
:100C4000D2F790E00895FC0181E090E002C0880FA7
:100C5000991F6A95E2F72081282B20830895FC01D3
:100C600081E090E002C0880F991F6A95E2F78095B5
:100C70002081282320830895FC0181E090E0062E46
:100C800002C0880F991F0A94E2F7208130E0822386
:100C9000932302C0959587956A95E2F790E00895B1
:100CA000FC01808190E0062E02C0959587950A94FC
:100CB000E2F780FD03C080E090E00895CF010E943C
:100CC0002F0681E090E0089520917802309179021A
:100CD00040917A0250917B02682FDA01C901062EF9
:100CE00004C0B695A795979587950A94D2F7817019
:100CF0009070892B19F480E090E0089581E090E0F5
:100D0000A0E0B0E004C0880F991FAA1FBB1F6A951E
:100D1000D2F780959095A095B09582239323A42334
:100D2000B5238093780290937902A0937A02B093CE
:100D30007B0281E090E00895E9ECF0E08081806240
:100D4000808308951092CD0080E18093CC008BE0E9
:100D50000E940106882319F488E98093C90080EC79
:100D60008093C80008951F920F920FB60F9211241E
:100D70001F932F933F934F935F936F937F938F9323
:100D80009F93AF93BF93EF93FF931091CE0064E0D6
:100D900084E00E943B07812F0E946211FF91EF9136
:100DA000BF91AF919F918F917F916F915F914F9183
:100DB0003F912F911F910F900FBE0F901F9018958C
:100DC0001F920F920FB60F9211242F933F934F93C0
:100DD0005F936F937F938F939F93AF93BF93EF93A3
:100DE000FF930E94B311882331F40E94BA110E942C
:100DF000D011882329F00E948B118093CE0005C06A
:100E00008091C9008F7D8093C900FF91EF91BF91C0
:100E1000AF919F918F917F916F915F914F913F9192
:100E20002F910F900FBE0F901F9018951F93182FA2
:100E30008BE00E940106882329F48CE00E940106C1
:100E4000882359F01093CE008091C900806280936E
:100E5000C9008091C90085FDFCCF1F910895809144
:100E60007C0290917D028070907890937D028093B7
:100E70007C0213BA0895823019F1833030F488234C
:100E800051F0813009F04CC00EC0833039F184300C
:100E900009F046C034C0262F30E080917C0290914A
:100EA0007D02887F25C0262F30E053E0220F331FBC
:100EB0005A95E1F780917C0290917D02877C18C061
:100EC000262F30E046E0220F331F4A95E1F780914C
:100ED0007C0290917D028F739E7F0AC0262F30E0A6
:100EE000322F2227330F80917C0290917D02917FD7
:100EF000282B392B30937D0220937C020895262FD6
:100F000030E0322F22273295307F80917C02909101
:100F10007D029F78282B392B30937D0220937C0211
:100F20000895CF93DF936FE10E94AA17C92FD0E0F5
:100F300090FF03C061E080E002C061E081E00E94B8
:100F40003B07CE0183709070892B21F461E082E031
:100F50000E943B07CE0187709070892B21F461E0DD
:100F600083E00E943B07CF70D070CD2B21F461E06D
:100F700084E00E943B07DF91CF91089580917C022D
:100F800090917D02089580917C0290917D02805025
:100F9000904890937D0280937C0283BB089580915A
:100FA0007C0290917D028827990F881F99270895C8
:100FB00083B38F6183BB80917C0290917D028070AE
:100FC000907890937D0280937C0213BA08958AE210
:100FD00092E00E947A1083E00E9464068823D9F38D
:100FE00061E080E00E943B0783E492E00E947A1077
:100FF00083E00E9464068823D9F361E081E00E94C7
:101000003B0788E492E00E947A1083E00E94640625
:101010008823D9F361E082E00E943B078FE492E0ED
:101020000E947A1083E00E9464068823D9F361E06D
:1010300083E00E943B0788E592E00E947A1083E0FB
:101040000E9464068823D9F361E084E00E943B0794
:1010500080E692E00E947A1083E00E946406882372
:10106000D9F380917C0290917D028070907890936A
:101070007D0280937C0213BA089588EA91E69093EA
:101080008D0080938C0089E080936F0083E08093D3
:1010900081000895809188028F3719F08F5F8093C7
:1010A00088020895809187028F3719F08F5F8093AF
:1010B000870208958091880282381CF081508093C5
:1010C000880208958091870282381CF081508093B5
:1010D00087020895882329F0813049F080E090E06C
:1010E000089580918502992787FD909508958091B4
:1010F0008602992787FD909508951F920F920FB64B
:101100000F9211242F933F934F935F936F937F938D
:101110008F939F93AF93BF93EF93FF9383E00E94CE
:10112000BD05409184024B3098F0842F6AE00E9404
:10113000AA172091820230918302280F311D30932B
:10114000830220938202842F0E94AA179093840224
:10115000FF91EF91BF91AF919F918F917F916F918F
:101160005F914F913F912F910F900FBE0F901F9065
:1011700018951F920F920FB60F9211242F933F9341
:101180004F935F936F937F938F939F93AF93BF938F
:10119000EF93FF93809184009091850088559E493C
:1011A00090938D0080938C0082E00E94BD05809119
:1011B0007E0290917F02009729F0019790937F0221
:1011C00080937E028091800290918102009729F0A5
:1011D000019790938102809380028091880280938E
:1011E0008502809187028093860210928802109275
:1011F0008702809184028F5F80938402FF91EF9138
:10120000BF91AF919F918F917F916F915F914F911E
:101210003F912F910F900FBE0F901F9018958DB199
:101220008F708DB98EB1806F8EB985E580936A001D
:1012300080EF8DBB0895882319F0813071F405C0CB
:101240008091890290918A0204C080918B029091D2
:101250008C029093950280939402809194029091D5
:10126000950208959FB790939102F894813071F0A0
:10127000813018F0823071F405C010928A02109209
:10128000890208C010928A021092890210928C0280
:1012900010928B029FBF08958091920290919302C9
:1012A00008952FB720939102F8949093930280931E
:1012B00092022FBF08958FB780939102F8941092F5
:1012C0009302109292028FBF08952FB7209391023C
:1012D000F894FC01A6E9B2E086E00D9001928150FD
:1012E000E1F72FBF08958FB780939102F894109281
:1012F0009702109296021092990210929802109200
:101300009B0210929A028FBF08951F920F920FB600
:101310000F9211242F933F934F935F936F937F937B
:101320008F939F93AF93BF93EF93FF938CB190E014
:10133000807C907080349105A1F1813491051CF47A
:10134000892B41F054C08038910559F1803C9105BA
:1013500009F04DC080918B0290918C020196909380
:101360008C0280938B028091980290919902019651
:1013700090939902809398028091920290919302A7
:101380000197909393028093920280919A02909198
:101390009B02019790939B0280939A020E945208AD
:1013A00026C080918B0290918C02019790938C02C1
:1013B00080938B028091980290919902019790936B
:1013C00099028093980280919202909193020196E3
:1013D000909393028093920280919A0290919B0243
:1013E000019690939B0280939A020E9462088091DA
:1013F0008F0290919002009729F0019790939002AC
:1014000080938F02FF91EF91BF91AF919F918F9148
:101410007F916F915F914F913F912F910F900FBEF0
:101420000F901F9018951F920F920FB60F921124D4
:101430002F933F934F935F936F937F938F939F93DC
:10144000AF93BF93EF93FF938CB190E0807C90704B
:1014500080349105A1F1813491051CF4892B41F070
:1014600054C08038910559F1803C910509F04DC078
:1014700080918B0290918C02019790938C028093C3
:101480008B02809198029091990201979093990212
:10149000809398028091920290919302019690938A
:1014A00093028093920280919A0290919B020196FE
:1014B00090939B0280939A020E94620826C08091BA
:1014C0008B0290918C02019690938C0280938B02F8
:1014D000809198029091990201969093990280933D
:1014E00098028091920290919302019790939302B7
:1014F0008093920280919A0290919B02019790931F
:101500009B0280939A020E94520880918F029091D0
:101510009002009729F001979093900280938F0298
:10152000FF91EF91BF91AF919F918F917F916F91BB
:101530005F914F913F912F910F900FBE0F901F9091
:1015400018951F920F920FB60F9211242F933F936D
:101550004F935F936F937F938F939F93AF93BF93BB
:10156000EF93FF938CB190E0807390708031910580
:1015700099F1813191051CF4892B39F053C08032E7
:10158000910551F1C09709F04DC080918902909169
:101590008A02019790938A02809389028091960231
:1015A0009091970201979093970280939602809171
:1015B00092029091930201979093930280939202EA
:1015C00080919A0290919B02019790939B02809345
:1015D0009A020E945A0826C08091890290918A023C
:1015E000019690938A02809389028091960290914D
:1015F00097020196909397028093960280919202AF
:10160000909193020196909393028093920280911D
:101610009A0290919B02019690939B0280939A026A
:101620000E944A0880918D0290918E02009729F0C5
:10163000019790938E0280938D02FF91EF91BF915D
:10164000AF919F918F917F916F915F914F913F915A
:101650002F910F900FBE0F901F9018951F920F9211
:101660000FB60F9211242F933F934F935F936F9375
:101670007F938F939F93AF93BF93EF93FF938CB11F
:1016800090E0807390708031910599F181319105DE
:101690001CF4892B39F053C08032910551F1C09769
:1016A00009F04DC08091890290918A020196909331
:1016B0008A02809389028091960290919702019606
:1016C0009093970280939602809192029091930258
:1016D0000196909393028093920280919A02909146
:1016E0009B02019690939B0280939A020E944A0863
:1016F00026C08091890290918A02019790938A0274
:10170000809389028091960290919702019790931D
:101710009702809396028091920290919302019792
:10172000909393028093920280919A0290919B02EF
:10173000019790939B0280939A020E945A0880918D
:101740008D0290918E02009729F0019790938E025E
:1017500080938D02FF91EF91BF91AF919F918F91F7
:101760007F916F915F914F913F912F910F900FBE9D
:101770000F901F9018958A9A00C08A980895CF9369
:10178000DF93662311F0889A01C088988998849A1B
:10179000859A869A879A8F988E988D988C9887FDCF
:1017A0008F9AC82F86FD8E9AC5FD8D9AC4FD8C9A9E
:1017B0000E94BB0B8F988E988D988C98C3FD8F9A42
:1017C000C2FD8E9AC1FD8D9AC0FD8C9A0E94BB0B02
:1017D0008C9A8D9A8E9A8F9ADF91CF910895882353
:1017E00011F0889A01C08898899A8498859886987B
:1017F00087988A9A00C07C9B02C080E101C080E08B
:101800007D9980627E9980647F9980688A9800C003
:101810008A9A00C07C9981607D9982607E998460FB
:101820007F9988608A9890E0089580E00E94EF0B8D
:1018300087FDFBCF88E090E00197F1F780E00E9400
:10184000EF0B90E008951F93182F0E94150C60E095
:10185000812F0E94BF0B1F9108951F93182F0E9484
:10186000150C61E0812F0E94BF0B1F910895662324
:1018700011F4805809C0613011F4805405C0623001
:1018800011F48C5601C08C520E94230C08950E94C2
:10189000150C90E0089581E00E94230C089582E0E9
:1018A0000E94230C08951F93182F0E94150C982F47
:1018B0001A3099F4843110F480E40BC080548431E0
:1018C00010F484E106C094519C3210F484E501C008
:1018D00080E080580E94230C04C061E0812F0E94A8
:1018E000BF0B1F910895CF93DF93EC0102C00E94BC
:1018F000530C89918823D9F7DF91CF910895CF9325
:10190000DF93EC0102C00E94530CFE0121968491EA
:101910008823C9F7DF91CF910895FF920F931F930A
:10192000F82E809A819A829A849A859A869A879AC2
:1019300080E09AEF0197F1F78D9A8C9A0E94BB0B89
:1019400080E09EE40197F1F70E94BB0B00E011E0FC
:10195000C8010197F1F70E94BB0BC8010197F1F78D
:101960008C980E94BB0BC8010197F1F788E20E9496
:10197000230C88E00E94230C0E944B0C86E00E94FE
:10198000230C8F2D0E94230C1F910F91FF9008951F
:1019900081E090E0089520E030E0809169028F3F7F
:1019A00011F021E030E0C9010895FC019785892FED
:1019B0008260878780818F708150823010F49264BA
:1019C000978708950F931F938C018091690299273F
:1019D00087FD909534E0880F991F3A95E1F7875875
:1019E000994F0E94D50C80916902992787FD9095A7
:1019F00024E0880F991F2A95E1F7B8018758994F7D
:101A00000E94471480916902992787FD909501965D
:101A100065E070E00E94B6178093690220919C02F5
:101A2000281719F48FEF809369021F910F91089581
:101A30001F93CF93DF93182FC82FD0E0BE018CEEF9
:101A400093E00E94B61088EE93E00E947A10CE01D7
:101A50008F7090708330910571F0843091051CF483
:101A6000019724F43AC00497C1F52EC061E070E0FC
:101A700087EE93E036C0CE0180739070C09771F40A
:101A8000CE01807C9070803C910511F463E014C01D
:101A900016FD11C017FD0FC062E00EC014FD04C09A
:101AA00015FD02C063E001C065E0C6FD02C017FF7E
:101AB00003C06E5F01C064E0C62FD0E0BE0186EEB9
:101AC00093E00E94B61011C069E070E085EE93E0EB
:101AD0000E94B610C9E0D0E008C061E070E089ED76
:101AE00093E00E94B610C1E0D0E0CE01DF91CF912B
:101AF0001F9108951F93FC01162F8081282F30E03D
:101B00002F7030702115310519F481E090E00FC07D
:101B1000293031051CF080E090E009C00E94180DCA
:101B200020E030E0181710F021E030E0C9011F91EB
:101B300008951F93182F83EB93E00E947A109091E1
:101B40009C0280916902981719F487E893E05EC0BF
:101B50008FE593E00E947A1080919D02E0919C02B3
:101B6000FF27E7FDF09554E0EE0FFF1F5A95E1F7D0
:101B7000E80FF11DE758F94F108387E393E00E94C7
:101B80007A1080919D028F5F80939D028FE093E099
:101B90000E947A1060919D026F3080F480919C02C7
:101BA000992787FD909544E0880F991F4A95E1F7A2
:101BB0008758994F0E947A0D892B31F187EE92E078
:101BC0000E947A10809169028F3F41F480919C02BB
:101BD000809369028FEB92E00E947A1087E992E08D
:101BE0000E947A1080919C02992787FD909501961A
:101BF00065E070E00E94B61780939C028FE692E049
:101C00000E947A1010929D0287E492E00E947A105E
:101C10001F910895CF92DF92EF92FF921F93CF937F
:101C2000DF93CDB7DEB721970FB6F894DEBF0FBEB6
:101C3000CDBF19820E941E11182F8823C1F086E49F
:101C400094E00E947A10612F70E082E294E00E949A
:101C5000B6100DC0C6010E943111698170E0C70144
:101C60000E94B61089810E94990D115008C06E0122
:101C70000894C11CD11C6EEFE62E63E0F62E1123F2
:101C800049F721960FB6F894DEBF0FBECDBFDF91A6
:101C9000CF911F91FF90EF90DF90CF9008951F9309
:101CA000CF93DF9310E0C9E7D6E0CE010E9438144D
:101CB0001F5F1530D1F7DF91CF911F9108950F93DA
:101CC0001F93F801978386837187608753874287C4
:101CD0001182108213821282358324831F910F9107
:101CE0000895EF92FF920F931F93FA01A82FB0E08F
:101CF000A61BB70B828193818A0F9B1F93838283DC
:101D000024813581281739071CF43383228304C0CA
:101D100097FF02C01382128286819781A89FB0012B
:101D2000A99F700DB89F700D1124428153812085A9
:101D30003185429F7001439FF00C529FF00C11249B
:101D40000027F7FC0095102F20813181AD01421B47
:101D5000530B22853385C901489F9001499F300D5F
:101D6000589F300D1124B183A083882777FD80957B
:101D7000982F6E0D7F1D801F911F442737FD4095C2
:101D8000542F620F731F841F951F24E630E040E03C
:101D900050E00E94C91720383105410551052CF04B
:101DA0002FE730E040E050E006C057FF04C020E0DD
:101DB00030E040E050E0822F90E01F910F91FF90C3
:101DC000EF900895823018F08230C1F40FC090E097
:101DD000FC01EE0FFF1FE80FF91FEE0FFF1FEE0FC4
:101DE000FF1FE256FD4F7383628308957093A10233
:101DF0006093A0027093AD026093AC02089580914D
:101E0000890290918A029093CA068093C906089528
:101E100080918B0290918C029093CC068093CB069C
:101E200008952091CB063091CC0680918B02909141
:101E30008C022817390711F460E006C0281739070B
:101E400014F468ED01C068E281E00E9495050895F0
:101E50002091C9063091CA068091890290918A0228
:101E60002817390711F460E006C02817390714F461
:101E700068ED01C068E280E00E94950508950E9427
:101E8000280F0E94110F08950F931F938C0180E07B
:101E90000E94B305F801828381E00E94B305F80136
:101EA00083838091890290918A02958384838091B3
:101EB0008B0290918C02978386831F910F910895D6
:101EC000FF920F931F93CF93DF93F62E813049F14A
:101ED000813020F0823009F0BAC03EC016166CF492
:101EE00080E00E946A08992787FD90954EE952E0AC
:101EF000BC018F2D0E94710E11C080E00E946A0803
:101F0000992787FD9095909581959F4F4EE952E0D6
:101F1000BC018F2D81950E94710E8195682F80E004
:101F200094C0161654F481E00E946A08992787FD30
:101F300090954AEA52E0BC0152C081E00E946A08D2
:101F4000992787FD9095909581959F4F4AEA52E099
:101F5000BC018F2D819574C080E00E946A08082F13
:101F6000112707FD109581E00E946A08C82FDD2720
:101F7000C7FDD0950E944C0980FF03C0080F191FB0
:101F800002C0C81BD90B62E070E00E94B617C801FE
:101F9000860F971F9E01261B370B1F1424F5BC01CB
:101FA0008038910514F06FE770E0E90120383105C1
:101FB00014F0CFE7D0E077FF02C060E070E04EE9B8
:101FC00052E08F2D0E94710E682F80E00E949505CF
:101FD000BE01D7FF02C060E070E04AEA52E08F2DF8
:101FE0000E94710E30C0BC011816190614F460E08E
:101FF00070E0E9011216130614F4C0E0D0E01F2DC2
:1020000011958FEF6138780714F461E87FEF7095D0
:1020100061957F4F4EE952E0812F0E94710E8195AC
:10202000682F80E00E949505BE01C158DF4F14F46F
:1020300061E87FEF709561957F4F4AEA52E0812F0A
:102040000E94710E8195682F81E00E949505DF91B5
:10205000CF911F910F91FF900895AF92BF92CF92B1
:10206000DF92EF92FF920F931F93CF93DF935B0169
:102070006A017901E801823018F0823099F40DC0CC
:102080000CE0809F8001112402561D4F9E01A70184
:10209000B601C5010E945F0E05C080E00E942D10B0
:1020A00081E0EECFDF91CF911F910F91FF90EF90E4
:1020B000DF90CF90BF90AF9008958091890290916A
:1020C0008A029093CA068093C90680918B029091F0
:1020D0008C029093CC068093CB0608951F93182F03
:1020E0008CE00E940106882319F0812F0E941607B8
:1020F0001F910895CF93DF93EC0102C00E946E10F0
:10210000FE01219684918823C9F7DF91CF9108952C
:102110008AE694E00E947A100895CF93DF93EC0151
:1021200002C00E946E1089918823D9F7DF91CF9168
:1021300008958BE10E946E1008950E94991083E625
:102140000E946E1008950F931F938C010E949910A6
:102150008BE50E946E10C8010E948D101F910F9197
:1021600008958AE692E00E94A3100895EF92FF92EC
:102170000F931F938C01CB0126EBE22E22E0F22E6F
:102180004AE050E0B7010E947917C8010E947A1016
:10219000C7010E948D100E94B1100E9488101F91EB
:1021A0000F91FF90EF9008950F931F9306EB12E0AD
:1021B0004AE050E0B80190E00E947917C8010E94FF
:1021C000A31081E40E946E101F910F910895FF9259
:1021D0000F931F93F82E862F06EB12E04AE050E093
:1021E000B80190E00E947917C8010E94A3108BE308
:1021F0000E946E104AE050E0B8018F2D90E00E94DE
:102200007917C8010E948D1088E40E946E101F91FA
:102210000F91FF9008958CE692E00E94A31008951C
:10222000CF93DF93EC018CE00E940106882319F024
:1022300088810E946E10DF91CF91089590916F0276
:102240008091C002992311F4819504C0981720F45D
:10225000891B809590E00895981B9150892F90E0FC
:102260000895DC018091C002E82FF0E031969F01D3
:102270003070319780916F0290E02817390719F478
:1022800080E090E00895EC53FD4F80818C93209383
:10229000C00281E090E00895282F90917002809113
:1022A000C102981719F480E090E00895892F90E01A
:1022B000FC01ED53FC4F208301968093700281E076
:1022C00090E00895282F90916F028091C002981796
:1022D00049F0892F90E0FC01ED53FD4F20830196DA
:1022E00080936F0208958091C20290E0FC01EC534C
:1022F000FB4FE081019690702091710230E08217CF
:10230000930719F480E090E008958091C102E81BE2
:102310008E2F90E008951F93CF93DF938091C10299
:10232000C82FD0E09E012F5F3F4F30708091700228
:1023300090E02817390789F01091C3020E947311A9
:10234000181758F4812F8F5F8093C302C80FD11DD7
:10235000CD53DC4F888190E002C08FEF90E0DF9199
:10236000CF911F9108950E9473119091C302891B10
:1023700090E008954091C2024F5F242F30E0415019
:102380008091710290E02817390729F04F5F409340
:10239000C2021092C302089508951092C3020895D4
:1023A000909171028091C202992311F4819504C029
:1023B000981720F4891B809590E00895981B915000
:1023C000892F90E008958091710290E0FC01ED5317
:1023D000FB4F20917002215020830196809371025F
:1023E0008BE00E940106882311F40E949C06089548
:1023F0000E941B130E94A2060E94D80761E080E0A1
:102400000E943B0708958091C405882319F480E059
:1024100090E008958091C50590E024E0880F991F11
:102420002A95E1F789539A4F08958091760686FFA1
:1024300003C087E696E0089580917706882379F4B3
:102440008091C405882359F08091C50590E034E05F
:10245000880F991F3A95E1F789539A4F089580E0C4
:1024600090E0089590E08091760686FD91E080915D
:10247000C405980F892F90E0089581E08093770636
:10248000089510927706089587E696E00E94381422
:1024900008958091C4058823C9F08091C50590E016
:1024A00044E0880F991F4A95E1F789539A4F0E949B
:1024B00038148091C40581508093C4058091C5056E
:1024C0008F5F6AE00E94AA179093C5050895CF9385
:1024D000DF93C7ECD5E0CE010E943814609686E009
:1024E000C735D807C1F787E696E00E9438141092E6
:1024F000C5051092C6051092C40510927706DF91AB
:10250000CF9108950E9467120895CF93DF93EC0155
:1025100085E496E00E947A108091C4058A3039F4EF
:1025200083E296E00E947A1080E090E034C081E07F
:1025300096E00E947A106091C60570E054E0660F44
:10254000771F5A95E1F769537A4FCE010E944714DD
:102550008FED95E00E947A108091C4058F5F809383
:10256000C4058DEB95E00E947A108091C6058F5FBF
:102570008093C6058BE995E00E947A108091C6058C
:102580006AE00E94AA179093C6058DE795E00E9425
:102590007A1081E090E0DF91CF91089567E676E0D0
:1025A0000E94471481E090E008950F931F93CF930A
:1025B000DF93CDB7DEB760970FB6F894DEBF0FBEDE
:1025C000CDBF0E94CB0C882359F18CE495E00E948A
:1025D0007A108E010F5F1F4FC8010E94381484E1EA
:1025E00095E00E947A10C8010E94E20C8CED94E004
:1025F0000E947A10888986FF08C086EB94E00E94CA
:102600007A10C8010E94CE1207C08DE894E00E94A3
:102610007A10C8010E9485128CE694E00E947A101C
:1026200060960FB6F894DEBF0FBECDBFDF91CF919D
:102630001F910F9108958BE00E940106882331F0CD
:1026400084E58093BA0085EC8093BC0008951F92C6
:102650000F920FB60F9211242F933F934F935F93D6
:102660006F937F938F939F93AF93BF93EF93FF935A
:1026700064E084E00E943B0760E080E00E94370C49
:102680009091B9008091BB00987F9838A9F0993853
:1026900038F49036C9F0903879F09923A9F13BC00D
:1026A000983B01F1993B18F4983AA9F513C0903C76
:1026B00031F1983C81F521C00E9462110E941E11E7
:1026C000823048F58FE825C064E083E00E943B0734
:1026D00085EC1FC080917806882321F0109278063F
:1026E0000E94BA110E948B118093BB0081E08093FD
:1026F00078060E94B3118FEC0CC00E94BA111092A0
:1027000078060E94CD1107C0109278060E94CD1164
:102710008FED8093BC00FF91EF91BF91AF919F919E
:102720008F917F916F915F914F913F912F910F907A
:102730000FBE0F901F9018958AB18F708AB98BB118
:10274000806F8BB9089529B1482F81E090E0042E65
:1027500002C0880F991F0A94E2F730E02095309567
:1027600054E0359527955A95E1F78223932302C0CB
:10277000959587954A95E2F790E008951092CD06D9
:102780001092CE061092CF061092D0061092D2066A
:102790001092D1061092D4061092D3061092D6064B
:1027A0001092D5061092D7060895FC01ADECB6E064
:1027B0008BE00D9001928150E1F708950F931F93E4
:1027C0000DEC16E0C8010E94BC05C8010E94440F30
:1027D0001F910F9108958CE794E19093D90680930F
:1027E000D80683EE95E19093DB068093DA0680E4C9
:1027F00095E19093DD068093DC068EE996E1909357
:10280000DF068093DE068AE196E19093E1068093ED
:10281000E0068EE095E19093E3068093E206109245
:10282000E5061092E4061092E7061092E606109272
:10283000E9061092E8061092EB061092EA06109252
:10284000ED061092EC061092EF061092EE06109232
:10285000F1061092F0061092F3061092F206109212
:10286000F5061092F4061092F7061092F6060895F7
:10287000DC0180E090E0FD01E80FF91F1082019675
:102880008F309105C1F781E0FD0187870895CF93CF
:10289000DF93EC01AB0120E030E0FA01E20FF31F1F
:1028A000DE01A20FB31F8C9180832F5F3F4F2F302B
:1028B000310599F78F85FA018787DF91CF910895C8
:1028C000DC01EC91F0E0EF70F070EE0FFF1FE852CA
:1028D000F94F0190F081E02D309719F0CD01199555
:1028E0000895FD018785846087870895FC018081B4
:1028F0000E94180D90E00895FC0187858460878709
:102900000895803299F0813218F48031B9F405C00D
:10291000803419F0803891F409C0E62FF0E0EE0F12
:10292000FF1FE258FD4F518340830895E62FF0E0EA
:10293000EE0FFF1FE357FD4F518340830895E82FAB
:10294000F0E0EE0FFF1FDF01A258BD4F6D937C93A7
:10295000E357FD4F5183408308958032A9F08132BF
:1029600018F4803129F407C0803429F0803861F0F0
:1029700081E090E00895E62FF0E0EE0FFF1FE258AF
:10298000FD4F808191810895E62FF0E0EE0FFF1F4B
:10299000E357FD4F808191810895803229F1813282
:1029A00018F4803161F505C0803419F08038E1F009
:1029B00026C0A62FB0E0AA0FBB1FFD01E258FD4FB5
:1029C00080819181892B19F480E090E0089520E0C6
:1029D000A357BD4F8D919C91892B09F421E081E093
:1029E0002827822F90E00895A62FB0E0AA0FBB1FE2
:1029F000FD01E258FD4F80819181892B19F081E022
:102A000090E0089520E030E0A357BD4F8D919C9158
:102A1000892B11F021E030E0C90108950F931F9335
:102A2000CF93DF93EC0198818F8582FD24C00F81C5
:102A300010E0102F00278885080F111D2D8130E030
:102A4000322F22278E81280F311D4B8150E0542FC9
:102A500044278C81480F511D698170E0762F6627CD
:102A60008A81680F711D892F82958F700E942D10A9
:102A70008F8584608F87DF91CF911F910F9108958B
:102A8000CF92DF92EF92FF920F931F93CF93DF933A
:102A9000CDB7DEB72B970FB6F894DEBF0FBECDBF14
:102AA000FC018081082F10E0007F1070CE0101969C
:102AB0000E94440F0034110589F1013411055CF4C2
:102AC0000032110509F10033110511F10031110532
:102AD00009F068C015C00036110509F451C001366F
:102AE00011052CF40035110509F05CC044C0003715
:102AF000110509F44AC00038110509F053C04AC055
:102B00000E94CC118B814AC00E94CC118C8146C09E
:102B10000E94CC110E943212815040C00E940312C8
:102B20007C01009711F4CC2403C00E947614C82EB7
:102B30000E94CC118C2D0E944C118C2D0E942D0CCA
:102B400080E20E94530C0E94E311E114F10451F160
:102B50000E94CC11DD240CC087010D0D111DF80160
:102B600080810E944C11F80180810E942D0CD39429
:102B7000DC1491F715C00E94CC1180917E020EC02A
:102B80000E94CC1180918D0209C00E94CC118091CD
:102B9000800204C00E94CC1180918F020E944C11CF
:102BA0000E94E3110E9444122B960FB6F894DEBFE8
:102BB0000FBECDBFDF91CF911F910F91FF90EF908E
:102BC000DF90CF900895FC01808190E0807F90702D
:102BD0008033910511F18133910534F480319105F1
:102BE00051F0809711F514C080349105C9F08035FB
:102BF0009105D9F418C0A89588E190E02CE00FB6B3
:102C0000F894A895809360000FBE20936000FFCFDA
:102C10000E943D120E94491208C00E94411205C044
:102C20000E94821202C00E943D120E9444120E9421
:102C30005D1008950F931F93CF93DF93EC010881EC
:102C40001F8512FD76C015FF46C013FD0BC060E066
:102C5000802F80730E94CD14892B21F418601F8768
:102C60000E94FF0E1F8514FD0BC061E0802F807C49
:102C70000E94CD14892B21F410611F870E94080F38
:102C80002F8524FF08C023FF06C024602F8760E043
:102C900082E00E94600F8F8583FF03C00E94280F8F
:102CA00004C084FF02C00E94110F62E083E792E03B
:102CB0000E943C068823E9F18F8583FD04C0698169
:102CC00080E00E94600F8F8584FD33C06A8181E0BF
:102CD0000E94600F2EC06D8170E0762F66278E8176
:102CE000680F711D4F8150E0542F44278885480F8D
:102CF000511D298530E0322F22278A85280F311D6A
:102D00008B8190E0982F8827EC818E0F911D9093F6
:102D10007F0280937E0270938E0260938D025093A7
:102D20008102409380023093900220938F021062C0
:102D30001F87DF91CF911F910F9108950F931F93DC
:102D4000CF93DF93EC0128816F8562FDCDC0022F08
:102D50000073122F107C65FF75C063FD1BC000322D
:102D600079F0013218F40031A9F405C0003419F0EB
:102D7000003881F405C080917E0290917F0204C0EA
:102D800080918D0290918E02892B21F468606F876B
:102D90000E94FF0E2F8524FD1BC0103279F01132E6
:102DA00018F41031A9F405C0103419F0103881F46A
:102DB00005C0809180029091810204C080918F02B1
:102DC00090919002892B21F420612F870E94080F97
:102DD0002F8524FD02C023FF04C0003311F42861B5
:102DE0002F872F8524FF08C023FF06C024602F876C
:102DF00060E082E00E94600F8F8583FF03C00E9425
:102E0000280F04C084FF02C00E94110F62E083E714
:102E100092E00E943C06882309F466C0003319F44E
:102E2000698182E00CC08F8583FD04C0698180E0E8
:102E30000E94600F8F8584FD57C06A8181E00E94E7
:102E4000600F52C02B817C818D8190E0582F4427E8
:102E50008E81480F511D103C69F4898190E0982FB4
:102E600088272A81820F911D0E9451098F858460D5
:102E70008F873AC030E0003339F48A8190E0582FD0
:102E80004427420F531F19C0322F2227270F311D0D
:102E9000003279F0013218F4003179F405C00034C1
:102EA00019F0003851F405C030937F0220937E0260
:102EB00004C030938E0220938D02103279F01132CB
:102EC00018F4103179F405C0103419F0103851F4A9
:102ED00005C0509381024093800204C05093900239
:102EE00040938F0260626F87DF91CF911F910F91A6
:102EF0000895FB019F01E8944230C4F04532B4F4D8
:102F00004A3029F497FB1EF4909581959F4F642FCA
:102F100077270E94E417805D8A330CF0895D8193E6
:102F2000CB010097A1F716F45DE251931082C9011D
:102F30000C949A17DC01FC01672F71917723E1F75C
:102F4000329704C07C916D9370836291AE17BF0776
:102F5000C8F30895991B79E004C0991F961708F0EB
:102F6000961B881F7A95C9F78095089597FB092EBF
:102F700007260AD077FD04D027D006D000201AF407
:102F8000709561957F4F0895F6F7909581959F4FC5
:102F9000089597FB092E05260ED057FD04D028D0A2
:102FA0000AD0001C38F450954095309521953F4F3C
:102FB0004F4F5F4F0895F6F7909580957095619506
:102FC0007F4F8F4F9F4F0895AA1BBB1B51E107C036
:102FD000AA1FBB1FA617B70710F0A61BB70B881FA9
:102FE000991F5A95A9F780959095BC01CD01089538
:102FF000A1E21A2EAA1BBB1BFD010DC0AA1FBB1FFD
:10300000EE1FFF1FA217B307E407F50720F0A21B6E
:10301000B30BE40BF50B661F771F881F991F1A94DB
:1030200069F760957095809590959B01AC01BD0105
:06303000CF010895FFCF5F
:103036005665722E20322E392E32303039303732E4
:1030460032005457492000747769200044454255A0
:10305600470064656275670020000A5465737465ED
:10306600204C657563687464696F64656E2E2E2ED8
:103076000D0A0052454431002C2052454432002CA2
:10308600204F52414E4745002C20475245454E00A1
:103096002C20424C55450D0A00FF4B00324A0001D8
:0230A600010126
:00000001FF
