:100000000C9433030C9454030C9454030C94540335
:100010000C9454030C942C0B0C949F0A0C94110A0E
:100020000C9483090C9454030C9454030C945403BF
:100030000C9454030C9454030C9454030C945403E4
:100040000C9454030C9454030C9454030C94B7086C
:100050000C947B080C9454030C9454030C94540398
:100060000C9454030C9454030C9454030C945403B4
:100070000C9454030C9454030C9454030C945403A4
:100080000C9454030C9454030C9454030C94540394
:100090000C94B1060C94DE060C9454030C940D13CE
:1000A0000C9454030C9454030C9454030C94540374
:1000B0000C9454030C9454030C9454030C94540364
:1000C0000C9454030C9454030C9454034A54414725
:1000D000005761746368646F67200042726F776EC7
:1000E0002D4F7574200045787465726E616C200028
:1000F000506F7765722D4F6E20000A5265736574DC
:10010000205175656C6C653A0A00444950343A20B8
:100110004F464620206E6963687420766572776565
:100120006E6465740A00444950343A204F4E2020D2
:10013000206E696368742076657277656E64657495
:100140000A00444950333A204F464620204C43444D
:1001500020696E616B7469760A00444950333A2015
:100160004F4E2020204C434420616B7469760A0076
:10017000444950323A204F46462020446562756714
:100180002D417573676162656E20696E616B74697C
:10019000760A00444950323A204F4E2020204465D0
:1001A0006275672D417573676162656E20616B745E
:1001B00069760A00444950313A204F46462020498A
:1001C0006E74657266616365203D20554152540A24
:1001D00000444950313A204F4E202020496E74652A
:1001E0007266616365203D205457490A00444950B6
:1001F0002D536368616C7465722045696E73746514
:100200006C6C756E67656E3A0A002D2D2D2D2D2DA7
:100210002D2D2D2D2D2D2D2D2D2D2D2D2D2D2D2D0E
:100220002D2D2D2D2D2D0A0A004D6F746F727374B4
:1002300065756572756E672056322E392E323030F4
:1002400039303732320A0070617273652E63203A9A
:10025000207061727365725F6164645F6279746556
:100260002829203A20436865636B20380D0A007006
:10027000617273652E63203A207061727365725FDC
:100280006164645F627974652829203A2043686557
:10029000636B20370D0A0070617273652E63203A1C
:1002A000207061727365725F6164645F6279746506
:1002B0002829203A20436865636B20360D0A0070B8
:1002C000617273652E63203A207061727365725F8C
:1002D0006164645F627974652829203A2043686507
:1002E000636B20350D0A0070617273652E63203ACE
:1002F000207061727365725F6164645F62797465B6
:100300002829203A20436865636B20340D0A007069
:10031000617273652E63203A207061727365725F3B
:100320006164645F627974652829203A20436865B6
:10033000636B20330D0A0070617273652E63203A7F
:10034000207061727365725F6164645F6279746565
:100350002829203A20436865636B20320D0A00701B
:10036000617273652E63203A207061727365725FEB
:100370006164645F627974652829203A2043686566
:10038000636B20310D0A0070617273652E63203A31
:10039000207061727365725F6164645F6279746515
:1003A0002829203A204275666665722066756C6C55
:1003B0000D0A0070617273652E63203A20706172BD
:1003C0007365725F6164645F627974652829203A9D
:1003D00020426567696E0D0A0064656661756C741C
:1003E00020203D2000000000203D2000427974655F
:1003F00073206E656564656420666F7220007061AD
:100400007273652E63203A207061727365725F7536
:1004100070646174652829203A2056616C756520E6
:100420003D0070617273652E63203A2070617273B3
:1004300065725F7570646174652829203A2054697B
:100440006D6573203D0070617273652E63203A20E4
:100450007061727365725F757064617465282920BC
:100460003A20426567696E0D0A000A00717565756C
:10047000652E63203A2071756575655F75706461DE
:1004800074652829203A20456E640A0D007175654F
:1004900075652E63203A2071756575655F757064AA
:1004A0006174652829203A204E4F205052494F52FE
:1004B0004954590A0D0071756575652E63203A20FF
:1004C00071756575655F7570646174652829203A7A
:1004D000205052494F524954590A0D0071756575A3
:1004E000652E63203A2071756575655F757064616E
:1004F00074652829203A20476F74204E6577204F75
:100500007264657220746F206C6F63616C20766119
:10051000720A0D0071756575652E63203A2071753C
:100520006575655F7570646174652829203A204F90
:100530007264657220737472756374757265206974
:100540006E697469616C697A65640A0071756575B4
:10055000652E63203A2071756575655F75706461FD
:1005600074652829203A20576520686176652061E6
:10057000206E6577206F726465720A0D0071756573
:1005800075652E63203A2071756575655F707573AA
:10059000682829203A20456E640A007175657565E2
:1005A0002E63203A2071756575655F7075736828D4
:1005B00029203A20436865636B20350A0071756510
:1005C00075652E63203A2071756575655F7075736A
:1005D000682829203A20436865636B20340A00713B
:1005E000756575652E63203A2071756575655F7058
:1005F0007573682829203A20436865636B20330AA5
:100600000071756575652E63203A20717565756595
:100610005F707573682829203A20436865636B20F2
:10062000320A0071756575652E63203A2071756513
:1006300075655F707573682829203A204368656383
:100640006B20310A0071756575652E63203A207143
:10065000756575655F707573682829203A20426555
:1006600067696E0A000011241FBECFEFD1E2DEBF22
:10067000CDBF00E00CBF12E0A0E0B2E0ECECFFE286
:1006800000E00BBF02C007900D92A237B107D9F767
:1006900016E0A2E7B2E001C01D92A83FB107E1F762
:1006A0000E9407050C94E5170C940000FB014330F1
:1006B00088F0982F92959F709A3010F4905D01C049
:1006C000995A8F7090838A3010F4805D01C0895AE6
:1006D000818312820895AF92BF92CF92DF92EF9200
:1006E000FF920F931F93CF93DF93CDB7DEB723977E
:1006F0000FB6F894DEBF0FBECDBF0E94FB119C0168
:1007000080917402909175028217930709F462C078
:1007100030937502209374020E94490C80E092E0AD
:100720000E94710C61E080E00E94350C80E00E9424
:100730009C13882319F082E192E002C087E192E0E5
:100740000E94710C81E00E949C13882319F08CE1B7
:1007500092E002C082E292E00E94710C80917402E9
:1007600090917502892BB1F162E080E00E94350C16
:10077000E0917402F091750280810E94160DE82EBE
:10078000FF2400E010E06E010894C11CD11C88E237
:10079000A82E82E0B82E1BC0E0917402F091750281
:1007A000E00FF11F43E0B60180810E945603C601AD
:1007B0000E94710C0630110529F463E080E00E946C
:1007C000350C03C0C5010E94710C0F5F1F4F0E1541
:1007D0001F0511F723960FB6F894DEBF0FBECDBFED
:1007E000DF91CF911F910F91FF90EF90DF90CF900D
:1007F000BF90AF900895CF93DF930E94FB11EC015F
:10080000009751F00E9459148F8582FF07C00E9403
:10081000FD0E0E942F1202C00E940E0FDF91CF9199
:1008200008951092730282E00E946206882329F0E4
:1008300062E083E792E00E94210683E00E94620664
:10084000882329F063E083E792E00E94210608955F
:100850008CE00E94DB058BE00E94DB058EE00E94AD
:10086000DB0580E00E949C13882319F08BE00E9436
:10087000BB0581E00E949C13882319F08CE00E9444
:10088000BB0582E00E949C13882319F08EE00E9431
:10089000BB0508958EE00E94FF05882311F10E9498
:1008A000490C80E092E00E94710C61E080E00E94BF
:1008B000350C80E00E949C13882319F082E192E0BD
:1008C00002C087E192E00E94710C81E00E949C13BB
:1008D000882319F08CE192E002C082E292E00E944B
:1008E000710C8CE00E94BB050E94831089E292E0AB
:1008F0000E9460108AE092E00E9460108DEE91E00C
:100900000E94601080E00E949C13882319F081ED02
:1009100091E002C084EB91E00E94601081E00E94AF
:100920009C13882319F083E991E002C080E791E0ED
:100930000E94601082E00E949C13882319F08AE5CF
:1009400091E002C082E491E00E94601083E00E9486
:100950009C13882319F086E291E002C08AE091E0BE
:100960000E9460108AEF90E00E94601080917202F5
:1009700080FF04C080EF90E00E94601080917202BE
:1009800081FF04C086EE90E00E94601080917202A8
:1009900082FF04C08BED90E00E9460108091720293
:1009A00083FF04C081ED90E00E946010809172028C
:1009B00084FF04C08CEC90E00E9460100E946E10D6
:1009C0000E94280408950F931F9378940E94951312
:1009D0000E94DE110E942E050E943B080E94E41333
:1009E0000E940D090E944D120E94B7138CE00E94D4
:1009F0008B0C04EF11E02AE030E044E150E060E5C8
:100A000070E082E00E9424101F910F91089584B736
:100A10008093720214BEA89588E10FB6F894809373
:100A20006000109260000FBE0E94E3040E94D71382
:100A30000E9428040E944A040E9411040E94FB03A1
:100A40008EE00E94FF05882311F00E946B030E9434
:100A5000080E0E94BB120E94D713EECF84B18F60A4
:100A600084B985B1807F85B9279A2F989D9AA598DA
:100A700081EA84BD83E085BD17BC18BC08951816B3
:100A80001CF080E090E0089586321CF48A5D90E0CE
:100A90000895880F8F5F90E00895882311F417BCA4
:100AA0000895992787FD9095BC0197FF04C066279C
:100AB0007727681B790B262F70E00E9481178FEF34
:100AC0006F3F780731F06130710529F4299A289831
:100AD00002C02998289A822F0E943F0587BD089559
:100AE000882311F418BC0895992787FD9095BC01BF
:100AF00097FF04C066277727681B790B262F70E0C5
:100B00000E9481178FEF6F3F780731F061307105D8
:100B100029F42B982A9A02C02B9A2A98822F0E9495
:100B20003F0588BD08951F93162F813059F08130FD
:100B300018F08230A1F409C060937602862F0E94DB
:100B40004D050DC06093770207C0609376026093F5
:100B50007702862F0E944D05812F0E9470051F91FC
:100B60000895E6E7F2E0E80FF11D8081992787FDFF
:100B700090950895089521E030E040E050E004C0F1
:100B8000220F331F441F551F8A95D2F78091780298
:100B900090917902A0917A02B0917B02822B932BE3
:100BA000A42BB52B8093780290937902A0937A02BC
:100BB000B0937B02089521E030E040E050E004C0B3
:100BC000220F331F441F551F8A95D2F72095309569
:100BD000409550958091780290917902A0917A0287
:100BE000B0917B0282239323A423B52380937802C0
:100BF00090937902A0937A02B0937B020895282FF4
:100C000081E090E0A0E0B0E0022E04C0880F991FC0
:100C1000AA1FBB1F0A94D2F7409178025091790223
:100C200060917A0270917B0284239523A623B723D7
:100C300004C0B695A795979587952A95D2F790E029
:100C40000895FC0181E090E002C0880F991F6A9529
:100C5000E2F72081282B20830895FC0181E090E0B9
:100C600002C0880F991F6A95E2F78095208128239A
:100C700020830895FC0181E090E0062E02C0880FD9
:100C8000991F0A94E2F7208130E08223932302C067
:100C9000959587956A95E2F790E00895FC0180812B
:100CA00090E0062E02C0959587950A94E2F780FDA4
:100CB00003C080E090E00895CF010E942D0681E0FE
:100CC00090E00895209178023091790240917A0263
:100CD00050917B02682FDA01C901062E04C0B69537
:100CE000A795979587950A94D2F781709070892B74
:100CF00019F480E090E0089581E090E0A0E0B0E099
:100D000004C0880F991FAA1FBB1F6A95D2F7809550
:100D10009095A095B09582239323A423B523809327
:100D2000780290937902A0937A02B0937B0281E0DB
:100D300090E00895E9ECF0E080818062808308957E
:100D40001092CD0080E18093CC008BE00E94FF05E3
:100D5000882319F488E98093C90080EC8093C80047
:100D600008951F920F920FB60F9211241F932F9385
:100D70003F934F935F936F937F938F939F93AF9323
:100D8000BF93EF93FF931091CE0064E084E00E9444
:100D90003907812F0E944811FF91EF91BF91AF91C8
:100DA0009F918F917F916F915F914F913F912F9183
:100DB0001F910F900FBE0F901F9018951F920F92CA
:100DC0000FB60F9211242F933F934F935F936F931E
:100DD0007F938F939F93AF93BF93EF93FF930E9463
:100DE0009911882331F40E94A0110E94B611882322
:100DF00029F00E9471118093CE0005C08091C90036
:100E00008F7D8093C900FF91EF91BF91AF919F912A
:100E10008F917F916F915F914F913F912F910F90A3
:100E20000FBE0F901F9018951F93182F8BE00E94F4
:100E3000FF05882329F48CE00E94FF05882359F0E0
:100E40001093CE008091C90080628093C900809188
:100E5000C90085FDFCCF1F91089580917C0290917F
:100E60007D028070907890937D0280937C0213BA0B
:100E70000895823019F1833030F4882351F08130A5
:100E800009F04CC00EC0833039F1843009F046C0FF
:100E900034C0262F30E080917C0290917D02887FC3
:100EA00025C0262F30E053E0220F331F5A95E1F77B
:100EB00080917C0290917D02877C18C0262F30E0C3
:100EC00046E0220F331F4A95E1F780917C02909112
:100ED0007D028F739E7F0AC0262F30E0322F22279B
:100EE000330F80917C0290917D02917F282B392BCA
:100EF00030937D0220937C020895262F30E0322F1C
:100F000022273295307F80917C0290917D029F78DC
:100F1000282B392B30937D0220937C020895CF93A8
:100F2000DF936FE10E947517C92FD0E090FF03C0D7
:100F300061E080E002C061E081E00E943907CE01FB
:100F400083709070892B21F461E082E00E94390760
:100F5000CE0187709070892B21F461E083E00E94BC
:100F60003907CF70D070CD2B21F461E084E00E946E
:100F70003907DF91CF91089580917C0290917D0295
:100F8000089580917C0290917D02805090489093CA
:100F90007D0280937C0283BB089580917C029091B6
:100FA0007D028827990F881F9927089583B38F6141
:100FB00083BB80917C0290917D02807090789093A9
:100FC0007D0280937C0213BA08958AE292E00E9427
:100FD000601083E00E9462068823D9F361E080E01C
:100FE0000E94390783E492E00E94601083E00E942F
:100FF00062068823D9F361E081E00E94390788E422
:1010000092E00E94601083E00E9462068823D9F378
:1010100061E082E00E9439078FE492E00E94601054
:1010200083E00E9462068823D9F361E083E00E9496
:10103000390788E592E00E94601083E00E94620612
:101040008823D9F361E084E00E94390780E692E0CA
:101050000E94601083E00E9462068823D9F3809189
:101060007C0290917D028070907890937D028093B5
:101070007C0213BA089588EA91E690938D008093DC
:101080008C0089E080936F0083E080938100089555
:10109000809188028F3719F08F5F809388020895BE
:1010A000809187028F3719F08F5F809387020895B0
:1010B0008091880282381CF08150809388020895C4
:1010C0008091870282381CF08150809387020895B6
:1010D000882329F0813049F080E090E008958091E4
:1010E0008502992787FD909508958091860299271A
:1010F00087FD909508951F920F920FB60F921124BD
:101100002F933F934F935F936F937F938F939F930F
:10111000AF93BF93EF93FF9383E00E94BB05409191
:1011200084024B3098F0842F6AE00E94751720915A
:10113000820230918302280F311D30938302209365
:101140008202842F0E94751790938402FF91EF9181
:10115000BF91AF919F918F917F916F915F914F91CF
:101160003F912F910F900FBE0F901F9018951F92D7
:101170000F920FB60F9211242F933F934F935F93CB
:101180006F937F938F939F93AF93BF93EF93FF934F
:10119000809184009091850088559E4990938D00A0
:1011A00080938C0082E00E94BB0580917E0290912A
:1011B0007F02009729F0019790937F0280937E022F
:1011C0008091800290918102009729F0019790937D
:1011D00081028093800280918802809385028091B1
:1011E0008702809386021092880210928702809173
:1011F00084028F5F80938402FF91EF91BF91AF9142
:101200009F918F917F916F915F914F913F912F911E
:101210000F900FBE0F901F9018958DB18F708DB9E4
:101220008EB1806F8EB985E580936A0080EF8DBBAB
:101230000895882319F0813071F405C080918902E6
:1012400090918A0204C080918B0290918C029093BD
:101250009502809394028091940290919502089552
:101260009FB790939102F894813071F0813018F01B
:10127000823071F405C010928A021092890208C06F
:1012800010928A021092890210928C0210928B02A4
:101290009FBF0895809192029091930208952FB775
:1012A00020939102F89490939302809392022FBF1F
:1012B00008958FB780939102F89410929302109240
:1012C00092028FBF08952FB720939102F894FC01EA
:1012D000A6E9B2E086E00D9001928150E1F72FBFC0
:1012E00008958FB780939102F8941092970210920C
:1012F0009602109299021092980210929B021092FC
:101300009A028FBF08951F920F920FB60F92112469
:101310002F933F934F935F936F937F938F939F93FD
:10132000AF93BF93EF93FF938CB190E0807C90706C
:1013300080349105A1F1813491051CF4892B41F091
:1013400054C08038910559F1803C910509F04DC099
:1013500080918B0290918C02019690938C028093E5
:101360008B02809198029091990201969093990234
:1013700080939802809192029091930201979093AA
:1013800093028093920280919A0290919B0201971E
:1013900090939B0280939A020E94500826C08091ED
:1013A0008B0290918C02019790938C0280938B0218
:1013B000809198029091990201979093990280935D
:1013C00098028091920290919302019690939302D9
:1013D0008093920280919A0290919B020196909341
:1013E0009B0280939A020E94600880918F029091E4
:1013F0009002009729F001979093900280938F02BA
:10140000FF91EF91BF91AF919F918F917F916F91DC
:101410005F914F913F912F910F900FBE0F901F90B2
:1014200018951F920F920FB60F9211242F933F938E
:101430004F935F936F937F938F939F93AF93BF93DC
:10144000EF93FF938CB190E0807C90708034910595
:10145000A1F1813491051CF4892B41F054C08038EE
:10146000910559F1803C910509F04DC080918B02A6
:1014700090918C02019790938C0280938B028091C3
:101480009802909199020197909399028093980203
:10149000809192029091930201969093930280938F
:1014A000920280919A0290919B02019690939B02E6
:1014B00080939A020E94600826C080918B029091CE
:1014C0008C02019690938C0280938B0280919802FB
:1014D000909199020196909399028093980280913D
:1014E00092029091930201979093930280939202BB
:1014F00080919A0290919B02019790939B02809316
:101500009A020E94500880918F0290919002009759
:1015100029F001979093900280938F02FF91EF91B1
:10152000BF91AF919F918F917F916F915F914F91FB
:101530003F912F910F900FBE0F901F9018951F9203
:101540000F920FB60F9211242F933F934F935F93F7
:101550006F937F938F939F93AF93BF93EF93FF937B
:101560008CB190E0807390708031910599F1813158
:1015700091051CF4892B39F053C08032910551F14B
:10158000C09709F04DC08091890290918A0201971D
:1015900090938A028093890280919602909197029B
:1015A0000197909397028093960280919202909176
:1015B00093020197909393028093920280919A02F2
:1015C00090919B02019790939B0280939A020E94B4
:1015D000580826C08091890290918A0201969093C2
:1015E0008A028093890280919602909197020196D7
:1015F0009093970280939602809192029091930229
:101600000196909393028093920280919A02909116
:101610009B02019690939B0280939A020E94480835
:1016200080918D0290918E02009729F001979093FE
:101630008E0280938D02FF91EF91BF91AF919F91A8
:101640008F917F916F915F914F913F912F910F906B
:101650000FBE0F901F9018951F920F920FB60F920A
:1016600011242F933F934F935F936F937F938F93A7
:101670009F93AF93BF93EF93FF938CB190E08073F0
:1016800090708031910599F1813191051CF4892B7D
:1016900039F053C08032910551F1C09709F04DC027
:1016A0008091890290918A02019690938A02809398
:1016B00089028091960290919702019690939702E9
:1016C000809396028091920290919302019690935A
:1016D00093028093920280919A0290919B020196CC
:1016E00090939B0280939A020E94480826C08091A2
:1016F000890290918A02019790938A0280938902CD
:10170000809196029091970201979093970280930F
:101710009602809192029091930201979093930286
:101720008093920280919A0290919B0201979093EC
:101730009B0280939A020E94580880918D0290919A
:101740008E02009729F0019790938E0280938D026C
:10175000FF91EF91BF91AF919F918F917F916F9189
:101760005F914F913F912F910F900FBE0F901F905F
:1017700018958A9A00C08A980895CF93DF936623BC
:1017800011F0889A01C088988998849A859A869AD7
:10179000879A8F988E988D988C9887FD8F9AC82FEE
:1017A00086FD8E9AC5FD8D9AC4FD8C9A0E94B90B58
:1017B0008F988E988D988C98C3FD8F9AC2FD8E9AC3
:1017C000C1FD8D9AC0FD8C9A0E94B90B8C9A8D9A9E
:1017D0008E9A8F9ADF91CF910895882311F0889A7D
:1017E00001C08898899A84988598869887988A9A5B
:1017F00000C07C9B02C080E101C080E07D998062D6
:101800007E9980647F9980688A9800C08A9A00C017
:101810007C9981607D9982607E9984607F998860DF
:101820008A9890E0089580E00E94ED0B87FDFBCF41
:1018300088E090E00197F1F780E00E94ED0B90E0E6
:1018400008951F93182F0E94130C60E0812F0E94AF
:10185000BD0B1F9108951F93182F0E94130C61E078
:10186000812F0E94BD0B1F910895662311F48058AB
:1018700009C0613011F4805405C0623011F48C56F7
:1018800001C08C520E94210C08950E94130C90E01C
:10189000089581E00E94210C089582E00E94210CAD
:1018A00008951F93182F0E94130C982F1A3099F443
:1018B000843110F480E40BC08054843110F484E14E
:1018C00006C094519C3210F484E501C080E0805839
:1018D0000E94210C04C061E0812F0E94BD0B1F916A
:1018E0000895CF93DF93EC0102C00E94510C8991BF
:1018F0008823D9F7DF91CF910895CF93DF93EC013F
:1019000002C00E94510CFE01219684918823C9F7E0
:10191000DF91CF910895FF920F931F93F82E809A35
:10192000819A829A849A859A869A879A80E09AEF19
:101930000197F1F78D9A8C9A0E94B90B80E09EE492
:101940000197F1F70E94B90B00E011E0C80101977F
:10195000F1F70E94B90BC8010197F1F78C980E942A
:10196000B90BC8010197F1F788E20E94210C88E0C9
:101970000E94210C0E94490C86E00E94210C8F2DB0
:101980000E94210C1F910F91FF90089581E090E03B
:10199000089520E030E0809169028F3F11F021E04E
:1019A00030E0C9010895FC019785892F82608787FF
:1019B00080818F708150823010F4926497870895EF
:1019C0000F931F938C0180916902992787FD909551
:1019D00034E0880F991F3A95E1F78758994F0E9494
:1019E000D30C80916902992787FD909524E0880F98
:1019F000991F2A95E1F7B8018758994F0E94401422
:101A000080916902992787FD9095019665E070E0C5
:101A10000E9481178093690220919C02281719F473
:101A20008FEF809369021F910F9108951F93CF93B9
:101A3000DF93182FC82FD0E0BE018CEE93E00E94F8
:101A40009C1088EE93E00E946010CE018F70907021
:101A50008330910571F0843091051CF4019724F4D2
:101A60003AC00497C1F52EC061E070E087EE93E0C4
:101A700036C0CE0180739070C09771F4CE01807C27
:101A80009070803C910511F463E014C016FD11C004
:101A900017FD0FC062E00EC014FD04C015FD02C0AA
:101AA00063E001C065E0C6FD02C017FF03C06E5FC2
:101AB00001C064E0C62FD0E0BE0186EE93E00E9434
:101AC0009C1011C069E070E085EE93E00E949C10CC
:101AD000C9E0D0E008C061E070E089ED93E00E94C9
:101AE0009C10C1E0D0E0CE01DF91CF911F9108950D
:101AF0001F93FC01162F8081282F30E02F7030704B
:101B00002115310519F481E090E00FC0293031052D
:101B10001CF080E090E009C00E94160D20E030E04B
:101B2000181710F021E030E0C9011F9108951F93AC
:101B3000182F83EB93E00E94601090919C0280919B
:101B40006902981719F487E893E05EC08FE593E087
:101B50000E94601080919D02E0919C02FF27E7FDAA
:101B6000F09554E0EE0FFF1F5A95E1F7E80FF11DD5
:101B7000E758F94F108387E393E00E94601080914B
:101B80009D028F5F80939D028FE093E00E94601022
:101B900060919D026F3080F480919C02992787FDAF
:101BA000909544E0880F991F4A95E1F78758994F1F
:101BB0000E94780D892B31F187EE92E00E9460102F
:101BC000809169028F3F41F480919C028093690269
:101BD0008FEB92E00E94601087E992E00E94601013
:101BE00080919C02992787FD9095019665E070E0B1
:101BF0000E94811780939C028FE692E00E94601001
:101C000010929D0287E492E00E9460101F91089557
:101C1000CF92DF92EF92FF921F93CF93DF93CDB7D6
:101C2000DEB721970FB6F894DEBF0FBECDBF198285
:101C30000E940411182F8823C1F086E494E00E94CA
:101C40006010612F70E082E294E00E949C100DC051
:101C5000C6010E941711698170E0C7010E949C10A3
:101C600089810E94970D115008C06E010894C11C13
:101C7000D11C6EEFE62E63E0F62E112349F7219674
:101C80000FB6F894DEBF0FBECDBFDF91CF911F918D
:101C9000FF90EF90DF90CF9008951F93CF93DF9345
:101CA00010E0C9E7D6E0CE010E9431141F5F153065
:101CB000D1F7DF91CF911F9108950F931F93F801F2
:101CC000978386837187608753874287118210824A
:101CD00013821282358324831F910F910895EF920E
:101CE000FF920F931F93FA01A82FB0E0A61BB70B2A
:101CF000828193818A0F9B1F938382832481358104
:101D0000281739071CF43383228304C097FF02C0CD
:101D10001382128286819781A89FB001A99F700DBE
:101D2000B89F700D11244281538120853185429FD7
:101D30007001439FF00C529FF00C11240027F7FC18
:101D40000095102F20813181AD01421B530B22855C
:101D50003385C901489F9001499F300D589F300D30
:101D60001124B183A083882777FD8095982F6E0D6D
:101D70007F1D801F911F442737FD4095542F620F10
:101D8000731F841F951F24E630E040E050E00E945E
:101D9000941720383105410551052CF02FE730E02C
:101DA00040E050E006C057FF04C020E030E040E0D3
:101DB00050E0822F90E01F910F91FF90EF900895D7
:101DC000823018F08230C1F40FC090E0FC01EE0FB9
:101DD000FF1FE80FF91FEE0FFF1FEE0FFF1FE25668
:101DE000FD4F7383628308957093A1026093A002F4
:101DF0007093AD026093AC02089580918902909136
:101E00008A029093CA068093C90680918B029091B2
:101E10008C029093CC068093CB0608952091C9063E
:101E20003091CA068091890290918A022817390759
:101E300011F460E006C02817390714F468ED01C0FA
:101E400068E280E00E9493052091CB063091CC0699
:101E500080918B0290918C022817390711F460E071
:101E600006C02817390714F468ED01C068E281E064
:101E70000E94930508950F931F938C0180E00E94A8
:101E8000B105F801828381E00E94B105F8018383E6
:101E90008091890290918A029583848380918B023C
:101EA00090918C02978386831F910F910895FF92E2
:101EB0000F931F93CF93DF93F62E813049F181303A
:101EC00020F0823009F0BAC03EC016166CF480E0F3
:101ED0000E946808992787FD90954EE952E0BC0161
:101EE0008F2D0E946F0E11C080E00E946808992714
:101EF00087FD9095909581959F4F4EE952E0BC01EA
:101F00008F2D81950E946F0E8195682F80E094C07F
:101F1000161654F481E00E946808992787FD909571
:101F20004AEA52E0BC0152C081E00E946808992749
:101F300087FD9095909581959F4F4AEA52E0BC01AC
:101F40008F2D819574C080E00E946808082F1127AA
:101F500007FD109581E00E946808C82FDD27C7FDA6
:101F6000D0950E944A0980FF03C0080F191F02C0C4
:101F7000C81BD90B62E070E00E948117C801860F70
:101F8000971F9E01261B370B1F1424F5BC018038B8
:101F9000910514F06FE770E0E9012038310514F085
:101FA000CFE7D0E077FF02C060E070E04EE952E09A
:101FB0008F2D0E946F0E682F80E00E949305BE0156
:101FC000D7FF02C060E070E04AEA52E08F2D0E9425
:101FD0006F0E30C0BC011816190614F460E070E0F2
:101FE000E9011216130614F4C0E0D0E01F2D11957C
:101FF0008FEF6138780714F461E87FEF7095619591
:102000007F4F4EE952E0812F0E946F0E8195682F1D
:1020100080E00E949305BE01C158DF4F14F461E8CF
:102020007FEF709561957F4F4AEA52E0812F0E94C1
:102030006F0E8195682F81E00E949305DF91CF910B
:102040001F910F91FF900895AF92BF92CF92DF92B0
:10205000EF92FF920F931F93CF93DF935B016A017F
:102060007901E801823018F0823099F40DC00CE05B
:10207000809F8001112402561D4F9E01A701B601C9
:10208000C5010E945D0E05C080E00E94241081E021
:10209000EECFDF91CF911F910F91FF90EF90DF90E6
:1020A000CF90BF90AF9008951F93182F8CE00E949F
:1020B000FF05882319F0812F0E9414071F910895AE
:1020C000CF93DF93EC0102C00E945410FE012196D1
:1020D00084918823C9F7DF91CF9108958AE694E02F
:1020E0000E9460100895CF93DF93EC0102C00E941C
:1020F000541089918823D9F7DF91CF9108958BE10E
:102100000E94541008950E947F1083E60E9454108C
:1021100008950F931F938C010E947F108BE50E94FE
:102120005410C8010E9473101F910F9108958AE600
:1021300092E00E9489100895EF92FF920F931F93EF
:102140008C01CB0126EBE22E22E0F22E4AE050E099
:10215000B7010E944417C8010E946010C7010E9485
:1021600073100E9497100E946E101F910F91FF90A4
:10217000EF9008950F931F9306EB12E04AE050E0B2
:10218000B80190E00E944417C8010E94891081E4C0
:102190000E9454101F910F910895FF920F931F9367
:1021A000F82E862F06EB12E04AE050E0B80190E0EE
:1021B0000E944417C8010E9489108BE30E945410AA
:1021C0004AE050E0B8018F2D90E00E944417C8010A
:1021D0000E94731088E40E9454101F910F91FF9089
:1021E00008958CE692E00E9489100895CF93DF93C2
:1021F000EC018CE00E94FF05882319F088810E9481
:102200005410DF91CF91089590916F028091C00298
:10221000992311F4819504C0981720F4891B8095A7
:1022200090E00895981B9150892F90E00895DC016B
:102230008091C002E82FF0E031969F013070319715
:1022400080916F0290E02817390719F480E090E040
:102250000895EC53FD4F80818C932093C00281E060
:1022600090E00895282F909170028091C1029817F4
:1022700019F480E090E00895892F90E0FC01ED537F
:10228000FC4F208301968093700281E090E00895D6
:10229000282F90916F028091C002981749F0892FE2
:1022A00090E0FC01ED53FD4F2083019680936F0277
:1022B00008958091C20290E0FC01EC53FB4FE08155
:1022C000019690702091710230E08217930719F403
:1022D00080E090E008958091C102E81B8E2F90E08D
:1022E00008951F93CF93DF938091C102C82FD0E050
:1022F0009E012F5F3F4F30708091700290E0281751
:10230000390789F01091C3020E945911181758F427
:10231000812F8F5F8093C302C80FD11DCD53DC4F37
:10232000888190E002C08FEF90E0DF91CF911F9104
:1023300008950E9459119091C302891B90E008955D
:102340004091C2024F5F242F30E0415080917102D2
:1023500090E02817390729F04F5F4093C20210928E
:10236000C302089508951092C302089590917102D6
:102370008091C202992311F4819504C0981720F42A
:10238000891B809590E00895981B9150892F90E0CB
:1023900008958091710290E0FC01ED53FB4F209174
:1023A0007002215020830196809371028BE00E947D
:1023B000FF05882311F40E949A0608950E940113D4
:1023C0000E94A0060E94D60761E080E00E943907C3
:1023D00008958091C405882319F480E090E0089561
:1023E0008091C50590E024E0880F991F2A95E1F7B8
:1023F00089539A4F08958091760686FF03C087E639
:1024000096E0089580917706882379F48091C40539
:10241000882359F08091C50590E034E0880F991F1A
:102420003A95E1F789539A4F089580E090E0089536
:1024300090E08091760686FD91E08091C405980F2A
:10244000892F90E0089581E0809377060895109297
:102450007706089587E696E00E94311408958091EA
:10246000C4058823C9F08091C50590E044E0880F39
:10247000991F4A95E1F789539A4F0E943114809130
:10248000C40581508093C4058091C5058F5F6AE0C3
:102490000E9475179093C5050895CF93DF93C7ECFD
:1024A000D5E0CE010E943114609686E0C735D8078A
:1024B000C1F787E696E00E9431141092C50510928C
:1024C000C6051092C40510927706DF91CF9108954A
:1024D0000E944D120895CF93DF93EC0185E496E0BE
:1024E0000E9460108091C4058A3039F483E296E03E
:1024F0000E94601080E090E034C081E096E00E948D
:1025000060106091C60570E054E0660F771F5A9521
:10251000E1F769537A4FCE010E9440148FED95E0A8
:102520000E9460108091C4058F5F8093C4058DEB7D
:1025300095E00E9460108091C6058F5F8093C6056C
:102540008BE995E00E9460108091C6056AE00E94C8
:1025500075179093C6058DE795E00E94601081E0A5
:1025600090E0DF91CF91089567E676E00E944014F5
:1025700081E090E008950F931F93CF93DF93CDB741
:10258000DEB760970FB6F894DEBF0FBECDBF0E94D6
:10259000C90C882359F18CE495E00E9460108E01EB
:1025A0000F5F1F4FC8010E94311484E195E00E9423
:1025B0006010C8010E94E00C8CED94E00E94601055
:1025C000888986FF08C086EB94E00E946010C801ED
:1025D0000E94B41207C08DE894E00E946010C80108
:1025E0000E946B128CE694E00E94601060960FB619
:1025F000F894DEBF0FBECDBFDF91CF911F910F9139
:1026000008958BE00E94FF05882331F084E58093D4
:10261000BA0085E48093BC0008951F920F920FB614
:102620000F9211241F932F933F934F935F936F93B8
:102630007F938F939F93AF93BF93EF93FF9364E048
:1026400084E00E9439079091B9008FEC8093BC0020
:10265000987F9838B9F0993840F49036E9F090387E
:1026600089F0992309F443C049C0983B71F1993B23
:1026700020F4983A09F042C020C0903C99F1983C6F
:10268000E9F52EC08091BB000E9448110E94041100
:102690008230A0F58FE830C00E940411823018F417
:1026A0008FE88093BC001091BB0064E083E00E943F
:1026B0003907812F0E94481121C080917806882314
:1026C00021F0109278060E94A0110E94711180934F
:1026D000BB0081E0809378060E9499118FEC0CC0BA
:1026E0000E94A011109278060E94B31107C01092A8
:1026F00078060E94B3118FED8093BC008091BC00DE
:1027000080688093BC00FF91EF91BF91AF919F9142
:102710008F917F916F915F914F913F912F911F9179
:102720000F900FBE0F901F9018958AB18F708AB9C5
:102730008BB1806F8BB9089529B1482F81E090E06B
:10274000042E02C0880F991F0A94E2F730E020950A
:10275000309554E0359527955A95E1F782239323D8
:1027600002C0959587954A95E2F790E008951092FA
:10277000CD061092CE061092CF061092D00610927F
:10278000D2061092D1061092D4061092D30610925F
:10279000D6061092D5061092D7060895FC01ADEC2E
:1027A000B6E08BE00D9001928150E1F708950F9310
:1027B0001F930DEC16E0C8010E94BA05C8010E94E3
:1027C0003B0F1F910F91089585E794E19093D906EF
:1027D0008093D8068CED95E19093DB068093DA0622
:1027E00089E395E19093DD068093DC0681E896E12C
:1027F0009093DF068093DE0683E196E19093E106F5
:102800008093E00687E095E19093E3068093E206EB
:102810001092E5061092E4061092E7061092E60682
:102820001092E9061092E8061092EB061092EA0662
:102830001092ED061092EC061092EF061092EE0642
:102840001092F1061092F0061092F3061092F20622
:102850001092F5061092F4061092F7061092F60602
:102860000895DC0180E090E0FD01E80FF91F10827F
:1028700001968F309105C1F781E0FD0187870895AA
:10288000CF93DF93EC01AB0120E030E0FA01E20FDF
:10289000F31FDE01A20FB31F8C9180832F5F3F4F88
:1028A0002F30310599F78F85FA018787DF91CF9116
:1028B0000895DC01EC91F0E0EF70F070EE0FFF1F77
:1028C000E852F94F0190F081E02D309719F0CD01D9
:1028D00019950895FD018785846087870895FC0117
:1028E00080810E94160D90E00895FC018785846028
:1028F00087870895803299F0813218F48031B9F4D5
:1029000005C0803419F0803891F409C0E62FF0E05A
:10291000EE0FFF1FE258FD4F518340830895E62FCD
:10292000F0E0EE0FFF1FE357FD4F51834083089502
:10293000E82FF0E0EE0FFF1FDF01A258BD4F6D93AF
:102940007C93E357FD4F5183408308958032A9F073
:10295000813218F4803129F407C0803429F080389E
:1029600061F081E090E00895E62FF0E0EE0FFF1FA8
:10297000E258FD4F808191810895E62FF0E0EE0F3F
:10298000FF1FE357FD4F808191810895803229F127
:10299000813218F4803161F505C0803419F0803837
:1029A000E1F026C0A62FB0E0AA0FBB1FFD01E25840
:1029B000FD4F80819181892B19F480E090E008958A
:1029C00020E0A357BD4F8D919C91892B09F421E004
:1029D00081E02827822F90E00895A62FB0E0AA0F6B
:1029E000BB1FFD01E258FD4F80819181892B19F0B9
:1029F00081E090E0089520E030E0A357BD4F8D9135
:102A00009C91892B11F021E030E0C90108950F93CA
:102A10001F93CF93DF93EC0198818F8582FD24C0B3
:102A20000F8110E0102F00278885080F111D2D81C0
:102A300030E0322F22278E81280F311D4B8150E04C
:102A4000542F44278C81480F511D698170E0762FE7
:102A500066278A81680F711D892F82958F700E9469
:102A600024108F8584608F87DF91CF911F910F9104
:102A70000895CF92DF92EF92FF920F931F93CF931F
:102A8000DF93CDB7DEB72B970FB6F894DEBF0FBE3E
:102A9000CDBFFC018081082F10E0007F1070CE01B7
:102AA00001960E943B0F0034110589F10134110594
:102AB0005CF40032110509F10033110511F1003108
:102AC000110509F068C015C00036110509F451C0A0
:102AD000013611052CF40035110509F05CC044C025
:102AE0000037110509F44AC00038110509F053C038
:102AF0004AC00E94B2118B814AC00E94B2118C81DF
:102B000046C00E94B2110E941812815040C00E941B
:102B1000E9117C01009711F4CC2403C00E946F14CA
:102B2000C82E0E94B2118C2D0E9432118C2D0E9451
:102B30002B0C80E20E94510C0E94C911E114F10497
:102B400051F10E94B211DD240CC087010D0D111D41
:102B5000F80180810E943211F80180810E942B0CC3
:102B6000D394DC1491F715C00E94B21180917E02BB
:102B70000EC00E94B21180918D0209C00E94B21154
:102B80008091800204C00E94B21180918F020E9445
:102B900032110E94C9110E942A122B960FB6F89486
:102BA000DEBF0FBECDBFDF91CF911F910F91FF9080
:102BB000EF90DF90CF900895FC01808190E0807FBE
:102BC00090708033910511F18133910534F4803197
:102BD000910551F0809711F514C080349105C9F02A
:102BE00080359105D9F418C0A89588E190E02CE0D3
:102BF0000FB6F894A895809360000FBE20936000F4
:102C0000FFCF0E9423120E942F1208C00E94271299
:102C100005C00E94681202C00E9423120E942A125C
:102C20000E94FD0E08950F931F93CF93DF93EC0145
:102C300008811F8512FD60C015FF30C060E0802F45
:102C400080730E94C614892B19F418601F8719829B
:102C500061E0802F807C0E94C614892B21F48F852F
:102C600080618F871A822F8524FF08C023FF06C04A
:102C700024602F8760E082E00E94570F62E083E7C4
:102C800092E00E943A068823B9F1698180E00E94AF
:102C9000570F6A8181E00E94570F2EC06D8170E04E
:102CA000762F66278E81680F711D4F8150E0542F5B
:102CB00044278885480F511D298530E0322F22276F
:102CC0008A85280F311D8B8190E0982F8827EC8111
:102CD0008E0F911D90937F0280937E0270938E02DF
:102CE00060938D0250938102409380023093900252
:102CF00020938F0210621F87DF91CF911F910F9158
:102D000008951F93CF93DF93EC0128817F8572FD97
:102D1000B7C0122F1073622F607C75FF5FC0103236
:102D200079F0113218F41031A1F405C0103419F003
:102D3000103879F405C080917E0290917F0204C022
:102D400080918D0290918E02892B19F478607F8793
:102D50001982603279F0613218F46031A9F405C04B
:102D6000603419F0603881F405C080918002909140
:102D7000810204C080918F0290919002892B21F4EE
:102D80008F8580618F871A822F8524FD02C023FFE3
:102D900004C0103311F428612F872F8524FF08C049
:102DA00023FF06C024602F8760E082E00E94570F57
:102DB00062E083E792E00E943A06882309F460C04B
:102DC000103319F4698182E006C0698180E00E94B5
:102DD000570F6A8181E00E94570F52C02B81EC810E
:102DE0008D8190E0582F44278E81480F511D603C03
:102DF00069F4898190E0982F88272A81820F911D9C
:102E00000E944F098F8584608F873AC030E010336D
:102E100039F48A8190E0582F4427420F531F19C07C
:102E2000322F22272E0F311D103279F0113218F473
:102E3000103179F405C0103419F0103851F405C080
:102E400030937F0220937E0204C030938E02209341
:102E50008D02603279F0613218F4603179F405C086
:102E6000603419F0603851F405C0509381024093EA
:102E7000800204C05093900240938F0270627F875B
:102E8000DF91CF911F910895FB019F01E89442309B
:102E9000C4F04532B4F44A3029F497FB1EF49095FF
:102EA00081959F4F642F77270E94AF17805D8A33EB
:102EB0000CF0895D8193CB010097A1F716F45DE2D8
:102EC00051931082C9010C946517DC01FC01672F36
:102ED00071917723E1F7329704C07C916D937083F1
:102EE0006291AE17BF07C8F30895991B79E004C03B
:102EF000991F961708F0961B881F7A95C9F7809539
:102F0000089597FB092E07260AD077FD04D027D015
:102F100006D000201AF4709561957F4F0895F6F75A
:102F2000909581959F4F089597FB092E05260ED009
:102F300057FD04D028D00AD0001C38F45095409595
:102F4000309521953F4F4F4F5F4F0895F6F790957D
:102F50008095709561957F4F8F4F9F4F0895AA1B65
:102F6000BB1B51E107C0AA1FBB1FA617B70710F074
:102F7000A61BB70B881F991F5A95A9F780959095A6
:102F8000BC01CD010895A1E21A2EAA1BBB1BFD01B5
:102F90000DC0AA1FBB1FEE1FFF1FA217B307E40738
:102FA000F50720F0A21BB30BE40BF50B661F771F90
:102FB000881F991F1A9469F7609570958095909570
:0C2FC0009B01AC01BD01CF010895FFCFC3
:102FCC005665722E20322E392E323030393037324F
:102FDC00320054574920007477692000444542550B
:102FEC00470064656275670020000A546573746558
:102FFC00204C657563687464696F64656E2E2E2E43
:10300C000D0A0052454431002C2052454432002C0C
:10301C00204F52414E4745002C20475245454E000B
:10302C002C20424C55450D0A00FF4B00324A000142
:02303C00010190
:00000001FF
