:100000000C949D020C94BE020C94BE020C94BE0291
:100010000C94BE020C94E5110C9449110C94AC1094
:100020000C940F100C94BE020C94BE020C94BE02F1
:100030000C94BE020C94BE020C94BE020C94BE0240
:100040000C94BE020C94FA0D0C94CB0D0C94DA0EA9
:100050000C94290E0C94BE020C94BE020C94BE02A9
:100060000C94BE020C94BE020C94BE020C94BE0210
:100070000C94BE020C94BE020C94BE020C94BE0200
:100080000C94BE020C94BE020C94BE020C94BE02F0
:100090000C940E0C0C94920B0C94BE020C94881AC7
:1000A0000C94BE020C94BE020C94BE020C94BE02D0
:1000B0000C94BE020C94BE020C94BE020C94BE02C0
:1000C0000C94BE020C94BE020C94BE02481948194E
:1000D0004E1954195A19601966196C197219781940
:1000E0007E19841987198D19931999199F19A519C2
:1000F000426567696E6E652041757366C3BC687240
:10010000756E6720766F6E2000546163686F207A89
:100110007572C3BC636B7365747A656E2E0D0A00CD
:100120005175657565206CC3B6736368656E2E0D79
:100130000A004A6F622D41757366C3BC6872756EA2
:100140006720666F72747365747A656E2E0D0A008F
:100150004A6F622D41757366C3BC6872756E672005
:10016000616E68616C74656E2E0D0A00416B74756A
:10017000656C6C656E204A6F62206265656E6465B1
:100180006E2E0D0A00506175736520667265696791
:1001900065676562656E2E0D0A0050617573652096
:1001A000626973207A75722046726569676162655B
:1001B0002E0D0A0052656368747364726568756E0B
:1001C000672E0D0A00442C34302C2D343000502C76
:1001D00038302C32302C31302C353030004C696EB8
:1001E0006B7364726568756E672E0D0A00442C2D62
:1001F00034302C343000502C38302C32302C31300C
:100200002C3530300046616872652072C3BC636B68
:1002100077C3A47274732E0D0A00442C2D34300061
:10022000502C38302C32302C31302C3530300046C8
:100230006168726520766F7277C3A47274732E0D35
:100240000A00442C343000502C38302C32302C3101
:10025000302C35303000466168727A6575672061F0
:100260006E68616C74656E2E0D0A00506175736561
:1002700020616B74697669657274210D0A002050E3
:1002800041555345002052410020524400204C412A
:1002900000204C440053544F500052554E200054FF
:1002A000574920537461747573627974653A2030CC
:1002B0007800506F736974696F6E737472696767E1
:1002C00065722061757367656CC3B673743A2000FC
:1002D0005A656974747269676765722061757367BE
:1002E000656CC3B673743A20000D0A4265656E648E
:1002F000652044656275672D417573676162656E3F
:100300002E0D0A000D0A426567696E6E65206D69E3
:10031000742044656275672D417573676162656E0F
:100320002E2E2E0D0A2D2D2D2D2D2D2D2D2D2D2D3D
:100330002D2D2D2D2D2D2D2D2D2D2D2D2D2D2D2DED
:100340002D2D0D0A00204F6B61792E0D0A00496E8C
:10035000697469616C697A652E2E2E000D0A496EEA
:10036000697469616C697369657265204C43442ED8
:100370002E2E004A544147005761746368646F67CA
:10038000200042726F776E2D4F757420004578748F
:1003900065726E616C2000506F7765722D4F6E2014
:1003A000000A5265736574205175656C6C653A0D71
:1003B0000A00444950343A204F464620206E696373
:1003C00068742076657277656E6465740D0A004402
:1003D0004950343A204F4E2020206E6963687420C3
:1003E00076657277656E6465740D0A004449503312
:1003F0003A204F464620204C434420696E616B747E
:1004000069760D0A00444950333A204F4E2020208F
:100410004C434420616B7469760D0A0044495032A4
:100420003A204F4646202044656275672D4175731A
:10043000676162656E20696E616B7469760D0A0092
:10044000444950323A204F4E20202044656275675F
:100450002D417573676162656E20616B7469760DFD
:100460000A00444950313A204F46462020496E74D4
:10047000657266616365203D20554152540D0A0046
:10048000444950313A204F4E202020496E74657205
:1004900066616365203D205457490D0A0044495068
:1004A0002D536368616C7465722045696E73746561
:1004B0006C6C756E67656E3A0D0A002D2D2D2D2D15
:1004C0002D2D2D2D2D2D2D2D2D2D2D2D2D2D2D2D5C
:1004D0002D2D2D2D2D2D0D0A0A004D6F746F727369
:1004E0007465756572756E672056322E3030382E01
:1004F00030322E31380D0A002C20424C55450D0A61
:10050000002C20475245454E002C204F52414E476B
:1005100045002C20524544320052454431000A54D3
:1005200065737465204C657563687464696F646590
:100530006E2E2E2E0D0A000D0A0011241FBECFEFC5
:10054000D1E2DEBFCDBF00E00CBF12E0A0E0B2E020
:10055000E4E0FAE300E00BBF02C007900D92A23284
:10056000B107D9F719E0A2E2B2E001C01D92A03AAA
:10057000B107E1F70E94C0020C94011D0C94000029
:100580002F923F924F925F927F928F929F92AF9263
:10059000BF92CF92DF92EF92FF920F931F93CF9370
:1005A000DF9384B78093230214BEA89588E10FB629
:1005B000F89480936000109260000FBE0E94E41BCC
:1005C00080E00E94EB1B882311F08CE001C08BE0DF
:1005D0000E94AE0A82E00E94EB1B882319F08FE094
:1005E0000E94AE0A0E94050A0E94ED0B0E94230D94
:1005F0000E94310D0E944B0F0E94FA170E9415199C
:100600000E940F1C109200021092010278948DE05B
:100610000E94AE0A0E944C178AED94E00E940017D7
:100620008BEB94E00E9400178DE994E00E94001784
:1006300080E00E94EB1B882319F080E894E002C060
:1006400082E694E00E94001781E00E94EB1B882361
:1006500019F080E494E002C08CE194E00E9400175D
:1006600082E00E94EB1B882319F085E094E002C031
:100670008CEE93E00E94001783E00E94EB1B88231E
:1006800019F08FEC93E002C082EB93E00E94001718
:1006900081EA93E00E9400178091230280FF09C045
:1006A00087E993E00E94001780912302806880937D
:1006B00023028091230281FF04C08DE893E00E9411
:1006C00000178091230282FF04C082E893E00E9419
:1006D00000178091230283FF04C088E793E00E9403
:1006E00000178091230284FF04C083E793E00E94F7
:1006F00000170E942B170E94D80C0E945E0C8FE0FE
:100700000E94F20A8823C9F063E080E00E94690C2D
:100710008CE593E00E9400178CE00E9453130E9426
:1007200011138EE493E00E94451385E493E00E9448
:10073000001760E080E00E94690C61E083E00E94A5
:10074000690C81E00E94EB1B882361F084E093E058
:100750000E9400178DE00E94AE0A61E082E00E94D4
:10076000690C07C089EE92E00E9400178DE00E949C
:10077000CE0A04EF11E02AE030E044E150E060E509
:1007800070E082E00E94C21657E2252E59E0352E15
:1007900080E00E94550B882329F060E082E292E01D
:1007A0000E94140B81E00E94550B882329F061E020
:1007B00082E292E00E94140B82E00E94550B882393
:1007C00029F062E082E292E00E94140B83E00E9432
:1007D000550B882329F063E082E292E00E94140B1B
:1007E00040E0A42E42E0B42E30E4C32E39E0D32EF4
:1007F0002AE3E22E29E0F22E9AEF492E98E0592EB4
:1008000086E1882E89E0982EC0E0D0E07C2E8EE034
:100810000E94F20A882321F082E00E94910AC3C05C
:10082000F50110811330C9F0143030F4113059F053
:10083000123009F0B8C00CC0143009F481C0153072
:1008400009F0B1C094C060E08C2F0E946A0A03C016
:100850008C2F0E94910AF5017BC060E082E292E059
:100860000E942D0B882309F45DC0F6018081813040
:1008700099F0813030F0823001F1833009F052C0BC
:1008800031C060E08C2F0E946A0A82E0F701808309
:1008900081E0F601808346C08C2F0E946A0D882378
:1008A00019F4F601108317C0F70180818823D1F570
:1008B00082E08083F60180831FC08C2F0E946A0D26
:1008C000882321F0F7018081882361F5F6011083E8
:1008D00085E0F70180838C2F0E94570FF4019183EC
:1008E000808320C08C2F0E94570F8C01F4018081DF
:1008F00091818017910721F48C2F0E94910A12C0D8
:100900008017910714F464EC01C06CE38C2F0E94F3
:100910006A0AF7018081882329F485E08083F40145
:100920001183008362E082E292E00E942D0B882313
:10093000D1F1F70180818823B1F18150808333C0E8
:10094000F2018081882331F483E0F5018083F60190
:10095000108229C062E082E292E00E942D0B88237F
:1009600011F1F20160818C2F0E94E3151CC080916F
:100970005A09882351F483E0809300028093010296
:1009800010924009109241090EC062E082E292E0AA
:100990000E942D0B882339F060915A0982E00E9451
:1009A000E31510920102672D84E292E00E942D0B64
:1009B000882391F0872D895F0E94550B882379F158
:1009C000BE0180ED92E00E94A017672D82E092E0C8
:1009D0000E94140B672D1AC0172D1E5F612F84E231
:1009E00092E00E942D0B8823D1F0872D875F0E9413
:1009F000550B8823A1F0BE0182EB92E00E94A01764
:100A0000672D82E092E00E94140B612F84E292E055
:100A10000E94200B83E0F5018083F601108221966D
:100A20000894A11CB11C0894C11CD11C0894E11CA1
:100A3000F11C0894411C511C82E090E0880E991E24
:100A4000C230D10509F0E2CE60E082E292E00E947D
:100A5000410B882339F080E10E94550B882311F067
:100A60000E94151961E082E292E00E94410B882306
:100A7000D9F00E9403198C019FEF0F3F1907A1F0D5
:100A80008DE00E94F20A882379F08FE992E00E94BB
:100A9000001740E150E0B101C8010E944D1CC101A6
:100AA0000E943C170E942B1762E082E292E00E94B3
:100AB000410B63E082E292E00E94410B882309F43B
:100AC000F2C08FE00E94F20A882309F4ECC00E9471
:100AD000111360E080E00E94FD12809144094AE019
:100AE00050E0B101992787FD90950E944D1CC101EE
:100AF0000E94391360E085E00E94FD128091440954
:100B00004AE050E0B101992787FD90950E944D1C65
:100B1000C1010E94391360E08AE00E94FD128091B9
:100B200042094AE050E0B10190E00E944D1CC10131
:100B30000E94391360E08CE00E94FD12809143090D
:100B40004AE050E0B10190E00E944D1CC1010E94BA
:100B5000391360E08EE00E94FD120E948B184AE07B
:100B600050E0B10190E00E944D1CC1010E94391378
:100B700061E080E00E94FD124AE050E0B101809106
:100B80004609909147090E944D1CC1010E943913EA
:100B900061E087E00E94FD124AE050E0B1018091DF
:100BA0004809909149090E944D1CC1010E943913C6
:100BB00061E08EE00E94FD124AE050E0B1018091B8
:100BC0004A0990914B090E944D1CC1010E943913A2
:100BD00084EF98E00E94A10F62E080E00E94FD1285
:100BE0004AE050E0B1018091F4089091F5080E942C
:100BF0004D1CC1010E94391362E087E00E94FD1282
:100C00004AE050E0B1018091F6089091F7080E9407
:100C10004D1CC1010E94391362E08EE00E94FD125A
:100C20004AE050E0B1018091F8089091F9080E94E3
:100C30004D1CC1010E94391363E080E00E94FD1247
:100C400062E082E092E00E942D0B882319F08AE98D
:100C500092E002C085E992E00E94451360E082E0E4
:100C600092E00E942D0B882319F081E992E002C0E6
:100C70008DE892E00E94451361E082E092E00E94DC
:100C80002D0B882319F089E892E002C085E892E0F4
:100C90000E9445138EE00E94F20A882321F08EE71D
:100CA00092E00E9445138BE00E94F20A882389F0AB
:100CB0000E948D0B8C01EFEF8F3F9E0709F4B1C1AD
:100CC00041E359E06CEF78E00E948E138F3F71F0A2
:100CD0009EC18CE00E94F20A882309F4A2C10E94FE
:100CE00008198C018F5F9F4F09F49BC18DE00E9412
:100CF000F20A882349F08EE00E94F20A882321F04C
:100D00008BE692E00E9400170436110509F4B1C089
:100D100005361105CCF40A34110509F44FC10B3422
:100D200011054CF40D30110509F42AC100321105EA
:100D300009F077C125C00035110509F4F1C001366D
:100D4000110509F06EC176C00037110509F4B2C073
:100D5000013711054CF40A36110509F420C10B3690
:100D6000110509F05EC139C10437110509F443C109
:100D70000737110509F10337110509F052C13BC0CE
:100D800085E08093000210925A0962E082E092E0CE
:100D90000E94200B809102028360809302020E94D5
:100DA0001118109224028DE00E94F20A882309F49F
:100DB00038C186E592E07BC00E94111887E492E07A
:100DC0000E94D91882E492E00E94D91862E082E081
:100DD00092E00E94140B80910202836080930202D1
:100DE000109224028DE00E94F20A882309F419C1AE
:100DF0008FE292E05CC00E94111880E292E00E94B3
:100E0000D9188AE192E00E94D91862E082E092E06B
:100E10000E94140B80910202836080930202109260
:100E200024028DE00E94F20A882309F4FAC085E0CA
:100E300092E03DC00E94111886EF91E00E94D918FF
:100E40008DEE91E00E94D91862E082E092E00E946B
:100E5000140B80910202836080930202109224029C
:100E60008DE00E94F20A882309F4DBC08DED91E049
:100E70001EC00E9411188EEC91E00E94D91885ECDA
:100E800091E00E94D91862E082E092E00E94140B87
:100E900080910202836080930202109224028DE00E
:100EA0000E94F20A882309F4BCC084EB91E00E94FE
:100EB0000017B7C08DE00E94F20A882321F08AE96A
:100EC00091E00E9400178EE00E94F20A882309F048
:100ED000A8C08EE00E94AE0A60E084E292E00E9428
:100EE0002D0B882351F080E00E947C0D90933D09EA
:100EF00080933C0980E00E948D0D60E084E292E0E6
:100F00000E942D0B882309F48CC081E00E947C0D87
:100F100090933F0980933E0981E00E948D0D81C02E
:100F20008DE00E94F20A882321F085E891E00E947A
:100F300000178EE00E94F20A882309F472C08EE046
:100F40000E94CE0A60E084E292E00E942D0B88238A
:100F500039F060913C0970913D0980E00E94A50D37
:100F600060E084E292E00E942D0B882309F459C0CE
:100F700060913E0970913F0981E00E94A50D51C02A
:100F80008DE00E94F20A882321F08CE691E00E9415
:100F900000178091020283608093020229C08DE0D5
:100FA0000E94F20A882321F080E591E00E94001758
:100FB00062E082E092E00E94200B33C08DE00E944C
:100FC000F20A882321F082E391E00E94001762E098
:100FD00082E092E00E94140B24C08DE00E94F20A8D
:100FE000882321F080E291E00E9400170E941118EE
:100FF0001092240216C08DE00E94F20A882321F08C
:1010000089E091E00E9400170E94AF0F0AC0813072
:1010100041F48CEF98E00E9465178CEF98E00E94F5
:10102000181860E082E092E00E942D0B882369F09E
:1010300061E082E092E00E942D0B882331F0109253
:101040004C09109257091092580962E082E092E030
:101050000E942D0B882309F4ADC18EE00E94F20A94
:10106000882309F0A7C160E082E092E00E942D0B86
:10107000882309F49FC161E082E092E00E942D0B79
:10108000882309F497C189E099E00E9442188130D1
:1010900009F090C1ECE4F9E0A9E0B9E08DE00D9031
:1010A00001928150E1F78DE00E94F20A882341F01D
:1010B00080EF90E00E94001789E099E00E94651798
:1010C0000E946118909102029C7F909302021092FC
:1010D000240280910909803509F40DC1833509F492
:1010E000A6C0843409F066C180911409813021F0D2
:1010F000833009F05FC126C080911509813021F04D
:10110000823009F057C10DC093609093020284E0D1
:10111000809300028093010280910C098093FA0869
:101120000EC093609093020284E08093000280934B
:10113000010280910C098093FA0880910E09809336
:10114000FB0838C184E08093000280930102809103
:101150000C098093FA0880910E098093FB08809116
:101160000A098035B9F0843541F08E3411F560E01C
:1011700082E092E00E94140B1CC060E084E292E0E6
:101180000E94140B609110097091110980E00E9477
:10119000A50D0FC080E00E946E0F62E084E292E035
:1011A0000E94140B609110097091110980E00E9457
:1011B000E10F80910B09803509F1843549F08E34B7
:1011C00009F0F8C061E082E092E00E94140BF2C0E6
:1011D00061E084E292E00E94140B80911509833053
:1011E00029F4609110097091110904C060911209ED
:1011F0007091130981E00E94A50DDCC081E00E947E
:101200006E0F63E084E292E00E94140B8091150956
:10121000833029F4609110097091110904C0609124
:1012200012097091130981E00E94E10FC3C08091FF
:101230001409813021F493609093020237C061E079
:1012400082E092E00E94140B80910A098E3461F0D2
:101250008F3420F4843409F0ADC030C08035B9F04B
:10126000843509F0A7C006C060E082E092E00E94E9
:10127000140B1CC060E084E292E00E94140B6091A9
:101280000E0970910F0980E00E94A50D0FC080E04B
:101290000E946E0F62E084E292E00E94140B609163
:1012A0000E0970910F0980E00E94E10F85E08093A4
:1012B000000280910C0980935A097CC060E082E0B2
:1012C00092E00E94140B80911509882331F08091DF
:1012D0000C0990910D09892B19F40E94970F6AC08F
:1012E0000E94880F20910C0930910D09820F931FE5
:1012F0000E948D0F5FC09360909302028091140949
:101300008130B9F480911509843009F053C00091FF
:10131000120910911309209110093091110940917F
:101320000E0950910F0960910C0970910D0982E02E
:1013300037C080910A098235E1F08335A1F18C3400
:10134000C9F580910B0960910C0970910D098335E5
:1013500011F480E02DC00091120910911309209121
:1013600010093091110940910E0950910F0980E048
:1013700017C080910B0960910C0970910D0983359C
:1013800011F481E015C00091120910911309209108
:1013900010093091110940910E0950910F0981E017
:1013A0000E94C21607C060910C0970910D0982E07D
:1013B0000E94C6158091000280934209809101022B
:1013C0008093430980E00E946A0D8093440981E084
:1013D0000E946A0D8093450980E00E94570F909308
:1013E00047098093460981E00E94570F909349096D
:1013F000809348090E94880F90934B0980934A0973
:1014000082E499E00E94061CC3C984B18F6084B94C
:1014100085B1807F85B9279A2F989D9AA59881EAF2
:1014200084BD83E085BD17BC18BC089518161CF058
:1014300080E090E0089586321CF48A5D90E0089583
:10144000880F8F5F90E00895882311F417BC0895EA
:10145000992787FD9095BC0197FF04C066277727E1
:10146000681B790B262F70E00E94921C8FEF6F3F54
:10147000780731F06130710529F4299A289802C063
:101480002998289A822F0E94160A87BD08958823DA
:1014900011F418BC0895992787FD9095BC0197FF1A
:1014A00004C066277727681B790B262F70E00E94FF
:1014B000921C8FEF6F3F780731F06130710529F48E
:1014C0002B982A9A02C02B9A2A98822F0E94160AD9
:1014D00088BD08951F93162F813059F0813018F080
:1014E0008230A1F409C060932502862F0E94240A4D
:1014F0000DC06093260207C0609325026093260208
:10150000862F0E94240A812F0E94470A1F91089566
:10151000E5E2F2E0E80FF11D8081992787FD9095C3
:101520000895813059F0813018F08230B1F40CC048
:1015300085B1836085B98FEF87BD089585B18C60D3
:1015400085B98FEF88BD089585B1836085B99FEF18
:1015500097BD85B18C6085B998BD089521E030E0D4
:1015600040E050E004C0220F331F441F551F8A95EE
:10157000D2F78091270290912802A0912902B09180
:101580002A02822B932BA42BB52B809327029093B6
:101590002802A0932902B0932A02089521E030E0A6
:1015A00040E050E004C0220F331F441F551F8A95AE
:1015B000D2F72095309540955095809127029091D3
:1015C0002802A0912902B0912A0282239323A42306
:1015D000B5238093270290932802A0932902B09309
:1015E0002A020895282F81E090E0A0E0B0E0022ECA
:1015F00004C0880F991FAA1FBB1F0A94D2F74091FD
:101600002702509128026091290270912A028423B6
:101610009523A623B72304C0B695A79597958795DC
:101620002A95D2F790E00895FC0181E090E002C095
:10163000880F991F6A95E2F72081282B208308954F
:10164000FC0181E090E002C0880F991F6A95E2F7E3
:1016500080952081282320830895FC0181E090E07B
:10166000062E02C0880F991F0A94E2F7208130E00D
:101670008223932302C0959587956A95E2F790E0BF
:101680000895FC01808190E0062E02C09595879513
:101690000A94E2F780FD03C080E090E00895CF0156
:1016A0000E94200B81E090E0089520912702309164
:1016B00028024091290250912A02682FDA01C901BB
:1016C000062E04C0B695A795979587950A94D2F7EC
:1016D00081709070892B19F480E090E0089581E08A
:1016E00090E0A0E0B0E004C0880F991FAA1FBB1FC4
:1016F0006A95D2F780959095A095B0958223932313
:10170000A423B5238093270290932802A093290253
:10171000B0932A0281E090E0089584E393E00E9470
:10172000211508951F920F920FB60F9211242F9337
:101730003F934F935F936F937F938F939F93AF9359
:10174000BF93EF93FF9380912C03882339F08CE2B1
:1017500093E00E9421158093CE0005C08091C900BE
:101760008F7D8093C900FF91EF91BF91AF919F91C1
:101770008F917F916F915F914F913F912F910F903A
:101780000FBE0F901F901895682F8CE293E00E9477
:10179000FD14E9ECF0E090819062908390E0089570
:1017A000CF93DF93EC0108C00E94C40B882319F487
:1017B00080E090E006C0219688818823A9F781E027
:1017C00090E0DF91CF910895982F80912C0380387D
:1017D000E1F3892F0E94C40B08951092CD0088E098
:1017E0008093CC008BE00E94F20A882311F088E9F4
:1017F00001C088E88093C90080EC8093C80040E86D
:101800006CE272E08CE293E00E94F31440E86CEA30
:1018100072E084E393E00E94F31408951F920F9204
:101820000FB60F9211241F932F933F934F935F9303
:101830006F937F938F939F93AF93BF93EF93FF9398
:101840001091CE0064E084E00E94690C1B31C1F469
:1018500080912B028F5F80932B02833099F482E07A
:101860000E94910AF894A89588E190E02CE00FB6C8
:10187000F894A895809360000FBE20936000FFCF7E
:1018800010922B02612F84E393E00E94FD148823C1
:1018900019F485E00E94AE0AFF91EF91BF91AF91DC
:1018A0009F918F917F916F915F914F913F912F9178
:1018B0001F910F900FBE0F901F90189580913C03C1
:1018C00090913D038070907890933D0380933C030A
:1018D0000895823019F1833030F4882351F081303B
:1018E00009F04CC00EC0833039F1843009F046C095
:1018F00034C0262F30E080913C0390913D03887FD7
:1019000025C0262F30E053E0220F331F5A95E1F710
:1019100080913C0390913D03877C18C0262F30E0D6
:1019200046E0220F331F4A95E1F780913C039091E6
:101930003D038F739E7F0AC0262F30E0322F22276F
:10194000330F80913C0390913D03917F282B392BDD
:1019500030933D0320933C030895262F30E0322F2F
:1019600022273295307F80913C0390913D039F78F0
:10197000282B392B30933D0320933C03089580910D
:101980003C0390913D03089580913C0390913D0369
:101990008050904890933D0380933C03089580913C
:1019A0003C0390913D038827990F881F992708953C
:1019B0008EE195E00E94001783E00E94550B88237A
:1019C000D9F361E080E00E94690C89E195E00E9412
:1019D000001783E00E94550B8823D9F361E081E072
:1019E0000E94690C82E195E00E94001783E00E944A
:1019F000550B8823D9F361E082E00E94690C89E0ED
:101A000095E00E94001783E00E94550B8823D9F3CC
:101A100061E083E00E94690C81E095E00E9400177C
:101A200083E00E94550B8823D9F361E084E00E9493
:101A3000690C88EF94E00E94001783E00E94550B28
:101A40008823D9F3089583B38F6183BB80913C03CE
:101A500090913D038070907890933D0380933C0378
:101A600008958AEF90E0909389008093880084EC39
:101A700099E090938B0080938A0088EA91E6909396
:101A80008D0080938C008FE080936F0083E08093C3
:101A900081000895809147038F3719F08F5F8093FD
:101AA00047030895809146038F3719F08F5F809325
:101AB000460308958091470382381CF0815080933B
:101AC000470308958091460382381CF0815080932B
:101AD00046030895882319F0813041F403C08091B2
:101AE000430302C0809145038093440380914403E3
:101AF000992787FD90950895882329F0813041F03A
:101B000080E090E0089580913E0390913F03089516
:101B1000809140039091410308951F93182F8230C4
:101B200018F0823081F40AC0612F82E493E00E94B1
:101B3000200B812F895F0E94CE0A05C080E00E94A1
:101B40008D0D11E0F1CF1F9108951F93CF93DF9377
:101B5000182FEB01E12FF0E0123018F01230B9F439
:101B600010C0EE0FFF1FE25CFC4FD183C083612FDA
:101B700082E493E00E94140B812F895F0E94CE0AB9
:101B800006C0BE0180E00E94A50D11E0E3CFDF9109
:101B9000CF911F9108951F920F920FB60F921124AB
:101BA0002F933F934F935F936F937F938F939F9365
:101BB000AF93BF93EF93FF93809184009091850042
:101BC0008C53964F90938B0080938A0081E00E9403
:101BD000AE0AFF91EF91BF91AF919F918F917F914D
:101BE0006F915F914F913F912F910F900FBE0F908A
:101BF0001F9018951F920F920FB60F9211242F93DA
:101C00003F934F935F936F937F938F939F93AF9384
:101C1000BF93EF93FF93809184009091850086504D
:101C20009F4F909389008093880080E00E94AE0AC5
:101C3000FF91EF91BF91AF919F918F917F916F91A4
:101C40005F914F913F912F910F900FBE0F901F907A
:101C500018951F920F920FB60F9211240F931F9396
:101C60002F933F934F935F936F937F938F939F93A4
:101C7000AF93BF93CF93DF93EF93FF9383E00E94E3
:101C8000AE0A0E94C40CC0E0D0E000E010E00E9468
:101C9000BF0C27E030E0002E02C0220F331F0A9451
:101CA000E2F728233923002E02C0369527950A949F
:101CB000E2F72230310569F12330310540F4211576
:101CC000310581F02130310509F058C016C02430AB
:101CD000310579F12430310500F12530310509F065
:101CE0004DC039C024B381E090E00C2E02C0880FB3
:101CF000991F0A94E2F7282B1AC094B30C2E02C045
:101D0000220F331F0A94E2F7822F8095892384BB28
:101D100035C00E94CF0C882389F124B381E090E084
:101D20000C2E02C0880F991F0A94E2F7282724BBC3
:101D300025C00E94CF0C882309F524B381E090E0F0
:101D40000C2E02C0880F991F0A94E2F78095822317
:101D500084BB65E010C00E94CF0C882379F024B3C7
:101D600081E090E00C2E02C0880F991F0A94E2F7E0
:101D7000282B24BB60E08C2F0E94690C21960D5FFC
:101D80001F4F0F30110509F082CFFF91EF91DF91C6
:101D9000CF91BF91AF919F918F917F916F915F9103
:101DA0004F913F912F911F910F910F900FBE0F9068
:101DB0001F9018951F920F920FB60F9211242F9318
:101DC0003F934F935F936F937F938F939F93AF93C3
:101DD000BF93EF93FF938091840090918500885585
:101DE0009E4990938D0080938C0082E00E94AE0A01
:101DF00060E082E493E00E942D0B8823A1F08091A3
:101E00003E0390913F03009749F487E00E94AE0A99
:101E100060E082E493E00E94200B05C0019790935C
:101E20003F0380933E0361E082E493E00E942D0B28
:101E30008823A1F08091400390914103009749F4D9
:101E400088E00E94AE0A61E082E493E00E94200BE9
:101E500005C001979093410380934003809147030D
:101E60008093430380914603809345031092470378
:101E700010924603FF91EF91BF91AF919F918F9187
:101E80007F916F915F914F913F912F910F900FBE76
:101E90000F901F9018958DB18F708DB98EB1806F96
:101EA0008EB985E580936A0080EF8DBB0895882305
:101EB00019F0813071F405C0809150039091510365
:101EC00004C08091520390915303909355038093E3
:101ED0005403809154039091550308959FB79093B4
:101EE0004803F894813071F0813018F0823071F439
:101EF00005C0109251031092500308C01092510374
:101F00001092500310925303109252039FBF0895F2
:101F100080914E0390914F0308952FB7209348036B
:101F2000F89490934F0380934E032FBF08958FB77B
:101F300080934803F89410924F0310924E038FBF82
:101F400008952FB720934803F894FC01A6E5B3E069
:101F500086E00D9001928150E1F72FBF08958FB771
:101F600080934803F89410925703109256031092EE
:101F700059031092580310925B0310925A038FBFBB
:101F800008951F93182F8FB780934803F894123049
:101F900018F0123089F40AC0612F89E493E00E949E
:101FA000200B812F875F0E94CE0A06C080E00E942E
:101FB000C10F81E00E94C10F809148038FBF1F9124
:101FC00008951F93CF93DF93182FEB018FB7809362
:101FD0004803F894123018F01230D1F412C0E12FF7
:101FE000F0E0EE0FFF1FE65BFC4F71836083612F13
:101FF00089E493E00E94140B812F875F0E94CE0A30
:1020000007C080E00E94E10FBE0181E00E94E10F65
:10201000809148038FBFDF91CF911F9108951F9248
:102020000F920FB60F9211242F933F934F935F930C
:102030006F937F938F939F93AF93BF93EF93FF9390
:102040008CB190E0807C907080349105A1F1813456
:1020500091051CF4892B41F054C08038910559F149
:10206000803C910509F04DC080915203909153033B
:10207000019690935303809352038091580390915B
:1020800059030196909359038093580380914E030E
:1020900090914F03019790934F0380934E0380914B
:1020A0005A0390915B03019790935B0380935A03CB
:1020B0000E94520D26C080915203909153030197C4
:1020C0009093530380935203809158039091590346
:1020D0000197909359038093580380914E039091F8
:1020E0004F03019690934F0380934E0380915A03C0
:1020F00090915B03019690935B0380935A030E9437
:10210000620D61E089E493E00E942D0B882399F031
:10211000209152033091530380914C0390914D03D1
:102120002817390741F48AE00E94AE0A61E089E489
:1021300093E00E94200BFF91EF91BF91AF919F918F
:102140008F917F916F915F914F913F912F910F9060
:102150000FBE0F901F9018951F920F920FB60F92FF
:1021600011242F933F934F935F936F937F938F939C
:102170009F93AF93BF93EF93FF938CB190E0807CDC
:10218000907080349105A1F1813491051CF4892B64
:1021900041F054C08038910559F1803C910509F017
:1021A0004DC0809152039091530301979093530334
:1021B0008093520380915803909159030197909313
:1021C00059038093580380914E0390914F030196D9
:1021D00090934F0380934E0380915A0390915B0339
:1021E000019690935B0380935A030E94620D26C070
:1021F00080915203909153030196909353038093DF
:10220000520380915803909159030196909359037A
:102210008093580380914E0390914F0301979093C0
:102220004F0380934E0380915A0390915B03019773
:1022300090935B0380935A030E94520D61E089E4FE
:1022400093E00E942D0B882399F020915203309146
:10225000530380914C0390914D032817390741F4A3
:102260008AE00E94AE0A61E089E493E00E94200BBC
:10227000FF91EF91BF91AF919F918F917F916F915E
:102280005F914F913F912F910F900FBE0F901F9034
:1022900018951F920F920FB60F9211242F933F9310
:1022A0004F935F936F937F938F939F93AF93BF935E
:1022B000EF93FF938CB190E0807390708031910523
:1022C00099F1813191051CF4892B39F053C080328A
:1022D000910551F1C09709F04DC080915003909144
:1022E00051030197909351038093500380915603BB
:1022F00090915703019790935703809356038091D1
:102300004E0390914F03019790934F0380934E0398
:1023100080915A0390915B03019790935B038093A4
:102320005A030E945A0D26C0809150039091510388
:10233000019690935103809350038091560390919E
:1023400057030196909357038093560380914E0351
:1023500090914F03019690934F0380934E03809189
:102360005A0390915B03019690935B0380935A0309
:102370000E944A0D60E089E493E00E942D0B8823BF
:1023800099F0209150033091510380914A0390912C
:102390004B032817390741F489E00E94AE0A60E038
:1023A00089E493E00E94200BFF91EF91BF91AF91E0
:1023B0009F918F917F916F915F914F913F912F915D
:1023C0000F900FBE0F901F9018951F920F920FB68F
:1023D0000F9211242F933F934F935F936F937F93AB
:1023E0008F939F93AF93BF93EF93FF938CB190E044
:1023F000807390708031910599F1813191051CF4C1
:10240000892B39F053C08032910551F1C09709F002
:102410004DC08091500390915103019690935103C8
:1024200080935003809156039091570301969093A7
:1024300057038093560380914E0390914F0301966A
:1024400090934F0380934E0380915A0390915B03C6
:10245000019690935B0380935A030E944A0D26C015
:102460008091500390915103019790935103809371
:10247000500380915603909157030197909357030F
:102480008093560380914E0390914F030197909350
:102490004F0380934E0380915A0390915B03019701
:1024A00090935B0380935A030E945A0D60E089E485
:1024B00093E00E942D0B882399F0209150033091D6
:1024C000510380914A0390914B032817390741F437
:1024D00089E00E94AE0A60E089E493E00E94200B4C
:1024E000FF91EF91BF91AF919F918F917F916F91EC
:1024F0005F914F913F912F910F900FBE0F901F90C2
:1025000018958A9A00C08A980895CF93DF9366231E
:1025100011F0889A01C088988998849A859A869A39
:10252000879A8F988E988D988C9887FD8F9AC82F50
:1025300086FD8E9AC5FD8D9AC4FD8C9A0E948112EB
:102540008F988E988D988C98C3FD8F9AC2FD8E9A25
:10255000C1FD8D9AC0FD8C9A0E9481128C9A8D9A31
:102560008E9A8F9ADF91CF910895882311F0889ADF
:1025700001C08898899A84988598869887988A9ABD
:1025800000C07C9B02C080E101C080E07D99806238
:102590007E9980647F9980688A9800C08A9A00C07A
:1025A0007C9981607D9982607E9984607F99886042
:1025B0008A9890E0089580E00E94B51287FDFBCFD5
:1025C00088E090E00197F1F780E00E94B51290E07A
:1025D00008951F93182F0E94DB1260E0812F0E9444
:1025E00085121F9108951F93182F0E94DB1261E03E
:1025F000812F0E9485121F910895662311F480583F
:1026000009C0613011F4805405C0623011F48C5659
:1026100001C08C520E94E91208950E94DB1290E0E2
:10262000089581E00E94E912089582E00E94E91273
:1026300008951F93182F0E94DB12982F1A3099F4D7
:10264000843110F480E40BC08054843110F484E1B0
:1026500006C094519C3210F484E501C080E080589B
:102660000E94E91204C061E0812F0E9485121F912F
:102670000895CF93DF93EC0102C00E941913899152
:102680008823D9F7DF91CF910895CF93DF93EC01A1
:1026900002C00E941913FE01219684918823C9F774
:1026A000DF91CF910895FF920F931F93F82E809A98
:1026B000819A829A849A859A869A879A80E09AEF7C
:1026C0000197F1F78D9A8C9A0E94811280E09EE426
:1026D0000197F1F70E94811200E011E0C801019713
:1026E000F1F70E948112C8010197F1F78C980E94BE
:1026F0008112C8010197F1F788E20E94E91288E08F
:102700000E94E9120E94111386E00E94E9128F2DA7
:102710000E94E9121F910F91FF900895CF92DF92CE
:10272000EF92FF920F931F93CF93DF93E82E6B01ED
:10273000EA018BE1E81609F450C088818230A1F1EA
:10274000833030F4882359F0813009F0C8C017C0B5
:10275000833009F445C0843009F0C1C05DC0FB017D
:10276000A3E0B2E08DE00D9001928150E1F786E0A8
:102770000E94CE0AEEE3EE1689F581E0A7C0FEE3E3
:10278000EF1609F4ACC08E2D90E00E94F81C892B46
:1027900009F4A5C0F6018385E80FF11DE0828F5F83
:1027A000F601838782E092C0FDE0EF1609F490C045
:1027B0008CE2E81609F489C08E2D90E00E94F81C86
:1027C000892B59F0F6018385833038F4E80FF11D29
:1027D000E0828F5FF601838782C018828FEF80C00E
:1027E0008E2D90E0C0970A9740F48981FA01E80F96
:1027F000F11DE2828F5F89830DC0FDE0EF1609F4C1
:102800006DC08DE2E81609F06AC060E0CA01089662
:102810000E94140B84E05AC08E2D90E0C0970A9756
:1028200058F48981853008F05AC0FA01E80FF11D8B
:10283000E2828F5F898353C0EDE0EE1621F0FCE267
:10284000EF1609F04CC08981FE01E80FF11D1282DC
:10285000882309F443C0F601F4840F2D10E0000F23
:10286000111F0C0D1D1DCE0102960E942F1CF80198
:1028700094838383F394F601F4868E01085F1F4FDF
:1028800060E0C8010E942D0B882381F0F601848549
:10289000E82FF0E03197EE0FFF1FEC0DFD1D838157
:1028A0009481909581959F4F9483838360E0C801C4
:1028B0000E94200B1982FDE0EF1651F08CE2E81621
:1028C00071F4F6018485843048F483E0888307C07E
:1028D000188286E00E94AE0A81E002C0188280E081
:1028E000992787FD9095DF91CF911F910F91FF90D0
:1028F000EF90DF90CF900895CF92DF92EF92FF920A
:102900000F931F93CF93DF93CDB7DEB729970FB601
:10291000F894DEBF0FBECDBF8C017B0119821A82F5
:102920001B8219866E010894C11CD11C03C0B7011B
:102930000E948E13F80181918F01A6018823B9F7B7
:10294000B7018DE00E948E13992787FD90952996F7
:102950000FB6F894DEBF0FBECDBFDF91CF911F91B0
:102960000F91FF90EF90DF90CF900895CF92DF927C
:10297000EF92FF920F931F93CF93DF93CDB7DEB704
:1029800029970FB6F894DEBF0FBECDBF7C016B0157
:1029900019821A821B8219868E010F5F1F4FA801B0
:1029A0008EE301C0B6010E948E13F7010894E11C6A
:1029B000F11C8491A8018823A9F7B6018DE00E943B
:1029C0008E13992787FD909529960FB6F894DEBF50
:1029D0000FBECDBFDF91CF911F910F91FF90EF9070
:1029E000DF90CF900895FC01108275836483738318
:1029F00062834183478346830895CF93DF93DC014D
:102A00009C91ED018981981718F080E090E016C044
:102A1000ED01EC81FD8161938F81815019F48981F1
:102A2000E81BF109ED018F83FD83EC839FB7F894D8
:102A30008C918F5F8C939FBF81E090E0DF91CF916D
:102A40000895CF93DF93DC018C91882319F48FEFE5
:102A50009FEF16C0ED01EA81FB8121918E818150AB
:102A600019F48981E81BF109ED01FB83EA838E8368
:102A70009FB7F8948C9181508C939FBF822F90E0E8
:102A8000DF91CF9108950F931F93F8019783868369
:102A90007187608753874287118210821382128266
:102AA000358324831F910F910895EF92FF920F9326
:102AB0001F93FA01A82FB0E0A61BB70B8281938168
:102AC0008A0F9B1F938382832481358128173907BE
:102AD0001CF43383228304C097FF02C01382128246
:102AE00086819781A89FB001A99F700DB89F700D36
:102AF00011244281538120853185429F7001439F7B
:102B0000F00C529FF00C11240027F7FC0095102FB9
:102B100020813181AD01421B530B22853385C901D0
:102B2000489F9001499F300D589F300D1124B1836B
:102B3000A083882777FD8095982F6E0D7F1D801FBD
:102B4000911F442737FD4095542F620F731F841F38
:102B5000951F24E630E040E050E00E94A51C20389C
:102B60003105410551052CF02FE730E040E050E001
:102B700006C057FF04C020E030E040E050E0822F64
:102B800090E01F910F91FF90EF900895823018F020
:102B90008230C1F40FC090E0FC01EE0FFF1FE80F80
:102BA000F91FEE0FFF1FEE0FFF1FE35AFC4F738359
:102BB000628308957093600360935F0370936C0366
:102BC00060936B030895DF92EF92FF920F931F9330
:102BD000CF93DF93D62E813049F1813020F08230BF
:102BE00009F0C8C03EC016166CF480E00E946A0D61
:102BF000992787FD90954DE553E0BC018D2D0E94EE
:102C0000551511C080E00E946A0D992787FD9095A7
:102C1000909581959F4F4DE553E0BC018D2D819599
:102C20000E9455158195682F80E0A2C0161654F4B5
:102C300081E00E946A0D992787FD909549E653E04F
:102C4000BC0160C081E00E946A0D992787FD9095C4
:102C5000909581959F4F49E653E0BC018D2D81955C
:102C600082C080E00E946A0DE82EFF24E7FCF09409
:102C700081E00E946A0D082F112707FD10950E9420
:102C8000880FEC0180FF11C060E08CE593E00E94AA
:102C9000410B882319F0EC0EFD1E07C060E08CE5A7
:102CA00093E00E94140B0C1B1D0BCE0162E070E040
:102CB0000E94921CC701860F971F9801261B370B95
:102CC0001D1424F5BC018038910514F06FE770E005
:102CD000E9012038310514F0CFE7D0E077FF02C0DA
:102CE00060E070E04DE553E08D2D0E945515682F92
:102CF00080E00E946A0ABE01D7FF02C060E070E077
:102D000049E653E08D2D0E94551530C0BC011816C0
:102D1000190614F460E070E0E9011216130614F4C9
:102D2000C0E0D0E01D2D11958FEF6138780714F4C5
:102D300061E87FEF709561957F4F4DE553E0812FFE
:102D40000E9455158195682F80E00E946A0ABE0195
:102D5000C158DF4F14F461E87FEF709561957F4FA4
:102D600049E653E0812F0E9455158195682F81E037
:102D70000E946A0ADF91CF911F910F91FF90EF900F
:102D8000DF900895AF92BF92CF92DF92EF92FF92C1
:102D90000F931F93CF93DF935B016A017901E801E1
:102DA000823018F0823099F40DC00CE0809F8001D1
:102DB0001124035A1C4F9E01A701B601C5010E94B0
:102DC000431505C080E00E94C21681E0EECFDF917E
:102DD000CF911F910F91FF90EF90DF90CF90BF9018
:102DE000AF900895CF93DF93EC018DE00E94F20A3B
:102DF000882319F088810E94E40BDF91CF91089518
:102E0000EF92FF920F931F93CF93DF93CDB7DEB76F
:102E100021970FB6F894DEBF0FBECDBF8C017E01A7
:102E20000894E11CF11C04C08983C7010E94F216BA
:102E3000F8010F5F1F4F84918823B1F721960FB6D9
:102E4000F894DEBF0FBECDBFDF91CF911F910F91E0
:102E5000FF90EF90089587E395E00E940017089592
:102E60001F93182F8DE00E94F20A882319F0812FFA
:102E70000E94E40B1F910895CF93DF93EC0102C0F1
:102E80000E94301789918823D9F7DF91CF91089557
:102E90008BE10E94301708950E94481783E60E9434
:102EA000301708950F931F938C010E9448178BE5EC
:102EB0000E943017C8010E943C171F910F9108957E
:102EC00080E192E00E9452170895EF92FF920F93D3
:102ED0001F93CF93DF93EC01FB848EE30E943017A6
:102EE00000E010E0FE01E00FF11D80810E9430172C
:102EF0000F5F1F4F0F15B0F30C850023B1F010E0EA
:102F000085E7E82E83E0F82E8CE20E9430171F5FE1
:102F10004AE050E0B7018B819C810E944D1CC701A3
:102F20000E943C172296101779F70E9460170E94A2
:102F30002B17DF91CF911F910F91FF90EF90089584
:102F4000EF92FF920F931F938C01CB0125E7E22EA6
:102F500023E0F22E4AE050E0B7010E944D1CC80168
:102F60000E940017C7010E943C170E9460170E9430
:102F70002B171F910F91FF90EF9008950F931F93C0
:102F800005E713E04AE050E0B80190E00E944D1CD4
:102F9000C8010E94521781E40E9430171F910F91BF
:102FA0000895FF920F931F93F82E862F05E713E0E5
:102FB0004AE050E0B80190E00E944D1CC8010E9418
:102FC00052178BE30E9430174AE050E0B8018F2D72
:102FD00090E00E944D1CC8010E943C1788E40E94AA
:102FE00030171F910F91FF90089582E192E00E94A7
:102FF0005217089582E893E045E152E0DC01FA01BE
:103000002DE001900D922150E1F70D9628E08938CE
:103010009207A1F71092800310927F031092810310
:1030200008951092800310927F03109281030895F7
:10303000BC0140918103443619F48FEF9FEF08954E
:1030400050917F03252F30E08DE090E0289FF00124
:10305000299FF00D389FF00D1124EE57FC4FDB0136
:103060008DE00D9001928150E1F74F5F4093810315
:10307000852F8F5F64E60E94861C90937F0381E01A
:1030800090E00895AC0180918103882319F48FEFBB
:103090009FEF08958091800390E02DE030E0829FC3
:1030A000F001839FF00D929FF00D1124DA01EE578D
:1030B000FC4F8DE001900D928150E1F781E090E0AE
:1030C000089540918103442319F48FEF9FEF0895F1
:1030D00050918003252F30E08DE090E0289FF00193
:1030E000299FF00D389FF00D1124EE57FC4FA5E1FC
:1030F000B2E08DE00D9001928150E1F74150409394
:103100008103852F8F5F64E60E94861C9093800365
:1031100081E090E008958091810390E0089580918E
:10312000800390E0089580917F0390E00895AB01C3
:1031300064E60E94861C292F30E08DE090E0289FF5
:10314000F001299FF00D389FF00D1124DA01EE57A0
:10315000FC4F8DE001900D928150E1F70895EF92C0
:10316000FF921F93CF93DF93CDB7DEB72D970FB6A6
:10317000F894DEBF0FBECDBF7E010894E11CF11CA8
:10318000B7010E947C14182F813019F4C7010E94E6
:103190001818812F992787FD90952D960FB6F894D2
:1031A000DEBF0FBECDBFDF91CF911F91FF90EF909B
:1031B0000895EF92FF921F93CF93DF93CDB7DEB7C1
:1031C0002D970FB6F894DEBF0FBECDBF7E010894D9
:1031D000E11CF11CB7010E94B614182F813019F4BC
:1031E000C7010E941818812F992787FD90952D9669
:1031F0000FB6F894DEBF0FBECDBFDF91CF911F9108
:10320000FF90EF90089584ED98E00E9421150895B5
:103210008CEC98E00E94211508954AE068EB78E074
:103220008CEC98E00E94F31408958CE00E94F20A5E
:103230008823A1F084E58093BA0085E48093BC00E4
:103240004AE068EB78E08CEC98E00E94F3144AE0E6
:1032500062EC78E084ED98E00E94F3140895CF9337
:10326000DF93CDB7DEB76E970FB6F894DEBF0FBE13
:10327000CDBFE82FF0E0E231F10540F4EA59FF4F0D
:10328000EE0FFF1F0590F491E02D19948FEF63C0AE
:10329000CE0107960E94261C8C855DC0CE01079644
:1032A0000E94261C8B8557C0CE0107960E94261CC3
:1032B0008E8551C0CE0107960E94261C8D854BC07D
:1032C000CE0107960E94261C898545C0CE0107962F
:1032D0000E94261C8A853FC0CE0107960E94261CAC
:1032E000888939C0CE0107960E94261C8F8533C07D
:1032F000CE0107960E94261C8F812DC0CE01079615
:103300000E94261C888527C00E948B1824C0CE01ED
:1033100001960E94A10F8A811EC0CE0101960E94D3
:10332000A10F898117C0CE0101960E94A10F8C8147
:1033300012C0CE0101960E94A10F8B810BC0CE015D
:1033400001960E94A10F8E8106C0CE0101960E94B7
:10335000A10F8D81807F90E06E960FB6F894DEBF4E
:103360000FBECDBFDF91CF910895CF93DF93EC01D6
:10337000662321F0613009F07BC009C01092B708C4
:103380001092AD081092AC081092AB0871C08091F9
:10339000B708813009F1813030F08230A1F18330FB
:1033A00009F066C048C02B85222309F461C09091C2
:1033B000AC08E92FF0E0DE01AE0FBF1F8C91E355A2
:1033C000F74F80839F5F9217A0F31092AC0881E0C3
:1033D0008093B708EEE34DC04091AC08842F90E095
:1033E0002B8530E0FC01E355F74F019682179307D8
:1033F00029F4E0818C85882369F130C0E0814F5F3A
:103400004093AC0836C02091AB08E22FF0E0EE0FFD
:10341000FF1FEC0FFD1F838194812F5F2093AB086A
:103420004AE050E06DEA78E00E944D1C83E0809312
:10343000B708ECE21EC02091AC08E22FF0E0E355A3
:10344000F74F8181E081882379F49091AB088C85D6
:10345000981720F08FEF8093B7080BC082E080931D
:10346000B7081092AC0805C02F5F2093AC0801C0CC
:10347000E0E08E2F90E0DF91CF910895882371F0E6
:10348000813009F041C01092AA080E948F188093E1
:10349000A9080E948B188093A80836C08091AA08BA
:1034A000882319F0813081F520C08091A8088823F5
:1034B00059F181508093A80860E08BE998E00E9460
:1034C000B5198091A9088F5F8093A90881506BE995
:1034D00078E00E94971861E08BE998E00E94B519A6
:1034E000982F81E08093AA0810C061E08BE998E0F2
:1034F0000E94B519982F882341F48091A808811162
:103500009DE01092AA0801C090E0892F90E00895F4
:103510001F920F920FB60F9211241F932F933F9378
:103520004F935F936F937F938F939F93AF93BF93CB
:10353000EF93FF9364E084E00E94690C1091B9005E
:10354000187F612F84ED98E00E94FD14103A09F471
:1035500014C1113A40F41036B1F01038D1F01123F3
:1035600009F414C11AC1183B09F4D4C0193B20F462
:10357000183A09F012C199C0103C09F4FCC0183C7B
:1035800009F00BC1F8C0109296088091BC008F7EA4
:10359000F7C01091BB008091BC008F7E8093BC006F
:1035A0008091BC0080648093BC008091960881303B
:1035B00009F453C0813020F0823009F0EEC054C0CD
:1035C000123FA1F0133F28F4103F51F0113F91F545
:1035D0000BC01E3FC9F01F3FE0F4133F59F50AC06E
:1035E00081E080939608D9C082E001C081E0809399
:1035F0009708D3C082E0809396088EE380935B099E
:1036000010925C0981E04EC01092970810929608C3
:10361000C1C0F89482E00E94910AA89588E190E0E8
:103620002CE00FB6F894A895809360000FBE20930D
:103630006000FFCF812F90E00E94F81C892B09F4D5
:10364000ACC0612F8CEC98E00E94FD14882309F037
:10365000A4C08091BC008F7B5AC010939A0810922E
:1036600096081092970899C0112369F4E091980880
:10367000F0E0E55AF64F10828BE599E00E94AF1812
:10368000109296088AC0812F90E00E94F81C892B26
:1036900009F483C080919808E82FF0E0E55AF64FCE
:1036A00010838F5F8093980878C08091970881304D
:1036B00029F08130C0F1823039F507C081E00E94E5
:1036C0003E1A80E00E943E1A0EC08CED98E00E94E7
:1036D000261C60E086EE98E00E94B51961E086EE57
:1036E00098E00E94B519809399088093BB008823C5
:1036F00031F48EEE809399088093BB0036C08091A0
:10370000BC0080648093BC008091BC008F7C80935F
:10371000BC0043C080919708813091F0813018F04F
:10372000823091F717C080919A088F5F80939A0832
:1037300081500E942F19809399088093BB00DFCF9E
:1037400080E00E943E1A809399088093BB008823F2
:10375000D9F60BC061E086EE98E00E94B51980931F
:1037600099088093BB00882351F6109297088091A6
:10377000BC008F7BC7CF109297088091BC008F7CD4
:103780008093BC008091BC008064C1CF10929608E9
:103790001092970880E10E94AE0A8091BC00806878
:1037A0008093BC00FF91EF91BF91AF919F918F915A
:1037B0007F916F915F914F913F912F911F910F904A
:1037C0000FBE0F901F9018958AB18F708AB98BB178
:1037D000806F8BB9089529B1482F81E090E0042EC5
:1037E00002C0880F991F0A94E2F730E020953095C7
:1037F00054E0359527955A95E1F78223932302C02B
:10380000959587954A95E2F790E00895A8E8B9E084
:10381000FC0188E101900D928150E1F7089510922A
:1038200088091092890910928A0910928B091092C6
:103830008D0910928C0910928F0910928E091092A6
:1038400091091092900910929F090895FC01A8E82F
:10385000B9E088E10D9001928150E1F70895FC01F3
:1038600088279927E89421912032E9F3293010F034
:103870002E30C8F32B3241F02D3239F4689404C055
:103880000E946E1C820F911D219120532A30C0F39B
:103890001EF4909581959F4F0895FB019F01E89438
:1038A0004230C4F04532B4F44A3029F497FB1EF498
:1038B000909581959F4F642F77270E94C01C805D53
:1038C0008A330CF0895D8193CB010097A1F716F440
:1038D0005DE251931082C9010C94761C7AE0979FA7
:1038E000902D879F802D910D11240895DC01FC01FE
:1038F000672F71917723E1F7329704C07C916D9324
:1039000070836291AE17BF07C8F30895991B79E0E1
:1039100004C0991F961708F0961B881F7A95C9F75F
:103920008095089597FB092E07260AD077FD04D0CD
:1039300027D006D000201AF4709561957F4F089526
:10394000F6F7909581959F4F089597FB092E0526D0
:103950000ED057FD04D028D00AD0001C38F4509562
:103960004095309521953F4F4F4F5F4F0895F6F7A3
:1039700090958095709561957F4F8F4F9F4F0895DB
:10398000AA1BBB1B51E107C0AA1FBB1FA617B70785
:1039900010F0A61BB70B881F991F5A95A9F78095A1
:1039A0009095BC01CD010895A1E21A2EAA1BBB1B64
:1039B000FD010DC0AA1FBB1FEE1FFF1FA217B307FB
:1039C000E407F50720F0A21BB30BE40BF50B661F11
:1039D000771F881F991F1A9469F7609570958095D5
:1039E00090959B01AC01BD01CF010895803209F093
:1039F000911104C080528F55E0F7089599278827C8
:043A00000895FFCF57
:103A040001010300000000000000000000000000AD
:103A14004B00324A000000000000000000000000DB
:023A24000000A0
:00000001FF
