:100000000C9435010C9456010C9456010C94560135
:100010000C9456010C9467080C94FF070C949607F7
:100020000C942D070C9456010C9456010C94560117
:100030000C9456010C9456010C9456010C945601E4
:100040000C9456010C9456010C9456010C9487069E
:100050000C944B060C9456010C9456010C945601CA
:100060000C9456010C9456010C9456010C945601B4
:100070000C9456010C9456010C9456010C945601A4
:100080000C9456010C9456010C9456010C94560194
:100090000C94AE040C94DB040C9456010C947D0F6C
:1000A0000C9456010C9456010C9456010C94560174
:1000B0000C9456010C9456010C9456010C94560164
:1000C0000C9456010C9456010C9456010A004A54A3
:1000D0004147005761746368646F67200042726F24
:1000E000776E2D4F7574200045787465726E616C63
:1000F0002000506F7765722D4F6E20000A52657395
:100100006574205175656C6C653A0A004449503439
:100110003A204F464620206E6963687420766572E7
:1001200077656E6465740A00444950343A204F4E36
:100130002020206E696368742076657277656E642E
:1001400065740A00444950333A204F464620204CFB
:10015000434420696E616B7469760A0044495033E8
:100160003A204F4E2020204C434420616B74697626
:100170000A00444950323A204F46462020446562E6
:1001800075672D417573676162656E20696E616B7D
:100190007469760A00444950323A204F4E2020209C
:1001A00044656275672D417573676162656E206194
:1001B0006B7469760A00444950313A204F46462014
:1001C00020496E74657266616365203D2055415219
:1001D000540A00444950313A204F4E202020496EA5
:1001E00074657266616365203D205457490A004476
:1001F00049502D536368616C7465722045696E7354
:1002000074656C6C756E67656E3A0A000A2D2D2D4B
:100210002D2D2D2D2D2D2D2D2D2D2D2D2D2D2D2D0E
:100220002D2D2D2D2D2D2D2D2D0A0A004D6F746F86
:1002300072737465756572756E6720007061727394
:10024000652E63203A207061727365725F61646429
:100250005F627974652829203A2042756666657266
:100260002066756C6C0D0A000A0011241FBECFEFCA
:10027000D1E2DEBFCDBF00E00CBF12E0A0E0B2E0F3
:10028000E0E5F9E200E00BBF02C007900D92A03854
:10029000B107D9F716E0A0E8B2E001C01D92AB3F6C
:1002A000B107E1F70E9404030C94A7140C9400001A
:1002B000FB01433088F0982F92959F709A3010F48C
:1002C000905D01C0995A8F7090838A3010F4805DE0
:1002D00001C0895A8183128208958F929F92AF92B2
:1002E000BF92CF92DF92EF92FF920F931F93CF9323
:1002F000DF93CDB7DEB723970FB6F894DEBF0FBEFE
:10030000CDBF7C010E945F09809135029091360239
:100310000E94870961E080E00E944B0980E00E9412
:100320000B10882319F080E092E002C085E092E093
:100330000E94870981E00E940B10882319F08AE04F
:1003400092E002C081E192E00E94870988E192E098
:100350000E9487098DE192E00E9487098FE192E077
:100360000E948709E114F10481F162E080E00E94BB
:100370004B09F70180810E94DF09C82EDD2400E0CF
:1003800010E05E010894A11CB11C81E2882E82E07D
:10039000982E18C0F701E00FF11F43E0B5018081EE
:1003A0000E945801C5010E9487090630110529F4F1
:1003B00063E080E00E944B0903C0C4010E948709EA
:1003C0000F5F1F4F0C151D0529F723960FB6F894E4
:1003D000DEBF0FBECDBFDF91CF911F910F91FF9078
:1003E000EF90DF90CF90BF90AF909F908F90089547
:1003F000CF93DF930E94A90EEC018091820290912D
:1004000083028C179D0739F0CE010E946D01D093B5
:100410008302C0938202DF91CF910895CF93DF933F
:100420000E94A90EEC01009751F00E94CA108F851E
:1004300082FF07C00E94230D0E94DD0E02C00E94B1
:10044000050CDF91CF9108951092810280E00E9407
:100450005F04882329F060E081E892E00E941E0496
:1004600081E00E945F04882329F061E081E892E046
:100470000E941E04089583E00E94D80382E00E9437
:10048000D80384E00E94D80380E00E940B108823E8
:1004900019F082E00E94B80381E00E940B108823CB
:1004A00019F083E00E94B80382E00E940B108823B9
:1004B00019F084E00E94B803089584E00E94FC03D0
:1004C000882321F080E090E00E946D0183E00E948B
:1004D000B8038CE292E00E94400D80913502909129
:1004E00036020E94530D8CE092E00E94400D8FEE88
:1004F00091E00E94400D80E00E940B10882319F0CB
:1005000083ED91E002C086EB91E00E94400D81E016
:100510000E940B10882319F085E991E002C082E760
:1005200091E00E94400D82E00E940B10882319F098
:100530008CE591E002C084E491E00E94400D83E0EC
:100540000E940B10882319F088E291E002C08CE031
:1005500091E00E94400D8CEF90E00E94400D809150
:10056000800280FF04C082EF90E00E94400D8091E5
:10057000800281FF04C088EE90E00E94400D8091CF
:10058000800282FF04C08DED90E00E94400D8091BA
:10059000800283FF04C083ED90E00E94400D8091B3
:1005A000800284FF04C08EEC90E00E94400D8CEC31
:1005B00090E00E94400D0E943B0208950F931F930C
:1005C00078940E9404100E943B028CE00E94A109D2
:1005D0000E948C0E0E942B030E940B060E94531057
:1005E0000E94DD060E94FB0E0E94261004EF11E01F
:1005F0002AE030E044E150E060E570E082E00E94F3
:10060000F30C1F910F91089584B78093800214BE5C
:10061000A89588E10FB6F89480936000109260006E
:100620000FBE0E94DE020E9446100E943B020E9402
:100630005D020E9424020E940E0284E00E94FC03DC
:10064000882311F00E94F8010E94E90A0E94430FDA
:100650000E944610EECF84B18F6084B985B1807F4F
:1006600085B9279A2F989D9AA59881EA84BD83E041
:1006700085BD17BC18BC089518161CF080E090E0EA
:10068000089586321CF48A5D90E00895880F8F5F8C
:1006900090E00895882311F417BC0895992787FDE9
:1006A0009095BC0197FF04C066277727681B790BDC
:1006B000262F70E00E9443148FEF6F3F780731F0D0
:1006C0006130710529F4299A289802C02998289A3E
:1006D000822F0E943C0387BD0895882311F418BC23
:1006E0000895992787FD9095BC0197FF04C0662760
:1006F0007727681B790B262F70E00E9443148FEF39
:100700006F3F780731F06130710529F42B982A9AF0
:1007100002C02B9A2A98822F0E943C0388BD08951C
:100720001F93162F813059F0813018F08230A1F4D8
:1007300009C060938402862F0E944A030DC0609313
:10074000850207C06093840260938502862F0E9411
:100750004A03812F0E946D031F910895E4E8F2E09F
:10076000E80FF11D8081992787FD909508950895E0
:1007700021E030E040E050E004C0220F331F441F6E
:10078000551F8A95D2F78091860290918702A09199
:100790008802B0918902822B932BA42BB52B8093D6
:1007A000860290938702A0938802B09389020895ED
:1007B00021E030E040E050E004C0220F331F441F2E
:1007C000551F8A95D2F72095309540955095809188
:1007D000860290918702A0918802B09189028223BB
:1007E0009323A423B5238093860290938702A0933A
:1007F0008802B09389020895282F81E090E0A0E05C
:10080000B0E0022E04C0880F991FAA1FBB1F0A94D4
:10081000D2F74091860250918702609188027091D0
:10082000890284239523A623B72304C0B695A795F0
:10083000979587952A95D2F790E00895FC0181E07D
:1008400090E002C0880F991F6A95E2F72081282B5B
:1008500020830895FC0181E090E002C0880F991F79
:100860006A95E2F780952081282320830895FC0172
:1008700081E090E0062E02C0880F991F0A94E2F7EB
:10088000208130E08223932302C0959587956A9555
:10089000E2F790E00895FC01808190E0062E02C00E
:1008A000959587950A94E2F780FD03C080E090E07B
:1008B0000895CF010E942A0481E090E008952091DC
:1008C0008602309187024091880250918902682FF8
:1008D000DA01C901062E04C0B695A79597958795AC
:1008E0000A94D2F781709070892B19F480E090E01F
:1008F000089581E090E0A0E0B0E004C0880F991F67
:10090000AA1FBB1F6A95D2F780959095A095B095C8
:1009100082239323A423B523809386029093870296
:10092000A0938802B093890281E090E00895E9ECF9
:10093000F0E080818062808308951092CD0080E194
:100940008093CC0082E00E94FC03882319F488E99C
:100950008093C90080EC8093C80008951F920F9285
:100960000FB60F9211241F932F933F934F935F93D2
:100970006F937F938F939F93AF93BF93EF93FF9367
:100980001091CE0064E084E00E943605812F0E9421
:10099000E00DFF91EF91BF91AF919F918F917F916A
:1009A0006F915F914F913F912F911F910F900FBECB
:1009B0000F901F9018951F920F920FB60F9211244F
:1009C0002F933F934F935F936F937F938F939F9357
:1009D000AF93BF93EF93FF930E94400E882331F4AF
:1009E0000E94470E0E94600E882329F00E94160E76
:1009F0008093CE0005C08091C9008F7D8093C9008F
:100A0000FF91EF91BF91AF919F918F917F916F91E6
:100A10005F914F913F912F910F900FBE0F901F90BC
:100A200018951F93182F82E00E94FC03882329F455
:100A300083E00E94FC03882359F01093CE0080913C
:100A4000C90080628093C9008091C90085FDFCCFF8
:100A50001F91089580918A0290918B028070907806
:100A600090938B0280938A0213BA0895823019F111
:100A7000833030F4882351F0813009F04CC00EC02F
:100A8000833039F1843009F046C034C0262F30E07D
:100A900080918A0290918B02887F25C0262F30E0BA
:100AA00053E0220F331F5A95E1F780918A0290910B
:100AB0008B02877C18C0262F30E046E0220F331FC0
:100AC0004A95E1F780918A0290918B028F739E7F05
:100AD0000AC0262F30E0322F2227330F80918A025E
:100AE00090918B02917F282B392B30938B0220938E
:100AF0008A020895262F30E0322F22273295307F48
:100B000080918A0290918B029F78282B392B309309
:100B10008B0220938A02089580918A0290918B0221
:100B2000089580918A0290918B0280509048909312
:100B30008B0280938A0283BB089580918A029091F0
:100B40008B028827990F881F9927089583B38F6197
:100B500083BB80918A0290918B02807090789093F1
:100B60008B0280938A0213BA089587E392E00E9471
:100B7000400D81E00E945F048823D9F361E080E0AA
:100B80000E94360580E592E00E94400D81E00E94BF
:100B90005F048823D9F361E081E00E94360585E592
:100BA00092E00E94400D81E00E945F048823D9F307
:100BB00061E082E00E9436058CE592E00E94400DE3
:100BC00081E00E945F048823D9F361E083E00E9402
:100BD000360585E692E00E94400D81E00E945F04A8
:100BE0008823D9F361E084E00E9436058DE692E027
:100BF0000E94400D81E00E945F048823D9F3809118
:100C00008A0290918B028070907890938B028093EF
:100C10008A0213BA089588EA91E690938D00809332
:100C20008C0089E080936F0083E0809381000895B9
:100C3000809196028F3719F08F5F80939602089506
:100C4000809195028F3719F08F5F809395020895F8
:100C50008091960282381CF081508093960208950C
:100C60008091950282381CF08150809395020895FE
:100C7000882329F0813049F080E090E00895809148
:100C80009302992787FD9095089580919402992762
:100C900087FD909508951F920F920FB60F92112421
:100CA0002F933F934F935F936F937F938F939F9374
:100CB000AF93BF93EF93FF9381E00E94B8034091FD
:100CC00092024B3098F0842F6AE00E9437142091F2
:100CD000900230919102280F311D309391022093A0
:100CE0009002842F0E94371490939202FF91EF910B
:100CF000BF91AF919F918F917F916F915F914F9134
:100D00003F912F910F900FBE0F901F9018951F923B
:100D10000F920FB60F9211242F933F934F935F932F
:100D20006F937F938F939F93AF93BF93EF93FF93B3
:100D3000809184009091850088559E4990938D0004
:100D400080938C0080E00E94B80380918C02909187
:100D50008D02009729F0019790938D0280938C0269
:100D600080918E0290918F02009729F001979093C5
:100D70008F0280938E0280919602809393028091DD
:100D8000950280939402109296021092950280919F
:100D900092028F5F80939202FF91EF91BF91AF918A
:100DA0009F918F917F916F915F914F913F912F9183
:100DB0000F900FBE0F901F9018958DB18F708DB949
:100DC0008EB1806F8EB985E580936A0080EF8DBB10
:100DD0000895882329F0813041F080E090E0089563
:100DE0008091970290919802089580919902909134
:100DF0009A0208959FB790939F02F894813071F002
:100E0000813018F0823071F405C01092980210926F
:100E1000970208C0109298021092970210929A02BC
:100E2000109299029FBF08958091A0029091A10213
:100E300008952FB720939F02F8949093A102809376
:100E4000A0022FBF08958FB780939F02F89410924D
:100E5000A1021092A0028FBF08951F920F920FB6A9
:100E60000F9211242F933F934F935F936F937F9330
:100E70008F939F93AF93BF93EF93FF938CB190E0C9
:100E8000807C90708034910509F1813491051CF4C7
:100E9000892B39F02FC080389105C1F0803C910535
:100EA00049F58091990290919A02019690939A0245
:100EB000809399028091A0029091A1020197909352
:100EC000A1028093A0020E94200614C08091990282
:100ED00090919A02019790939A028093990280913F
:100EE000A0029091A10201969093A1028093A0028A
:100EF0000E94300680919D0290919E02009729F0F9
:100F0000019790939E0280939D02FF91EF91BF9174
:100F1000AF919F918F917F916F915F914F913F9191
:100F20002F910F900FBE0F901F9018951F920F9248
:100F30000FB60F9211242F933F934F935F936F93AC
:100F40007F938F939F93AF93BF93EF93FF938CB156
:100F500090E0807C90708034910509F18134910596
:100F60001CF4892B39F02FC080389105C1F0803CEA
:100F7000910549F58091990290919A020197909379
:100F80009A02809399028091A0029091A102019609
:100F90009093A1028093A0020E94300614C0809119
:100FA000990290919A02019690939A0280939902E5
:100FB0008091A0029091A10201979093A102809349
:100FC000A0020E94200680919D0290919E020097AF
:100FD00029F0019790939E0280939D02FF91EF91DB
:100FE000BF91AF919F918F917F916F915F914F9141
:100FF0003F912F910F900FBE0F901F9018951F9249
:101000000F920FB60F9211242F933F934F935F933C
:101010006F937F938F939F93AF93BF93EF93FF93C0
:101020008CB190E0807390708031910501F1813135
:1010300091051CF4892B31F02EC080329105B9F056
:10104000C09749F5809197029091980201979093EB
:101050009802809397028091A0029091A10201973B
:101060009093A1028093A0020E94280614C0809150
:10107000970290919802019690939802809397021C
:101080008091A0029091A10201969093A102809379
:10109000A0020E94180680919B0290919C020097EA
:1010A00029F0019790939C0280939B02FF91EF910E
:1010B000BF91AF919F918F917F916F915F914F9170
:1010C0003F912F910F900FBE0F901F9018951F9278
:1010D0000F920FB60F9211242F933F934F935F936C
:1010E0006F937F938F939F93AF93BF93EF93FF93F0
:1010F0008CB190E0807390708031910501F1813165
:1011000091051CF4892B31F02EC080329105B9F085
:10111000C09749F58091970290919802019690931B
:101120009802809397028091A0029091A10201966B
:101130009093A1028093A0020E94180614C080918F
:10114000970290919802019790939802809397024A
:101150008091A0029091A10201979093A1028093A7
:10116000A0020E94280680919B0290919C02009709
:1011700029F0019790939C0280939B02FF91EF913D
:10118000BF91AF919F918F917F916F915F914F919F
:101190003F912F910F900FBE0F901F9018958A9A34
:1011A00000C08A980895CF93DF93662311F0889A40
:1011B00001C088988998849A859A869A879A8F9888
:1011C0008E988D988C9887FD8F9AC82F86FD8E9A61
:1011D000C5FD8D9AC4FD8C9A0E94CF088F988E9879
:1011E0008D988C98C3FD8F9AC2FD8E9AC1FD8D9A01
:1011F000C0FD8C9A0E94CF088C9A8D9A8E9A8F9AF5
:10120000DF91CF910895882311F0889A01C08898C2
:10121000899A84988598869887988A9A00C07C9B3A
:1012200002C080E101C080E07D9980627E99806487
:101230007F9980688A9800C08A9A00C07C998160F2
:101240007D9982607E9984607F9988608A9890E019
:10125000089580E00E94030987FDFBCF88E090E0BD
:101260000197F1F780E00E94030990E008951F9331
:10127000182F0E94290960E0812F0E94D3081F9136
:1012800008951F93182F0E94290961E0812F0E9461
:10129000D3081F910895662311F4805809C0613066
:1012A00011F4805405C0623011F48C5601C08C5288
:1012B0000E94370908950E94290990E0089581E06D
:1012C0000E943709089582E00E94370908951F930C
:1012D000182F0E942909982F1A3099F4843110F49C
:1012E00080E40BC08054843110F484E106C0945132
:1012F0009C3210F484E501C080E080580E943709D8
:1013000004C061E0812F0E94D3081F910895CF93FC
:10131000DF93EC0102C00E94670989918823D9F705
:10132000DF91CF910895CF93DF93EC0102C00E942B
:101330006709FE01219684918823C9F7DF91CF9137
:101340000895FF920F931F93F82E809A819A829AA4
:10135000849A859A869A879A80E09AEF0197F1F7A6
:101360008D9A8C9A0E94CF0880E09EE40197F1F755
:101370000E94CF0800E011E0C8010197F1F70E9438
:10138000CF08C8010197F1F78C980E94CF08C801D7
:101390000197F1F788E20E94370988E00E94370937
:1013A0000E945F0986E00E9437098F2D0E9437094D
:1013B0001F910F91FF90089581E090E00895482FCC
:1013C000282F30E0C9018F7090708430910599F119
:1013D0008530910524F4039709F046C00AC0853092
:1013E000910521F0069709F03FC034C089E090E0F4
:1013F0000895C90180739070C09771F4C901807C11
:101400009070803C910511F483E022C046FD11C02C
:1014100047FD0FC082E01CC044FD04C045FD02C072
:1014200083E001C085E026FD02C047FF11C08E5F4A
:101430000FC084E00DC0C90180739070892B11F03A
:1014400097E001C093E0822F807C09F09C5F892F98
:1014500090E00895207F30702150304024303105D5
:1014600018F482E090E0089581E090E008951F93E1
:10147000CF93DF93FC01162F8081282F30E02F704F
:1014800030702115310519F481E090E00FC029304A
:1014900031051CF080E090E009C0C0E0D0E00E947F
:1014A000DF09181710F0C1E0D0E0CE01DF91CF9135
:1014B0001F91089520E030E0809176028F3F11F077
:1014C00021E030E0C9010895FC019785892F8260F1
:1014D000878780818F708150823010F49264978763
:1014E00008950F931F938C0180917602992787FDB1
:1014F000909534E0880F991F3A95E1F78458994FF9
:101500000E94640A80917602992787FD909524E0D5
:10151000880F991F2A95E1F7B8018458994F0E94C6
:10152000B11080917602992787FD9095019665E02C
:1015300070E00E944314809376022091A202281743
:1015400019F48FEF809376021F910F9108950F93F6
:101550001F93CF93DF93982F1091A20200917602F0
:10156000101729F48CE392E00E94400D2DC0C12F8A
:10157000DD27C7FDD0958091A3029E0144E0220F94
:10158000331F4A95E1F7F901E80FF11DE458F94FCF
:101590009083682F6F5F6093A3026F3038F4C901A6
:1015A0008458994F0E94370A892B71F00F3F11F42C
:1015B00010937602CE01019665E070E00E9443141C
:1015C0008093A2021092A302DF91CF911F910F91FD
:1015D0000895EF92FF921F93CF93DF93CDB7DEB7BD
:1015E00021970FB6F894DEBF0FBECDBF19820E94BF
:1015F000910D182F10957E010894E11CF11C07C075
:10160000C7010E94A30D89810E94A70A11501123CE
:10161000B9F721960FB6F894DEBF0FBECDBFDF91AC
:10162000CF911F91FF90EF9008951F93CF93DF9379
:1016300010E0CCE7D6E0CE010E94A2101F5F15306B
:10164000D1F7DF91CF911F9108950F931F93F80168
:1016500097838683718760875387428711821082C0
:1016600013821282358324831F910F910895EF9284
:10167000FF920F931F93FA01A82FB0E0A61BB70BA0
:10168000828193818A0F9B1F93838283248135817A
:10169000281739071CF43383228304C097FF02C044
:1016A0001382128286819781A89FB001A99F700D35
:1016B000B89F700D11244281538120853185429F4E
:1016C0007001439FF00C529FF00C11240027F7FC8F
:1016D0000095102F20813181AD01421B530B2285D3
:1016E0003385C901489F9001499F300D589F300DA7
:1016F0001124B183A083882777FD8095982F6E0DE4
:101700007F1D801F911F442737FD4095542F620F86
:10171000731F841F951F24E630E040E050E00E94D4
:10172000561420383105410551052CF02FE730E0E3
:1017300040E050E006C057FF04C020E030E040E049
:1017400050E0822F90E01F910F91FF90EF9008954D
:10175000823018F08230C1F40FC090E0FC01EE0F2F
:10176000FF1FE80FF91FEE0FFF1FEE0FFF1FEC55D5
:10177000FD4F7383628308957093A7026093A6025E
:101780007093B3026093B202089580919702909192
:1017900098029093CD068093CC060895809199028B
:1017A00090919A029093CF068093CE06089520914F
:1017B000CE063091CF068091990290919A02281717
:1017C000390711F460E006C02817390714F468EDF2
:1017D00001C068E281E00E94900308952091CC0648
:1017E0003091CD0680919702909198022817390781
:1017F00011F460E006C02817390714F468ED01C041
:1018000068E280E00E94900308950E94EE0B0E941F
:10181000D70B08950F931F938C0180E00E94AE03B5
:10182000F801828381E00E94AE03F80183838091F6
:101830009702909198029583848380919902909168
:101840009A02978386831F910F910895FF920F93B9
:101850001F93CF93DF93F62E813049F1813020F032
:10186000823009F0BAC03EC016166CF480E00E94C7
:101870003806992787FD909544EA52E0BC018F2DE8
:101880000E94370B11C080E00E943806992787FD1F
:101890009095909581959F4F44EA52E0BC018F2D21
:1018A00081950E94370B8195682F80E094C01616B1
:1018B00054F481E00E943806992787FD909540EB0B
:1018C00052E0BC0152C081E00E943806992787FD92
:1018D0009095909581959F4F40EB52E0BC018F2DE4
:1018E000819574C080E00E943806082F112707FDFB
:1018F000109581E00E943806C82FDD27C7FDD095DE
:101900000E94140780FF03C0080F191F02C0C81BE4
:10191000D90B62E070E00E944314C801860F971F44
:101920009E01261B370B1F1424F5BC01803891053E
:1019300014F06FE770E0E9012038310514F0CFE7CB
:10194000D0E077FF02C060E070E044EA52E08F2D03
:101950000E94370B682F80E00E949003BE01D7FFE2
:1019600002C060E070E040EB52E08F2D0E94370B28
:1019700030C0BC011816190614F460E070E0E901EB
:101980001216130614F4C0E0D0E01F2D11958FEF4E
:101990006138780714F461E87FEF709561957F4FA7
:1019A00044EA52E0812F0E94370B8195682F80E036
:1019B0000E949003BE01C158DF4F14F461E87FEF2D
:1019C000709561957F4F40EB52E0812F0E94370B5D
:1019D0008195682F81E00E949003DF91CF911F9144
:1019E0000F91FF900895AF92BF92CF92DF92EF9246
:1019F000FF920F931F93CF93DF935B016A017901ED
:101A0000E801823018F0823099F40DC00CE0809F1C
:101A1000800111240C551D4F9E01A701B601C5017F
:101A20000E94250B05C080E00E94F30C81E0EECF00
:101A3000DF91CF911F910F91FF90EF90DF90CF90AA
:101A4000BF90AF90089580919702909198029093E3
:101A5000CD068093CC068091990290919A02909342
:101A6000CF068093CE0608951F93182F83E00E941F
:101A7000FC03882319F0812F0E9411051F910895FE
:101A8000CF93DF93EC0102C00E94340DFE0121963A
:101A900084918823C9F7DF91CF91089588E692E079
:101AA0000E94400D0895CF93DF93EC0102C00E9485
:101AB000340D89918823D9F7DF91CF9108950F9341
:101AC0001F938C018BE10E94340D8BE50E94340D35
:101AD000C8010E94530D1F910F91089587E792E06E
:101AE0000E945F0D0895EF92FF920F931F938C0158
:101AF000CB012CEBE22E22E0F22E4AE050E0B701BF
:101B00000E940614C8010E94400DC7010E94530D97
:101B10000E946E0D0E944E0D1F910F91FF90EF904D
:101B200008959091C60220917902921719F480E0ED
:101B300090E00895892F821B921710F490E0089589
:101B4000815090E00895CF93DF93EC018091C6021D
:101B5000E82FF0E0CF0101966FEF70E00E94431490
:101B60009C018091790290E02817390719F480E0F0
:101B700090E008C0E653FD4F808188832093C60221
:101B800081E090E0DF91CF910895282F90917A0223
:101B90008091C702981719F420E030E00FC0892F18
:101BA00090E0FC01E853FC4F208301966FEF70E05A
:101BB0000E94431480937A0221E030E0C901089525
:101BC000282F909179028091C602981769F0892F89
:101BD00090E0FC01E753FD4F208301966FEF70E02A
:101BE0000E9443148093790208958091C80290E086
:101BF000FC01E853FB4FE08101966FEF70E00E941B
:101C0000431420917B0230E08217930719F480E09F
:101C100090E008958091C7028E1720F4E81B8E2F64
:101C200090E008958E1B809590E008951F93CF93C8
:101C3000DF938091C702C82FD0E0CE0101966FEFED
:101C400070E00E94431420917A0230E082179307DB
:101C500089F01091C9020E94F50D181758F4812FD0
:101C60008F5F8093C902C80FD11DC853DC4F888194
:101C700090E002C08FEF90E0DF91CF911F91089527
:101C80000E94F50D9091C902891B90E00895409142
:101C9000C802842F90E001966FEF70E00E94431419
:101CA00020917B0230E08217930729F04F5F409329
:101CB000C8021092C902089508951092C9020895A9
:101CC00090917B028091C802992321F0981728F403
:101CD0008F5F891B809590E00895981B9150892F04
:101CE00090E0089580917B0290E0FC01E953FB4F66
:101CF00020917A022150208301966FEF70E00E94BC
:101D0000431480937B0282E090E00E94FC03892BC5
:101D100011F40E94970408950E94710F0E949D047F
:101D20000E94A60561E080E00E943605089580913A
:101D3000C705882319F480E090E008958091C805D4
:101D400090E024E0880F991F2A95E1F786539A4F77
:101D500008958091790686FF03C08AE696E008958B
:101D600080917A06882379F48091C705882359F0F9
:101D70008091C80590E034E0880F991F3A95E1F70B
:101D800086539A4F089580E090E0089590E0809106
:101D9000790686FD91E08091C705980F892F90E024
:101DA000089581E080937A06089510927A06089546
:101DB0008AE696E00E94A21008958091C7058823C4
:101DC000C9F08091C80590E044E0880F991F4A95BA
:101DD000E1F786539A4F0E94A2108091C705815067
:101DE0008093C7058091C8058F5F6AE00E94371411
:101DF0009093C8050895CF93DF93CAECD5E0CE0148
:101E00000E94A210609686E0CA35D807C1F78AE61C
:101E100096E00E94A2101092C8051092C905109277
:101E2000C70510927A06DF91CF9108950E94FB0EAC
:101E300008959C018091C7058A3019F480E090E0F4
:101E400008956091C90570E054E0660F771F5A95B8
:101E5000E1F766537A4FC9010E94B1108091C7051E
:101E60008F5F8093C7058091C9058F5F6AE00E94EC
:101E700037149093C90581E090E008956AE676E012
:101E80000E94B11008950F931F93CF93DF93CDB7A6
:101E9000DEB760970FB6F894DEBF0FBECDBF0E94CD
:101EA0005A0A882399F08E010F5F1F4FC8010E94C4
:101EB000A210C8010E94710A888986FF04C0C80167
:101EC0000E943E0F03C0C8010E94190F60960FB612
:101ED000F894DEBF0FBECDBFDF91CF911F910F9160
:101EE000089582E00E94FC03882331F084E580930A
:101EF000BA0085EC8093BC0008951F920F920FB634
:101F00000F9211242F933F934F935F936F937F937F
:101F10008F939F93AF93BF93EF93FF9364E084E01D
:101F20000E9436052091BB008091B90090E0887F27
:101F30009070803A9105A1F1813A910594F4803630
:101F4000910521F18136910524F4892B09F444C0CF
:101F50004AC080389105B1F08838910509F043C036
:101F600011C0883B910531F1893B910524F4883AF1
:101F70009105C9F517C0803C910549F1883C910550
:101F800091F523C0822F0E94E00D04C064E083E03D
:101F90000E9436050E94910D823010F485E821C020
:101FA00085EC1FC080917B06882321F010927B0670
:101FB0000E94470E0E94160E8093BB0081E0809322
:101FC0007B060E94400E8FEC0CC00E94470E1092C0
:101FD0007B060E945D0E07C010927B060E945D0E7C
:101FE00084E98093BC00FF91EF91BF91AF919F91E5
:101FF0008F917F916F915F914F913F912F910F90B2
:102000000FBE0F901F9018958AB18F708AB98BB14F
:10201000806F8BB9089529B1482F81E090E0042E9C
:1020200002C0880F991F0A94E2F730E0209530959E
:1020300054E0359527955A95E1F78223932302C002
:10204000959587954A95E2F790E008951092D0060D
:102050001092D1061092D2061092D3061092D50695
:102060001092D4061092D7061092D6061092D90676
:102070001092D8061092DA060895FC01A0EDB6E0A1
:102080008BE00D9001928150E1F708950F931F931B
:1020900000ED16E0C8010E94B703C8010E940A0CB7
:1020A0001F910F91089586EE90E19093DC06809346
:1020B000DB0688E692E19093DE068093DD0684EDF0
:1020C00091E19093E0068093DF0687E293E190939D
:1020D000E2068093E1068FE992E19093E406809313
:1020E000E30682EA91E19093E6068093E50688E7AD
:1020F00091E19093E8068093E7061092EA06109229
:10210000E9061092EC061092EB061092EE06109281
:10211000ED061092F0061092EF061092F206109261
:10212000F1061092F4061092F3061092F606109241
:10213000F5061092F8061092F7061092FA06109221
:10214000F9060895DC0180E090E0FD01E80FF91F39
:10215000108201968F309105C1F781E0FD018787DC
:102160000895CF93DF93EC01AB0120E030E0FA015A
:10217000E20FF31FDE01A20FB31F8C9180832F5F4C
:102180003F4F2F30310599F78F85FA018787DF910F
:10219000CF910895DC01EC91F0E0EF70F070EE0F5C
:1021A000FF1FE552F94F0190F081E02D309719F0B3
:1021B000CD0119950895FD0187858460878708956D
:1021C000FC0180810E94DF0990E00895FC01878571
:1021D000846087870895803299F0813218F48031C5
:1021E000B9F405C0803419F0803891F409C0E62FA5
:1021F000F0E0EE0FFF1FE457FD4F51834083089539
:10220000E62FF0E0EE0FFF1FE556FD4F51834083B0
:102210000895E82FF0E0EE0FFF1FDF01A457BD4F38
:102220006D937C93E556FD4F518340830895803232
:10223000A9F0813218F4803129F407C0803429F0E4
:10224000803861F081E090E00895E62FF0E0EE0F35
:10225000FF1FE457FD4F808191810895E62FF0E044
:10226000EE0FFF1FE556FD4F80819181089580326A
:1022700029F1813218F4803161F505C0803419F0FC
:102280008038E1F026C0A62FB0E0AA0FBB1FFD01E9
:10229000E457FD4F80819181892B19F480E090E013
:1022A000089520E0A556BD4F8D919C91892B09F48E
:1022B00021E081E02827822F90E00895A62FB0E04A
:1022C000AA0FBB1FFD01E457FD4F80819181892B2F
:1022D00019F081E090E0089520E030E0A556BD4F70
:1022E0008D919C91892B11F021E030E0C901089576
:1022F000FC01808190E0807F90708032910599F0A0
:10230000813291051CF44097C9F407C080339105D0
:1023100071F08034910591F40EC0818187FD88E2CF
:1023200080937C020BC0818180937D0207C08181F4
:1023300080937E0203C0818180937F0287858460C1
:10234000878708950F931F93CF93DF93EC019881B4
:102350008F8582FD24C00F8110E0102F0027888513
:10236000080F111D2D8130E0322F22278E81280F7A
:10237000311D4B8150E0542F44278C81480F511D53
:10238000698170E0762F66278A81680F711D892F19
:1023900082958F700E94F30C8F8584608F87DF9108
:1023A000CF911F910F910895FF920F931F93CF9399
:1023B000DF93CDB7DEB72C970FB6F894DEBF0FBE14
:1023C000CDBFFC018081082F10E0007F1070CE018E
:1023D00001960E940A0C0034110589F1013411059F
:1023E0005CF40032110509F10033110511F10031DF
:1023F000110509F05FC015C00036110509F448C089
:10240000013611052CF40035110509F053C03BC00D
:102410000037110509F441C00038110509F04AC020
:1024200041C00E945C0E8B8141C00E945C0E8C8179
:102430003DC00E945C0E0E94C60E815037C00E94B3
:10244000970E8C01009711F4FF2403C00E94E01046
:10245000F82E0E945C0E8F2D0E94C50D0E94720EF8
:102460000115110539F10E945C0E90E009C0F801D8
:10247000E90FF11D80819C870E94C50D9C859F5F9F
:102480009F15A9F715C00E945C0E80918C020EC0AA
:102490000E945C0E80919B0209C00E945C0E80919C
:1024A0008E0204C00E945C0E80919D020E94C50DA8
:1024B0000E94720E0E94D80E2C960FB6F894DEBFC2
:1024C0000FBECDBFDF91CF911F910F91FF90089567
:1024D000FC01808190E0807F90708033910511F144
:1024E0008133910534F48031910551F0809711F5D5
:1024F00014C080349105C9F080359105D9F418C015
:10250000A89588E190E02CE00FB6F894A895809308
:1025100060000FBE20936000FFCF0E94D10E0E948A
:10252000DD0E08C00E94D50E05C00E94160F02C025
:102530000E94D10E0E94D80E0E94230D08950F9381
:102540001F93CF93DF93EC0108811F8512FD7AC0A2
:1025500015FF4AC013FD0BC060E0802F80730E94FE
:102560003711892B21F418601F870E94C50B1F8526
:1025700014FD0BC061E0802F807C0E943711892BF5
:1025800021F410611F870E94CE0B2F8524FF08C005
:1025900023FF06C024602F8760E082E00E94260CA3
:1025A00080917E02882351F08F8583FF03C00E94B3
:1025B000EE0B04C084FF02C00E94D70B60E081E8EC
:1025C00092E00E9437048823E9F18F8583FD04C0DF
:1025D000698180E00E94260C8F8584FD33C06A816A
:1025E00081E00E94260C2EC06D8170E0762F662758
:1025F0008E81680F711D4F8150E0542F44278885CC
:10260000480F511D298530E0322F22278A85280F57
:10261000311D8B8190E0982F8827EC818E0F911DC2
:1026200090938D0280938C0270939C0260939B0226
:1026300050938F0240938E0230939E0220939D020E
:1026400010621F87DF91CF911F910F9108950F9313
:102650001F93CF93DF93EC0128816F8562FDD1C07A
:10266000022F0073122F107C65FF79C063FD1BC021
:10267000003279F0013218F40031A9F405C00034B9
:1026800019F0003881F405C080918C0290918D0280
:1026900004C080919B0290919C02892B21F4686078
:1026A0006F870E94C50B2F8524FD1BC0103279F067
:1026B000113218F41031A9F405C0103419F0103893
:1026C00081F405C080918E0290918F0204C08091A8
:1026D0009D0290919E02892B21F420612F870E94F8
:1026E000CE0B2F8524FD02C023FF04C0003311F45C
:1026F00028612F872F8524FF08C023FF06C0246090
:102700002F8760E082E00E94260C80917E02882361
:1027100051F08F8583FF03C00E94EE0B04C084FF3D
:1027200002C00E94D70B60E081E892E00E9437046B
:10273000882309F466C0003319F4698182E00CC073
:102740008F8583FD04C0698180E00E94260C8F85FF
:1027500084FD57C06A8181E00E94260C52C02B8103
:102760007C818D8190E0582F44278E81480F511D28
:10277000103C69F4898190E0982F88272A81820F84
:10278000911D0E9419078F8584608F873AC030E0C1
:10279000003339F48A8190E0582F4427420F531FA9
:1027A00019C0322F2227270F311D003279F0013254
:1027B00018F4003179F405C0003419F0003851F4F0
:1027C00005C030938D0220938C0204C030939C028C
:1027D00020939B02103279F0113218F4103179F401
:1027E00005C0103419F0103851F405C050938F0211
:1027F00040938E0204C050939E0240939D026062FB
:102800006F87DF91CF911F910F910895FB019F0179
:10281000E8944230C4F04532B4F44A3029F497FBCE
:102820001EF4909581959F4F642F77270E94711415
:10283000805D8A330CF0895D8193CB010097A1F70D
:1028400016F45DE251931082C9010C942714DC0147
:10285000FC01672F71917723E1F7329704C07C91D7
:102860006D9370836291AE17BF07C8F30895991BEB
:1028700079E004C0991F961708F0961B881F7A9577
:10288000C9F78095089597FB092E07260AD077FD92
:1028900004D027D006D000201AF4709561957F4FA0
:1028A0000895F6F7909581959F4F089597FB092E0F
:1028B00005260ED057FD04D028D00AD0001C38F4CD
:1028C00050954095309521953F4F4F4F5F4F08955C
:1028D000F6F790958095709561957F4F8F4F9F4F3C
:1028E0000895AA1BBB1B51E107C0AA1FBB1FA61757
:1028F000B70710F0A61BB70B881F991F5A95A9F7A9
:1029000080959095BC01CD010895A1E21A2EAA1BD5
:10291000BB1BFD010DC0AA1FBB1FEE1FFF1FA2178F
:10292000B307E407F50720F0A21BB30BE40BF50B8C
:10293000661F771F881F991F1A9469F76095709515
:10294000809590959B01AC01BD01CF010895FFCF0B
:102950005457492000747769200044454255472068
:10296000006465627567200041423A4500490054A1
:102970000020005665722E20322E392E323030392A
:10298000303732370023020A5465737465204C6572
:102990007563687464696F64656E2E2E2E0D0A006F
:1029A00052454431002C2052454432002C204F52D5
:1029B000414E4745002C20475245454E002C2042B1
:1029C0004C55450D0A00FF4B000101012801010192
:00000001FF
